:10000000E02D002095020000910200009302000004
:1000100000000000000000000000000000000000E0
:10002000000000000000000000000000910200003D
:1000300000000000000000009102000089020000A2
:100040009102000091020000910200009102000064
:100050009102000091020000910200009102000054
:100060009102000091020000910200009102000044
:100070009102000091020000910200009102000034
:100080009102000091020000910200009102000024
:10009000910200000000000000000000910200003A
:1000A0009102000091020000910200009102000004
:1000B00000000000074B1A00197DC907FCD520215C
:1000C000FF31198304494008D8611980137DDB078B
:1000D000FCD570470040004102A5FFFF70B58025A8
:1000E0000400ED02AC4200D370BD20000134FFF7E4
:1000F000E1FFFF34F6E7002330B59A4200D130BD6E
:100100009C000D5901330551F7E70000F0B580253B
:10011000104B114E5C68114FAC435C60002A00D15B
:10012000F0BD1400102A00D91024121B1E801D7D62
:10013000ED07FCD5A400A44600240D590551043454
:100140006445FAD1001909191F801C7DE407FCD50C
:10015000E4E7C0460040004144A5FFFF04A5FFFFBF
:10016000802270B5002304000D005200E958E058C9
:10017000814203D104339342F8D170BD2000FFF7D0
:1001800099FF402229002000FFF7C0FFF5E700009B
:10019000024A53785BB2002BFBDB7047000C004037
:1001A00010230249CA681A42FCD070470008004078
:1001B0001E21F8B50226274A274C5368274D8B434A
:1001C00033435360A660FFF7E3FF254B6360FFF7FF
:1001D000DFFFAE84FFF7E4FF224B1B689B0E3F2B33
:1001E00000D1203B002602271F4A9B0213431F4ACF
:1001F000EA62AB62AE84FFF7D3FF1D4BAB84FFF71F
:10020000CFFFAB8C3B43AB84FFF7CAFF3F22638831
:10021000934380221F4367806388D2011343638026
:10022000A660FFF7B5FF134B6360FFF7B1FFC02176
:10023000114A124B12485360036A09061B021B0A3B
:100240000B43036207239660136030220D4B1A6044
:10025000F8BDC04600400041000C004000080040CE
:100260000600010024608000FF01000080BB0A1C22
:10027000240500000007030010E000E0E703000091
:1002800000ED00E00000002010B500F0FBF810BD0C
:10029000FEE7FEE71E4A1F4B70B51F499A4232D156
:1002A00000211E4B1E4A934230D3FF221D4B0321D7
:1002B00093431D4A0C2593600222082430261B4BD1
:1002C0001B485A62C3788B431343C370C378AB4354
:1002D0002343C370174B987BB04306002020304364
:1002E0009873987BA84304439C73987B884302438C
:1002F0009A738023104A51680B43536000F090FEBC
:10030000FEE701CA01C38B42FBD3C9E702C3CAE7B8
:100310004C1D000000000020D0010020D001002072
:10032000DC0D00200000000000ED00E0FC7000414A
:10033000005000410048004100400041F7B5134D16
:1003400001906B88002B18D1082738001A0292B24E
:1003500014B2A44666465400A2B2002E02DA0C4A39
:100360005440A2B2013880B20028F1D158002A527C
:100370008022013352009342E7D1019A0B0A534085
:100380005B00E85A0902484080B2FEBDD00100205F
:1003900021100000074B1B685843074B1A78952320
:1003A000002A00D11233012243439A4200D37047FE
:1003B0000132FAE700000020D003002070B50500EC
:1003C0001C2400200F260B00E3403340002A09D1F3
:1003D000002B07D1002C0BD0002809D1043C231D91
:1003E000F1D170BD092B03DD37332B540130F5E714
:1003F0003033FAE7054B064A1A60BFF34F8F054BBF
:10040000054ADA60BFF34F8FFEE7C046FC7F00204D
:10041000EF6926F000ED00E00400FA0510B50B4A84
:100420001368002B0ED10A4911600A490A6801328B
:100430000A6009490868002806D0824204D30B608C
:10044000FFF7D8FF013B136010BDC046DC0300205E
:10045000DC050000080A00200C0A0020054B064AB3
:100460001A60BFF34F8F054B054ADA60BFF34F8F19
:10047000FEE7C046FC7F0020EF6916F000ED00E0CB
:100480000400FA05012210B5194B1A491A701A4ACC
:100490001368013313600A68002A0CD0174810183B
:1004A000834203D180241648A4028461934201D17F
:1004B00000230B6010BD1348DBB20278002B10D173
:1004C00080210F4B8902996111000A39C9B20E4B84
:1004D000F02902D91978494219701B78D218027094
:1004E000E8E79342E6D18022054B92025A61E1E7A8
:1004F000D0030020D8030020D403002018FCFFFF05
:10050000004400410500002004000020074B084A79
:100510001B681168994207D2FA21C9005B18136061
:100520008022044B92025A617047C046D4030020D7
:10053000D8030020004400418022024B92029A60BE
:100540009A6170470044004170470000202370B555
:10055000354A0F20D1690B43D361012233490B780F
:1005600013430B70324B19788143197006211C78A4
:10057000214319702F490C7822430A701A780240DF
:100580001A70602219780A431A702B4B2B4A5A8032
:100590005A78D209FCD12A4B013219780A431A70D1
:1005A0009A78D207FCD41F2026490A68520B0240D1
:1005B000824200D105221C8D234D024092012C4025
:1005C00022431A850A68920C02401F2A00D1023A7F
:1005D0001F24188D2240A043024307201A850A6871
:1005E000D20D0240824200D10322198D02401748E9
:1005F000120301400A437F211A851A7814480A40E1
:100600001A70042219780A430C211A7058621A8948
:100610008A431A811A890B398A431A818022002160
:10062000520001F090FA70BD0004004058440041AF
:100630003C44004159440041000C00400640000089
:1006400000500041246080003FF8FFFFFF8FFFFF54
:10065000540A0020F7B51C00314B06005B6A0F00FE
:1006600015000193002C05D1443454432D4BE4185C
:10067000FFF7D4FE63782278934210D2D51ABD4298
:1006800000D93D00002E08D0211DC9182A003000D5
:1006900001F050FA63785B1963702800FEBD019B7E
:1006A000A1786A01D318002911D1211D1960596858
:1006B0001D48890B890359605968014059601B49DD
:1006C000551840212879014329710121A17014494D
:1006D00000255118019116495218127AD207DCD51B
:1006E0005D68A278EDB22570022A04D12A0019684B
:1006F000201D01F01FFABD4200D93D00002E0CD094
:100700002A0030006570211D01F014FA0122019BBE
:10071000FF331A720023A370BFE76670F6E7C04686
:1007200000500041540B0020FF3F00F000510041F9
:10073000FF50004110B50023FFF78CFF10BDF8B546
:1007400005000C0016001F00002C00D1F8BD210090
:1007500028003B003200FFF77DFF241A2D18F3E735
:10076000F8B50D001F4956014C6A3419002B1BD0F7
:1007700063695B005B08636120616369AA049B0B8A
:10078000920C9B03134363616369174A1748134034
:100790006361321802238021160013729171327A3C
:1007A0001A42FCD02800F8BD012163695B005B0F91
:1007B00003339940A94209D8131F5A1E9341626915
:1007C000DB07520052081A436261D5E744275743BA
:1007D000074A0437BF1801002A00380001F0AAF9BF
:1007E0003800C9E700500041FF3F00F0FF500041D2
:1007F000540B002010B50023FFF7B2FF10BD00001E
:1008000010B5054A0B001188994200D91900002241
:10081000FFF7F0FF10BDC0460204002007B500221C
:100820006B461100D81DFFF7E5FF07BDF0B5C04CC2
:100830009DB0FFF7F3FDA38B08211A000A40BD4EBF
:1008400005920B422DD080231122C020A183383184
:10085000A3727270B1717371B74BB84C5A6880054E
:10086000224002435A605A6922401043B44A5861F8
:100870001A60B44AB4481A615A6810408022920241
:1008800002435A605A68920B92035A600022AF4B9F
:1008900071711A70AD4B1878431E9841C0B21DB0EB
:1008A000F0BD1022337A94461342F3D03272A84A34
:1008B000A74D9279A64B0292A54A0298D7799B88B8
:1008C0003A020243019210B2A14A0490A048527A1F
:1008D000007A1202024310B203909D48AD7AC07AAA
:1008E000000228439B4D288040259B487571834218
:1008F00000D1B4E136DC81204000834200D1C7E161
:1009000015DC822B00D193E106DC803B012B00D863
:1009100089E12023B371BDE7802252009342F8D0D1
:100920000222FF329342F4D1FFF778FFB2E7B02101
:1009300089008B4200D170E10EDCE022520093422C
:10094000E7D0A23B854AFF3B1342E2D100230821B6
:100950000A930B930AA8C8E0C02292009342D8D011
:100960007F4ADFE77F4A9342DED000DD99E07E4A8E
:10097000934214DC013A934200DBAFE07B4A93429E
:10098000E4D06032FF329342C3D1FFF747FF8023A8
:10099000049A5B421343664ADBB293727AE7882279
:1009A0006A481201934200D196E080329342B0D15E
:1009B000049B30270370FFF731FFA02303225B0065
:1009C000E254C0225C4B5D49586C920508401043CC
:1009D00058644620FF3025546548802618649020CE
:1009E00040002754586B0840104358639220400041
:1009F000265460481863B02040002554586F0840C2
:100A00005867B220400026543C307D3E2654FC38C6
:100A100084469C44604606680E4016430660A6263F
:100A2000FF36A5551E005448A0363060C02676001B
:100A3000A7551F0094373E6880200E4016433E6045
:100A4000C2267600A0551E004C4F90363760E02637
:100A500044277600A7550436A555A055C0198446ED
:100A60009C44604606680E4016430660D4208446C7
:100A70009C44604606680E4016430660F0268020BF
:100A80007600A7550436A555A0551C00E43420680F
:100A9000F433084010432060186801400A431A608C
:100AA000F8E6374A934200D129E10ADC354A9342FD
:100AB00000D139E7344A354913408B4200D133E73E
:100AC00027E7334A934200D12EE7324A934200D0BF
:100AD0001FE700230AA80380012106E08023019A72
:100AE0005B009A4204D112212B48FFF789FED1E620
:100AF0008023019A9B009A4202D199212748F4E76A
:100B0000032F7AD1029B032B00D902E70AAC4822BB
:100B10000021200001F017F8029B6770002B41D1E3
:100B2000043323701E4B638020002178DDE7C0462C
:100B300000500041FF500041540A0020FFFFFF8F8A
:100B4000140A0020580B0020FF3F00F0E0030020B3
:100B5000100A00200204002002030000FFFE000033
:100B6000010300002109000081060000A10300002C
:100B7000E00B00209C0B0020AC0C0020680C002037
:100B8000A121000021200000FFFEFFFF210A00003C
:100B900021220000A1FE0000941B00004400002060
:100BA0000904000006AE3200564B23CB23C20025B9
:100BB0002F001B681360AB00534AF358D019196813
:100BC0000122FFF7FBFB01353F18042DF3D1002371
:100BD0004D4AD3554D4B4E4A9B799B009D5828005A
:100BE00000F0B9FF23000130400020702A78023362
:100BF0000135002A98D01A70F8E70F2F02D1392159
:100C0000444872E7212F02D1092143486DE7222F82
:100C100000D07EE62121414867E7072A00D078E628
:100C2000AA213F4861E7059B0AA8022103805CE7EF
:100C30000A4200D06DE60F2150230A400399083282
:100C40005201194206D0374BD21893799B06DB0F1D
:100C50000AA8EAE7334BD2189379DB06F7E70F20AF
:100C600013000340024200D153E61140019A0A43A7
:100C700000D04EE6039A08335B01120604D5294AD8
:100C80009B1820225A714FE6264A9B186246F9E7C4
:100C90000F2013000340024200D13AE60A400199B6
:100CA000114300D035E6039A5B01120613D51E49A5
:100CB0001C4A9A185B182021D879084200D133E6E3
:100CC00059711B7A2B4200D12EE613004022FF33CC
:100CD0001A723E3AD6E760461349124A9A185B18D0
:100CE000D979014200D11FE6202158711B7A0B42AD
:100CF00000D119E61300FF3301221972C2E70B4835
:100D0000F3E6C046841B0000E1030020100A002027
:100D1000CC1B000008000020E0000020A81B000001
:100D2000F400002000500041FF500041EC00002082
:100D300010B5FFF70BFC0022034B1A700223034A85
:100D400011780B43137010BDE003002000500041E8
:100D500010B50C000122FFF74DFD200010BD10B5AD
:100D60000C000122FFF746FD200010BD70B5040005
:100D70000D00FFF75BFD03000020834204D0022238
:100D800029002000FFF7D6FC70BD70B505000C00EF
:100D9000FFF74CFD002807D0002302222100280085
:100DA000FFF7CDFC200070BD0400FBE730B5002349
:100DB0002025934200DB30BD0C78002C03D001319C
:100DC000C4540133F5E72C00FAE70000F8B580229F
:100DD0000C00050000212000920000F0B4FE002D60
:100DE0000CD13E2220004B4900F0A4FEFF235522E7
:100DF0005B00E254484B9218E254F8BD7E2D25D892
:100E00006B1E3E2B00D93F3B002B12D080251B02CE
:100E1000581C424EFF30ED001A1F591CAA4203D243
:100E2000B34211D08BB223800B0002348142F3D144
:100E3000E3E7F0222100FF2022700A31621C914278
:100E4000E4D010700132FAE7354BECE7822D31D84F
:100E50007F2DD2D12F490B2220002B31FFF7A6FF87
:100E6000802728232F4EE3727D3D3F03F0683B002F
:100E70002034002802D000F06EFE03001A0A237707
:100E800062771A0C1B0EE3772B0A3100A277A57646
:100E90000B22E3762000FFF789FF67224D230135FF
:100EA0005242ADB222746374227663761036052DF9
:100EB000DCD1A2E72B00833B012B0CD8194A1B0184
:100EC000D318DD68280000F046FE2900020020004B
:100ED00000F030FE91E78023853D2902DB02994234
:100EE00000D38AE7104B114A2360114B2000636046
:100EF000FE235B00E2508023DB00A361802380227D
:100F00009B01A3600B4B52006561E1602261E361CC
:100F10002030DDE7DC1B0000FF01000003040000BF
:100F2000FFFF0000801C00005546320A306FB10AF6
:100F300057515D9E882BED6870B516001D000A683C
:100F40002F4B0C009A4252D12E4B4A689A424ED1F6
:100F5000FE2252002C4B8A589A4248D18B689A0440
:100F600003D52A4AC969914241D1DB0712D48023B3
:100F700022695B009A420DD1E068C3B2002B09D10F
:100F8000F822234B9202C318934203D2210020314E
:100F9000FFF7E6F8002D2BD0A369002B28D0296895
:100FA0001C4A8B4206D0934201D8002901D001236C
:100FB0005B422B606369934219D8072201211A40D2
:100FC0009140DB08EB181A7AC8B2114204D1696863
:100FD000024301311A7269606A682B689A4206D32B
:100FE000002E04D10C4B1B681E330C4A136070BDDD
:100FF000002EFCD1084B1B682D33FF33F5E7C046AC
:101000005546320A57515D9E306FB10A882BED6804
:1010100000E0FFFF63040000080A00200C0A002023
:10102000F8B5504DAB68002B00D0FEE74E490A687A
:10103000531C21D120224D4BFF32188B02431A83BF
:1010400058684B4A02435A604A4ADA614A4A1A804F
:101050001A7DD207FCD5494A1A801A7DD207FCD5E1
:10106000474A0A60474A48491160484A1A801A7D2F
:10107000D207FCD5FFF7F2F90022454B1A70DA7956
:10108000D209FCD1FFF758FA424B1E68424BF218C6
:10109000F8239B029A4213D8404B414A1968414CAD
:1010A000414B914232D11978404AC90702D4216894
:1010B00091422BD03E4B22601B683E4A3233136074
:1010C000FFF776F8BFF35F8F62B6FFF731FE40207F
:1010D000FFF73AFA80270A230126374DFF012B70CC
:1010E000FFF7A4FB354C00280AD02378DAB2002B96
:1010F00005D1304B38001A60FFF726FA2E702670A3
:101100002378002B25D000F0D7FAFCE71B78DB070B
:10111000DA0F002B0DD0002380222360284B92028F
:101120005A6180239B011A6882F30888AB603047BC
:10113000C6E72168234B994201D12260C0E72168AC
:101140001A4A9142E7D0FA2023604000FFF722F9C3
:10115000E1E72378002BC3D1FF33C046013B002BCE
:10116000FBD1BDE700ED00E0004080000040004101
:10117000800004000020400005A5FFFF44A5FFFFFC
:10118000FAC7E0D8044080005DFCFFFF06A5FFFF22
:10119000001000400420000000E0FFFFB420000029
:1011A0007CB0EE87FC7F002038040040EF6926F019
:1011B000080A00200C0A002004000020040400207B
:1011C00000440041EF6916F010B5054C12220021D1
:1011D000200000F0B8FCF0232370E63BE37110BD63
:1011E00043060020F7B58027040016000025019172
:1011F000BF00A368AB4200D8F7BD3900A278019BBD
:10120000E068FFF79CFA80235B01E81801223300B5
:10121000E168FFF791FE0135EBE770B513000600BA
:101220000C00150000200A000121FFF713FA00232B
:10123000984206D02B0022001F213000FFF70AFA47
:101240000123180070BD000010B504220D210248D2
:10125000FFF7D0FA10BDC0469E01002010B50B4824
:101260000B494279037912021A4383791B041A430A
:10127000C3791B0613431A0A0B714A711A0C1B0E11
:101280008A71CB71FFF7E0FF10BDC0462406002035
:101290009E01002070B504220D00FFF7ABFA164C3A
:1012A00085420FD0FFF790FF012304222373134BD5
:1012B0009A700022DA701A715A719A711A735A73FD
:1012C000FFF7CCFFFFF780FF00232373637A217AB7
:1012D0001B020B43A17A09041943E37A1B06194345
:1012E000491B0B0A217263720B0C090EA372E17287
:1012F000FFF7B4FF70BDC0469E01002043060020EA
:1013000070B5184C142205000021200000F01BFCD1
:10131000154A002D1FD021000823D07D08313F261B
:10132000527C32401C2A01D0B24205D10F4A0C3304
:101330000A800522DBB2CA70191C834200D9011C45
:10134000C9B2002D0BD0023B9BB21B0223802000B0
:10135000FFF7A0FF70BD0423D07C211DDFE7013B18
:101360002370F4E708060020240600201C0A000071
:10137000F0B5040000252B4B85B0597C03AAD17031
:10138000997C9170D97C5170197D1170997D02AA58
:10139000D170DB7D937053880193019BAB4208D8D9
:1013A000FFF712FF0022204B1A73FFF757FF05B01B
:1013B000F0BDFFF73BFA0028F9D0039B1B4FEE1856
:1013C000002C1FD039003000FFF700FD80210422DF
:1013D00038008900FFF70EFA134A0135517A137A63
:1013E00009021943937A1B041943D37A1B060B4352
:1013F0000F495B18190A13725172190C1B0E917266
:10140000D372CAE780212300380005228900FFF744
:1014100096F9220039003000064BFFF78DFDFFF7EB
:1014200075F8D9E7240600209E010020080400205A
:1014300000FEFFFF580600207FB500F041FB454E3F
:10144000002205213000FFF7E8FE002849D0737A1A
:10145000357A1B022B43B57A3F4C2D042B43F57A8A
:101460002D061D432B0A63722B0CA3722B0E2572C3
:10147000E372F07B2F2827D8192815D8032827D006
:1014800012282FD0002840D0FFF79EFE012305220E
:101490002373324B9A700022DA701A715A719A7162
:1014A0001A7320325A7334E01A381528ECD800F039
:1014B0002DFB282CEBEB2CEBEBEBEB41EB33EBEBCD
:1014C0003BEB3FEBEBEBEB2C5A28DDD1012019E095
:1014D000F37C191C122B00D912212048C9B2FFF746
:1014E000D9FE7FBD1E4C1F49200018220830FFF78F
:1014F0005DFCF37C191C242B00D924212000C9B2E7
:10150000EDE70020FFF7FCFEEBE7FFF75DFE0023B1
:101510002373FFF7A3FEE4E7802313489B02436095
:10152000124B08210360DAE70120FFF721FFD8E71B
:101530000020FAE70C260E49320001A800F0FAFA62
:10154000B54204D9002326726372A372E3720C21A0
:1015500001A8C4E7240600209E01002043060020C5
:10156000AC010020781B00001C06002000003E7F1C
:10157000031D000072B6BFF35F8F044B044A9A82CA
:101580009A830022034B9A607047C0460050004186
:10159000FF03000000ED00E0F0B5C7B00FAF04009E
:1015A000FFF7E8FF44220021380000F0CCFA98222F
:1015B000002120A800F0C7FA02230F21BB70A378F6
:1015C00062780B40A37063680A4008930023294E99
:1015D00007ADE16828486270099301222B7320ABA4
:1015E0000796FFF7A9FC3900200020AAFFF7FAFDB3
:1015F00001230D2128006278FFF7B2F8019600253B
:101600003A00A17807A8FFF708FE002827D0019B21
:1016100003AE0393089B23227360099B0093B3607E
:101620000023337302AB9B181B78002B10D02A2B9E
:101630001CD102AB5D8D39006DBA5D80ADB2A56085
:10164000200020AAFFF7CEFDB3686D025D1BB560D8
:1016500001230D2130006278FFF782F8CFE7074BB6
:101660009D4201D9FEF7C6FE0135C9E7FEF7F6FE39
:10167000EEE7C04653425355FF0F0000F824010027
:1016800030B5EFF30883054C2360036883F30888C3
:101690004568A847236883F3088830BDD00D002033
:1016A00007B5010001226846FEF788FE082168465A
:1016B000FFF74EFB07BD0000F7B57A230022804CF0
:1016C000804922600B7000920193FFF7B5FE7E4DBA
:1016D00040212800FFF74AFB7C4B1860009B2B54ED
:1016E000002801D0FEF712FF794B009A1D60794B5C
:1016F0001A607848754B02681F68BA42E5D2744E8A
:1017000031680B78FF2B36D0734D232B00D0B3E01C
:101710006C4B1B78532B33D12B68013201310260A3
:101720003160BA1A9A4200D91A006C4D20682A60BA
:1017300000F000FA674829680368654ACB18013B46
:10174000036010684B1EC3181360634B644D1B6825
:101750002970C9B28B4203D92068591AFFF715FBCB
:10176000C046584B019A1A705B4B009A1A60584A4F
:10177000136801331360574A136801331360B8E7E5
:10178000522B04D129682068FFF7E9FAE9E74F2BCB
:1017900003D12B6822681370E3E7482B03D12B6831
:1017A00022681380DDE7572B0AD14E4B22689A42FC
:1017B00002D14D48FEF7C8FE23682A681A60D0E7B8
:1017C0006F2B04D101212068FFF7C2FAC9E7682B0B
:1017D00005D1022123681B882B602800F4E7772BB2
:1017E00004D1236804211B682B60F6E7472B09D13D
:1017F0002868FFF745FF3D4B1B78002BB1D0012136
:101800003B48E1E7542BACD04E2BAAD0562B02D14B
:101810002A213848D8E7582B05D12868FEF75EFC06
:1018200003213548D0E7592B0DD12A682068334B66
:10183000002A03D1186003213148C5E719689208CE
:10184000FEF764FCF7E75A2B8BD12F68002526683A
:10185000F719B74209D101212A48FFF779FA280080
:10186000FFF71EFF03212848AEE729003078FEF776
:1018700065FD01360500ECE71A00303AD1B20929BE
:1018800004D82B681B0113432B6070E71A00413A00
:10189000052A03D82A68373B1201F4E71A00613A97
:1018A000052A03D82A68573B1201ECE72C2B03D1F9
:1018B0002B682360009BE7E7024A1370FAE7C046F3
:1018C000CC0D0020800D0020880D0020780D002018
:1018D0007C0D0020840D0020D40D0020D80D0020A8
:1018E000740D00200CED00E040004000F0060020E8
:1018F0000F1D00001F1D0000111D0000F406002038
:10190000151D0000191D00001B1D00000300F7B588
:10191000473304001A78402103000020FEF79AFEA6
:10192000002801D10020FEBD0023237023790193FC
:101930000423E356002BF5DB3F262000019FA51D65
:10194000EB8F37404830C0183A00611D00F0F2F8C4
:10195000E88F019BC01980B2B34301D1E887E1E76A
:101960000023EB87DFE7F0B506000C001F0093B003
:1019700001923F25AC4203DC2500002F00D1403707
:101980003B0002AA2B43137002AB31002A00581C03
:1019900000F0D0F86B4640211A7902A80123FEF727
:1019A000DFFE7619641BE4D113B0F0BD030010B55F
:1019B00047331A78043100234830FFF7D4FF10BDB5
:1019C000F7B50400FFF7A2FF002842D023004833F8
:1019D0009A88A06C1A80002201385A80082867D89B
:1019E00000F09EF815052327252A483F3800324E7F
:1019F000300000F0B0F80500200031002A004C3023
:101A000000F098F829002000FFF7D0FF21E0012323
:101A1000E364FF3323658023DB006365A0235B0061
:101A2000A365264B1421E365EDE7FEF7E3FC0021F7
:101A3000E9E7FEF713FDFAE720000021FFF7B6FF04
:101A40008023206D9B01984203D321005431FEF77F
:101A500087FBF7BD2100626D206D5831FEF74BFB0F
:101A6000E5E72000656D216D2A004C30FEF743FB51
:101A7000A900C8E70026636D0193236D5D1CFF3547
:101A8000019BB34201DC5900BDE700216F1EFF3FFF
:101A90003B001878FEF752FC01370100AF42F7D146
:101AA000230072004C33013598520136FF35E7E7C9
:101AB00001225A80BBE7C046B01C0000882BED68AD
:101AC00007480622030010B547331A70FFF778FF66
:101AD00004480722030047331A70FFF771FF10BD57
:101AE000F80600208008002010B5E2B00400FFF7DF
:101AF00041FDC42200216846520000F024F847232B
:101B00006B441C706846FFF75BFFFBE702B471464D
:101B100049084900095649008E4402BC7047C04636
:101B200002B4714649084900095C49008E4402BC70
:101B30007047C046002310B59A4200D110BDCC5C5E
:101B4000C4540133F8E703008218934200D1704770
:101B500019700133F9E70023C25C0133002AFBD17D
:101B6000581E7047416461667275697420496E64DD
:101B70007573747269657300466561746865722077
:101B80004D3000000CA0800040A0800044A08000E8
:101B900048A0800012011002EF0201409A231500B4
:101BA00001420102030100000697FF0901A101158E
:101BB0000026FF0075089540090181029540090142
:101BC000910295010901B102C0000000000000006F
:101BD000641B0000781B0000E1030020EB3C9055E3
:101BE0004632205546322000020101000240007EAC
:101BF0003EF83F000100010000000000000000006E
:101C00008000294200420046454154484552424F17
:101C10004F5446415431362020203C21646F637478
:101C20007970652068746D6C3E0A3C68746D6C3E1A
:101C30003C626F64793E3C7363726970743E0A6CF7
:101C40006F636174696F6E2E7265706C6163652875
:101C500022687474703A2F2F6164616672752E6900
:101C6000742F22293B0A3C2F7363726970743E3CC7
:101C70002F626F64793E3C2F68746D6C3E0A0000E1
:101C8000494E464F5F55463254585400B01C000030
:101C9000494E44455820202048544D001A1C00004D
:101CA00043555252454E5420554632000000000024
:101CB00055463220426F6F746C6F616465722033D9
:101CC0002E31312E302053464857524F0D0A4D6F5A
:101CD00064656C3A2046656174686572204D300D0C
:101CE0000A426F6172642D49443A2053414D443297
:101CF00031473138412D466561746865722D763003
:101D00000D0A000000000800003E800200020006EC
:101D100000580A0D00590A0D005A00230A0D0076DA
:101D2000312E31205B41726475696E6F3A58595A91
:101D30005D204F6374203237203230323020323011
:101D40003A32353A33300A0D00000000010000003D
:101D500001C80000050F3900021810050038B60848
:101D600034A909A0478BFDA0768815B6650001014E
:101D7000001C100500DF60DDD88945C74C9CD2658A
:101D80009D9E648A9F00000306AA000200000000D6
:101D90000902990005010080FA080B000202020105
:101DA00000090400000102020100052400100104E2
:101DB000240206052406000105240103010705830A
:101DC000030800FF09040100020A00000007058162
:101DD0000240000007050202400000090402000260
:101DE0000806500007058402400000070505024070
:101DF00000000904030002030000000921000100A3
:101E00000122210007058603400001070506034063
:101E100000010904040002FF2A01000705870340AE
:101E2000000107050703400001000000090403004A
:101E3000020300000300000000C2010000000800CF
:101E40000A00000000000306AA00080002000400C7
:101E5000A0001400030057494E55534200000000F3
:101E60000000000000008400040007002A00440075
:101E70006500760069006300650049006E0074002B
:101E80006500720066006100630065004700550050
:101E9000490044007300000050007B00390032000C
:101EA0004300450036003400360032002D00390072
:101EB0004300370037002D0034003600460045004F
:101EC0002D0039003300330042002D003300310073
:101ED0004300420039004300350042004200330015
:101EE000420039007D0000000000534253550000BD
:101EF000000000000000000000800202200000003E
:101F000000000000000000000000000000000000D1
:101F10000000000000000000312E30300000000002
:101F200000000000000000000000000000000000B1
:101F300000000000000000000000000000000000A1
:101F40000000000000000000000000000000000091
:101F50000000000000000000000000000000000081
:101F60000000000000000000000000000000000071
:101F70000000000000000000000000000000000061
:101F80000000000000000000000000000000000051
:101F90000000000000000000000000000000000041
:101FA0000000000000000000000000000000000031
:101FB0000000000000000000000000000000000021
:101FC0000000000000000000000000000000000011
:101FD0000000000000000000000000000000000001
:101FE00000000000000000000000000000000000F1
:101FF00000000000E91A000099150000B01C000064
:10200000008000202DAB000079A9000015AB000076
:1020100000000000000000000000000000000000C0
:1020200000000000000000000000000015AB0000F0
:10203000000000000000000015AB000081AB0000B4
:1020400015AB000015AB000015AB0000ED5400000F
:102050003DA9000015AB0000B14D000019AB000018
:1020600015AB00005D89000015AB000015AB00004A
:102070006D49000015AB00006D89000015AB000034
:1020800015AB000015AB000015AB000015AB000050
:102090008993000015AB000015AB00009D540000B3
:1020A00015AB000015AB000015AB000015AB000030
:1020B0000000000010B5064C2378002B07D1054B1B
:1020C000002B02D0044800E000BF0123237010BDA4
:1020D0000003002000000000F84C0100044B10B584
:1020E000002B03D00349044800E000BF10BDC046E8
:1020F0000000000004030020F84C0100DA2310B5B2
:102100000400DB00C01806F06DFB094BE01806F078
:1021100074F9C223DB00E01808F053FC20000C30F7
:1021200008F04FFC200008F04CFC200010BDC04619
:102130005C060000F7B50124224A234B21000D2044
:10214000D45408F0B1FF21000D2008F0DDFF0A2073
:1021500008F05AFD2100082008F0A6FF21000D20FC
:1021600008F0A2FF194D0027280006F054F92800B6
:1021700006F0A4F900261F23B340002401936B88C6
:10218000A3420AD921002800019A06F0F0FA01348E
:10219000280006F093F9A4B2F1E7FA20C00008F095
:1021A00033FD002F08D00021082008F0ADFF0027E4
:1021B0000836282EDFD1DDE70121082008F0A4FF32
:1021C0000127F5E71C03002042060000400A00201A
:1021D000F0B58E4B8E4C85B0E55C0293002D11D18D
:1021E0008C498D4808F062FC8C4B2000E55401F0CE
:1021F000ADF829002000012201F014FE0521200085
:1022000001F0AAFF029BE35C5A1E022A35D8012B7B
:1022100003D18349804808F049FC029BE35C022B10
:1022200003D180497C4808F041FC029BE35C032B0E
:1022300003D17D49784808F039FC7C4BE35C002BE6
:1022400014D0200001F05CFCBD23DB00E058083B0B
:10225000E15809F0CDFD0D1E08D1C821200000F085
:1022600053FB01222900200001F0DCFD704BE35CF0
:10227000002B02D0200001F083FC029BE35C042BC6
:102280005DD16C49644808F011FC684BE35C002B9D
:102290004ED0200001F034FC200000F004FB664D1D
:1022A000664F2B683A6801332B60934240D1BE26BB
:1022B000C821200000F028FBF600012200212000A8
:1022C00001F0B0FDA359581C0CF070F85C4A5D4B4E
:1022D0000BF01AFA09F098F800225B4B0BF014FA95
:1022E0000022594B0BF07CFC0022002309F0BAFDC0
:1022F000002873D0A05901300CF058F8504A514BC7
:102300000BF002FA09F080F800224F4B0BF0FCF9B9
:1023100000224D4B0BF064FC00224C4B0AF084FA77
:102320000CF00EF8BC23DB00E050002338602B607B
:102330003F4BE35C002B02D0200001F021FC029B0C
:10234000E35C052B15D14249334808F0AFFB374B0E
:10235000E35C002B06D0200001F0D2FBC821200056
:1023600000F0D2FA324BE35C002B02D0200001F0E7
:1023700007FC029BE35C062B00D095E0354926481C
:1023800008F094FB200000F02BFC334B274DE25C5F
:10239000274E0393002A61D1052300271A00190054
:1023A0002000009700F008FBA35DBB420FD0200087
:1023B00001F0E6FBC821200000F0A6FA3900200059
:1023C000012201F02FFD0321200000F02BFA635DB4
:1023D000002B69D0200001F093FB65E0A05901308B
:1023E0000BF0E4FF164A174B0BF08EF909F00CF8CE
:1023F0000022154B0BF088F90022134B0BF0F0FB79
:102400000022124B0BF0ECFB8AE7C046E605000009
:102410001C030020302C010028030020E4050000EC
:102420003A2C01003E2C0100422C0100FD05000069
:10243000FE050000462C0100040A002004000020D4
:102440009A9999999999C93F000014400000E03F7A
:10245000502C0100582C0100FC050000052300272A
:102460001A0019002000009700F086FA635DBB4255
:102470000FD0200001F044FBC821200000F044FAF6
:1024800039002000012201F0CDFC0321200000F0E2
:10249000C9F9A35D002B02D0200001F071FB039B62
:1024A000E35C002B00D177E7029BE35C072B1DD197
:1024B0008449854808F0FAFA0022844BE254844BA0
:1024C000E35C934202D0200001F01AFB814BE35CF5
:1024D000002B0BD0200001F053FBC821200000F09E
:1024E00013FA01220021200001F09CFC029BE35C16
:1024F000082B62D100267849734808F0D7FA734B4D
:10250000E654744BE25C0393B2424FD0200001F0DA
:1025100037FB724D724F2B683A6801332B60934240
:1025200000D0CBE0C821200000F0EEF93100BE263B
:1025300001222000F60001F075FCA359581C0BF095
:1025400035FF684A684B0BF0DFF808F05DFF0022AA
:10255000664B0BF0D9F80022644B0BF041FB0022D4
:10256000002309F07FFC002800D190E0A059013041
:102570000BF01CFF5B4A5C4B0BF0C6F808F044FF05
:1025800000225A4B0BF0C0F80022584B0BF028FBEE
:102590000022574B0AF048F90BF0D2FEBC23DB00B7
:1025A000E0500023039A38602B60A354484BE35C4F
:1025B000002B02D0200001F0A3FA029BE35C092B60
:1025C0001AD14C49404808F071FA414BE35C002BAA
:1025D0000BD0200001F094FAC821200000F094F9FB
:1025E00014221921200000F01FFA3A4BE35C002B63
:1025F00002D0200001F0C4FA029BE35C0A2B1DD13B
:102600003D49314808F052FA0022304BE254314B38
:10261000E35C93420BD0200001F0B2FAC821200005
:1026200000F072F914221921200000F0FDF9284B66
:10263000E35C002B02D0200001F062FA029BE35C15
:102640000B2B1FD12D49204808F030FA80222C4B4B
:102650005200E252200000F079FEC023294ADB003C
:10266000E358A25893420DD3BB22D200A258934202
:1026700008D200212000012201F0D4FB0521200016
:1026800001F06AFD200000F045FF05B0F0BDA05943
:1026900001300BF08BFE134A134B0BF035F808F0AA
:1026A000B3FE0022114B0BF02FF800220F4B0BF062
:1026B00097FA00220E4B0BF093FA6DE7200000F022
:1026C000F2F873E7622C010028030020FC050000EB
:1026D000FD050000FE050000682C0100040A002032
:1026E000040000209A9999999999C93F00001440D3
:1026F0000000E03F6D2C0100762C0100812C0100D0
:10270000E4050000D405000030B51A4D87B028005C
:10271000194908F09EF9194C28002200184908F0C0
:102720006BFE290003A808F0B7F9164D03A928008D
:1027300000F0A2FA03A808F044F922002800124988
:1027400008F05AFE114DD2230F220A21280005F06D
:10275000CDFF220028000E4908F04EFE13230193FE
:10276000013B009310220B49013B0B4802F014FD82
:1027700007B030BD080A0020872C010000000020AF
:10278000C3A900001C030020FD200000400A002017
:10279000FB830000F6070000140A002000207047A9
:1027A000037C020000201B0704D5D36A506A181A64
:1027B00000D501487047C046FFFFFF7F10B51030BD
:1027C00003F065FA10BD13B56B46DC1D0122210034
:1027D000103003F098F9012801D1207816BD0120AE
:1027E0004042FBE710B5103003F04CFB10BD10B5B4
:1027F000103003F005FC10BD07B56B46D9710733E7
:1028000001221900103003F0FBFB0EBD0023FA2259
:10281000436003828374024B9200826003607047BE
:10282000982D0100F8B50E4D0400475D0E00002004
:10283000022108F0BCF80200531E9A41BA21D2B21C
:1028400000236255C900974201D163580133635098
:102850009E4204DC43425841002360556350F8BD5A
:10286000FC050000F8B5C8270D000124FF00AC42AC
:1028700017DA0A263B00013BFDD1012008F070FC6D
:10288000002804D0013E002EF4D10134EFE73B00D4
:10289000013BFDD1012008F063FC0028F2D10120AA
:1028A00000E00020F8BDC82110B5082200208900F2
:1028B00006F094FC10BD0000F0B585B00291070051
:1028C00001210D201600039308F01EFC022008F0E1
:1028D0009BF900246A460A99127AC9B201916946A5
:1028E0000848097B3D182800F3B20091210001340B
:1028F00005F013FFA4B2280005F0E0FD082CE9D193
:1029000005B0F0BD5C06000013B50A00FA21040012
:102910000901002006F062FC00210A230A002000C1
:102920000091FFF7C9FF13BD73B5012106000D200B
:1029300008F0EAFB022008F067F900240C4BF35A78
:10294000A3420FD900220B4821003518130028009C
:102950000192009205F0E1FE0134280005F0AEFD81
:10296000A4B2EBE700210D2008F0CEFB73BDC046FA
:102970005E0600005C060000F7B51F0004001600AC
:102980000D000D20012108F0BFFB022008F03CF9EA
:102990000899084BFFB2E418C9B2F3B2EAB22000BA
:1029A00001910097092105F0B8FE200005F086FD91
:1029B000F7BDC0465C060000F7B51F000400160016
:1029C0000D000D20012108F09FFB022008F01CF9EA
:1029D0000899084BFFB2E418C9B2F3B2EAB220007A
:1029E00001910097082105F098FE200005F066FD92
:1029F000F7BDC0465C060000F8B50D0014001F00CE
:102A00000026BE420FD00121280008F07DFB2000E7
:102A100008F0FAF80021280008F076FB200008F002
:102A2000F3F80136EDE7F8BD70B50C00160000258F
:102A3000B54217DA01210E2008F066FB01210820BB
:102A400008F062FB200008F0DFF800210E2008F0FB
:102A50005BFB0021082008F057FB200008F0D4F8A9
:102A60000135E5E770BD0000F0B501262A4B85B0C1
:102A7000C51804000523632219212800009605F0DB
:102A8000A9F800236322009319210533280004F0DC
:102A900033FF224BE35C002B1ED0214BE75C002F61
:102AA0001CD001231424039352330293043B4B2282
:102AB0002100280000930194353B05F0B8F800236D
:102AC00003933F330293043B0093372221002800F5
:102AD0000194213B05F0ABF805B0F0BD3F23039610
:102AE00014260293043B37223100280000930196FC
:102AF000213B05F09CF853230293043B00934B22A7
:102B0000353B310028000397019605F090F8044BFF
:102B1000E35C002BE0D0C4E774060000E40500008D
:102B2000FC0500000E4B0F4A70B5C2500E4B04005E
:102B3000C5180E4B0A22C158280005F0DAFF2800FC
:102B40000B4905F07EFFBB23DB00E1580A22280079
:102B500005F0CFFF2800074905F073FF70BDC046A0
:102B6000840600002300410074060000D405000024
:102B70008F2C0100972C01004B6830B543608B68A7
:102B80008360CB681031C3600300103334C934C391
:102B900034C934C334C934C330BD000010B5040097
:102BA0000A2008F09FF92D2008F006FA09F000FE2F
:102BB000011C09F07FF90BF04FFC074A074B0AF0A4
:102BC000A3FD0BF091FCEA21890509F00FFBB82366
:102BD000DB00E05010BDC0466666666666660A4069
:102BE0000022014BC25470474106000010B504009A
:102BF000012008F0B5FA012802D10022014BE2546D
:102C000010BDC046FF05000010B5040000211020D3
:102C100008F07AFA0021112008F076FA002112203B
:102C200008F072FA0021132008F06EFA044BE35CFE
:102C3000002B03D000210D2008F066FA10BDC0461D
:102C40004106000010B5094B0400C35C002B08D0FE
:102C5000FFF7DAFF022007F0D7FF0549054802F029
:102C600014FC2000FFF7C2FF10BDC0464106000063
:102C700088130000DC0E0020F0B504002700584D3A
:102C800087B00591290007F0E4FE290000250C37E4
:102C9000380007F0DEFE534BE577E552E3189D70F0
:102CA0009023DB00E550504A504B5149E2502A2214
:102CB0000433E5524F4B0126E3189A744D4A1D74B4
:102CC0009D75A1501D774C4BE018FFF79FFD9B238E
:102CD000DB00E018FFF79AFD484BE018FFF796FD80
:102CE000A823DB00E018FFF791FD454BE018FFF744
:102CF0008DFDFE22434B9205E5540333E250424BD7
:102D0000424AE5540433E550414B4249E55004330F
:102D1000E5501033E650404BE250C2220433E550F8
:102D20003E4BD200E5500433E5503D4BA018E55032
:102D30000433E5503B4BE65007F08BFE80223A4BC4
:102D40005200E5500433E550384B0A21E550043376
:102D5000E550374BE5500433E550364BE55004332E
:102D6000E550354BE5500433E250344BE554043321
:102D7000E550334BE6506C3BE2587033E250314B38
:102D8000E258314BE2500433E552304B0F22E01849
:102D9000D22305F0ABFC2E4B0B22E0182D4B0C215F
:102DA0000293A8230193183B0093863B05F082FA17
:102DB000294B1022E01813230193013B274900936C
:102DC000013B02F0E9F9DA23DB00E01805F005FD2C
:102DD0003800059907F050FE200007B0F0BDC0464E
:102DE0009B2C01005C04000000093D008C040000E5
:102DF000A03A010084040000A40400000C050000B7
:102E000074050000BD050000C405000001000101BB
:102E1000CC050000A12C0100E4050000EC05000039
:102E2000F4050000FC0500001C060000240600005C
:102E30002C060000340600003C060000440600009A
:102E40004C060000DC050000540600005C06000093
:102E50007406000080841E00A4060000F60700002F
:102E60007FB5002401AB19705C70184B0500C618C3
:102E700030002300019904F074FA8D23DB00EE503A
:102E8000134B2000EB5CA34213D101223100280038
:102E900003F02CFE0200A0420DD00E4BEC182000D7
:102EA00003F042F82900200002F012FE00280AD1A7
:102EB000002004B070BD03003100280003F016FEAE
:102EC0000028EAD1F4E7044B1D60F2E76C0400002F
:102ED0007E04000044040000E80E00207FB502AD2F
:102EE00006002849280002F0C5FC8722264B120460
:102EF000F418264B0021F250012301933B337B222F
:102F0000200000938C3304F019FC0A226978200019
:102F100005F009FE1E4E2000310005F092FD0A2248
:102F2000A978200005F0FFFD3100200005F089FDA3
:102F3000FA232978DB00C9180A22200005F0D9FD00
:102F40002000144905F07DFDEB78092B03D83021D2
:102F5000200005F07AFD0A22E978200005F0E3FD63
:102F600020000D4905F06DFD2B79092B03D8302188
:102F7000200005F06AFD29790A22200005F0D3FD22
:102F80007FBDC046580A0020740600008406000079
:102F9000A62C0100A82C0100C52C01000C4B37B554
:102FA000C51801230400019315332800009314224F
:102FB0000621B23304F0C2FB064B074A280007493A
:102FC000E25005F03EFD280005F0A8F937BDC046E7
:102FD000740600008406000006002400AF2C0100E7
:102FE000104B37B5C5180123040001930E33162288
:102FF000552100932800373304F0A0FB0A4B0B4AFD
:10300000E2500B4BE1580B4B994207DC0A22280097
:1030100005F06FFD2800084905F013FD280005F0B4
:103020007DF937BD74060000840600005A002400B4
:103030001C06000077E60000BC2C0100104B37B5E1
:10304000C5180123040001930E3316225521009365
:103050002800373304F072FB0A4B0B4AE250643B02
:10306000E1580A4B994207DC0A22280005F041FD8D
:103070002800074905F0E5FC280005F04FF937BDA9
:1030800074060000840600005A0024000F27000088
:10309000BC2C0100104B37B5C51801230400019367
:1030A0000E331622552100932800373304F046FBD7
:1030B0000A4B0B4AE2500B4BE1580B4B994207DC91
:1030C0000A22280005F015FD2800084905F0B9FC82
:1030D000280005F023F937BD7406000084060000BF
:1030E0005A002400240600000F270000BC2C010019
:1030F000B923F0B5DB00874AC55885B00290841823
:10310000002D1BD1012610230222752120000093DF
:103110000196183304F012FB1223320074212000B0
:1031200000930195183304F03DFB08230093023B04
:103130001A009D212000019504F034FBB823029A67
:10314000DB00D0580BF088F9B923029ADB00D35882
:10315000714A1D0003936B425D41704B06000F00E6
:10316000EDB208F075FE002800D16EE0002D00D110
:103170006BE000260C25072304227821200001960D
:10318000009504F0DBFA0723042281212000019638
:10319000009504F0D3FA072304228A212000019627
:1031A000009504F0CBFA07230422932101960095A1
:1031B000200004F0C3FA0221200005F023F8584F44
:1031C0002000390005F025F801250C2300225621A6
:1031D000200000930195103304F0B0FA029A514B8D
:1031E00051495350B823DB00D0580BF035F9009506
:1031F00002000B00200005F04FFD4C4E2000310076
:1032000005F007F82900200004F0FCFF484B029A63
:10321000D35C002B17D02900200004F0F3FF390005
:10322000200004F0F6FF434B029A3F492000535020
:10323000414905F006FC3100200004F0EAFF2900B6
:10324000200004F0DFFF05B0F0BD300039003B4A3C
:103250003B4B08F0FDFD002823D0002D21D0012399
:1032600000260C2501930C330322772120000093C4
:103270000D3304F063FA072304227821200001961D
:10328000009504F05BFA07230422812120000196B7
:10329000009504F053FA072304228A210196009531
:1032A00086E7284B30003900274A08F0D1FD01237A
:1032B00000281AD0002D18D000260C2501930C33BD
:1032C00003227721200000930D3304F037FA0723FF
:1032D0000422782120000196009504F02FFA07239C
:1032E000042281210196009562E7039A002A00D00A
:1032F00061E701930D23772100930332DB1820004F
:1033000004F01CFA039B042201930C237821009300
:10331000053B4DE774060000CDCCCCCCCCCC0E40A8
:103320004439010057000A0084060000AC30010057
:103330004406000059001200BF2C01009A99999987
:1033400099990D4066660C40666666665E4BF7B5F9
:10335000C51800230400019346332D2205212800BF
:103360000093583304F01EFA584F594E594B310010
:10337000E351280005F065FB574B0A22E15828006D
:1033800005F0BBFB554B3100E351280005F059FB1C
:103390000126162314220621280001960093B23339
:1033A00004F0CCF94423019626002E222321280084
:1033B0000093343304F0C2F9494B0C36E351002139
:1033C000300007F0A2FB0100280005F03EFB0121C0
:1033D000300007F09AFB0100280005F036FB0221BF
:1033E000300007F092FB0100280005F02EFB0321BE
:1033F000300007F08AFB0100280005F026FB0421BD
:10340000300007F082FB0100280005F01EFB0521BB
:10341000300007F07AFB0100280005F016FB0621BA
:10342000300007F072FB0100280005F00EFB0721B9
:10343000300007F06AFB0100280005F006FB294B6D
:103440003E00E35C002B1CD0274B2849E3512800A9
:1034500005F0F7FA264B0A22E351BD23DB00E158C1
:10346000280005F046FB234B2349E351280005F0D3
:10347000E8FA224B0A22E351214B2800E15805F0DB
:1034800038FB204B2049A351280005F0DAFA1F4BE6
:103490000A22A351BE23DB00E158280005F029FBD6
:1034A0001B4BE35C002B02D02000FFF73BFB20000E
:1034B000FFF71EFE2000FFF711FD2000FFF7D4FAF2
:1034C000280004F02BFFF7BD7406000084060000FE
:1034D000C22C010005000F00DC05000006000F00F3
:1034E00005002400E405000023004100C72C010072
:1034F0005F00410023005500CE2C01005F00550005
:10350000EC05000023006900D72C01005F00690072
:10351000E505000013B50400012007F021FE012895
:1035200002D10022114BE2541149684602F0A2F97F
:103530006B46DA78C023DB00E2506B461A790D4BFC
:103540006846E2506B465A79C123DB00E25002F034
:103550000FFAC723DB00E0502000FFF71FFB20001D
:10356000FFF7F4FE2000FFF76DFB13BDFF05000021
:10357000580A002004060000F0B5F64B0700C35CB3
:103580009DB0002B03D000210D2007F0BDFD3C00B5
:10359000183404212000F04AFFF762FCB723EF4AF9
:1035A000DB00FA500FA8FFF731F9B522D200210055
:1035B000BA18EB4B13A802F015FDEA4B0FA9FC1843
:1035C0002000FFF7D9FAE84B0126FD181623320038
:1035D00000934421073B2800019604F0AFF8E34B29
:1035E000FB5C0393002B63D101930E33022246212F
:1035F00028000093033B04F0D5F8039B06220193B7
:103600000A23452128000093083B04F0CBF8082347
:1036100007224621280000930196043B04F08EF80F
:10362000039B0422019303234821280000933300C5
:1036300004F0B8F80323039A4A212800019200936A
:103640000422330004F0AEF80323039A4C2128002F
:10365000019200930422330004F0A4F80323039A98
:103660004E212800019200930422330004F09AF8BE
:10367000102300930A3B1A0048212800019604F009
:103680005DF8BB4BBB4A0221FA50280004F0BAFD9A
:103690002800B94904F0BDFDB849280005F0D1F96A
:1036A0002800B74904F0B5FD3100280004F0AAFD58
:1036B00004AD2800B34902F0DDF80A226978200041
:1036C00005F031FAB04E2000310005F0BAF90A22B7
:1036D000A978200005F027FA3100200005F0B1F9A3
:1036E000FA232978DB00C9180A22200005F001FA24
:1036F000A649200005F0A5F90A22E978200005F086
:1037000012FAA34E2000310005F09BF92B79092B0A
:1037100003D83021200005F098F90A2229792000E9
:1037200005F001FA3100200005F08BF96B79092BC7
:1037300003D83021200005F088F969790A22200099
:1037400005F0F1F9934D2000290005F07AF9924B2C
:10375000FB5C002B21D0DA23DB000FAAF81806A9A6
:1037600005F086F814980AF077FE022602000B0096
:103770002000009605F090FA2900200005F061F97C
:103780000B980AF069FE009602000B00200005F07D
:1037900083FA2900200005F054F98049200005F043
:1037A00050F92900200005F04CF9390020000C31B7
:1037B00005F040F92900200005F043F9784B0A2272
:1037C000F958200005F095F92900200005F039F995
:1037D0003800FFF7E3F9B823DB00F8580AF03CFEA5
:1037E0000B00022102000091200005F055FA29008B
:1037F000200005F026F9C223DB00FE1830006949DD
:1038000007F065F9002800D0DEE00020664907F0E7
:103810007FFE0B00022102000091200005F03CFA1F
:103820002900200005F00DF9BC23DB00F9580A221D
:10383000200005F05EF92900200005F002F93100B2
:10384000200005F0F7F82900200005F0FAF8574BA2
:10385000FB5C002B00D1C0E02000554905F0F1F8D9
:103860002900200005F0EDF8BD23DB00F9580A22FD
:10387000200005F03EF92900200005F0E2F84D4B4C
:103880000A22F958200005F034F92900200005F03B
:10389000D8F8BE23DB00F9580A22200005F029F9E8
:1038A0002900200005F0CDF8434B0A22F9582000EA
:1038B00005F01FF92900200005F0C3F83000394950
:1038C00007F005F9002800D091E00020364907F004
:1038D0001FFE0B00022102000091200005F0DCF920
:1038E0002900200005F0ADF830002E4907F0EFF870
:1038F000002800D18CE0BE23DB00FB58012B00DC4C
:1039000086E02E4B0A222000F95805F0F2F8290033
:10391000200005F096F83000224907F0D8F800287A
:1039200000D181E00020204907F0F2FD0B000221C8
:1039300002000091200005F0B6F919220821380094
:103940000223FFF759F8094BFC18200002F09AFAFD
:10395000200035E04106000000093D002E4353568B
:1039600002420000A404000074060000B404000039
:10397000840600004A00100044390100E02C0100D8
:10398000AC300100580A0020A62C0100AD2C01002B
:10399000C52C0100E22C010044060000E42C0100CB
:1039A000DC050000122D01000000F0BFFC05000046
:1039B000EB2C0100EC050000F40500003C060000C3
:1039C00002F0B2FA1DB0F0BDB923DB00F9580A22AB
:1039D0002000013105F08DF822E72000374905F07D
:1039E00030F8374BFB5C002B00D139E734E7354B1F
:1039F000F858354B984206DC0AF0D8FC0022334BCD
:103A000009F07CFA65E72000314905F01AF867E70C
:103A10000020304907F07CFD0B00022102000091DC
:103A2000200005F039F972E730002B4907F04FF814
:103A3000002838D13000294907F049F8002832D150
:103A40003000274907F043F800282CD130002549E1
:103A500007F03DF8002826D13000234907F037F859
:103A6000002820D13000154907F031F8002818D17E
:103A700030001E4907F02BF8002812D130001C49F5
:103A800007F025F800280CD130001A4907F01FF87C
:103A9000002806D13000184907F019F8002800D195
:103AA00040E7164B01E0C423DB00F8580AF07EFC27
:103AB0000022064B09F022FA38E7C046F02C01003C
:103AC000FC0500001C0600005FEA000000408F407B
:103AD000F62C01000000F0BFEB2C0100002D0100CE
:103AE0000A2D0100192D0100272D01003A2D01009A
:103AF000452D0100552D0100642D01002406000014
:103B0000F8B51A4B0400C75C002F2ED1C52607F06C
:103B100045F8BD22C425F600A051D200A358ED00FF
:103B20000133A3506751062007F01AFB0028FAD092
:103B300007F034F8A359C01A60512000FFF706FCC3
:103B40002000FFF77BFAC223DB00E018084B625924
:103B5000E35808499A4200DB074906F0A7FF200016
:103B6000FFF70AFD0022054BE254F8BDFF050000F7
:103B7000CC050000002D0100EB2C0100FD0500002C
:103B8000F8B5194B0400C75C002F2BD107F006F8DD
:103B9000164E174AA051A358164D0133A350675132
:103BA000052007F0DDFA0028FAD006F0F7FFA35948
:103BB000C01A60512000FFF7C9FB2000FFF76AFA26
:103BC000C223DB00E0180C4B6259E3580B499A42C0
:103BD00000DB0B4906F06AFF2000FFF7CDFC002256
:103BE000084BE254F8BDC046FF0500002C0600005B
:103BF000EC05000024060000CC0500003A2D010071
:103C0000F02C0100FE050000F7B5040001910D2025
:103C1000012107F079FAC5260023BD270093F6009D
:103C2000FF00019BDA179B185340009A934200DC77
:103C300075E0062007F094FA051E20D106F0AEFFCD
:103C4000A051E3590133E351C423DB00E5500620C2
:103C500007F086FA0028FAD006F0A0FFA359C01A90
:103C6000C423DB00E0502000FFF770FBC223DB0021
:103C70002D49E01806F01AFF2000FFF77DFC052013
:103C800007F06EFA051E21D106F088FF274B284A5F
:103C9000E050A3580133A350264BE550052007F010
:103CA0005FFA0028FAD006F079FF204BE358C01ADB
:103CB000204BE0502000FFF749FBC223DB001E49E8
:103CC000E01806F0F3FE2000FFF756FC1B4B012125
:103CD000E018019B002B19DD01F048FB1425C823D7
:103CE000DB00013BFDD1012007F03AFA00280FD19B
:103CF000C823DB00013BFDD1013007F031FA002879
:103D000006D12000FEF780FF0120FEBD4942E3E717
:103D1000013D002DE3D1009B0133009381E720009A
:103D2000FEF772FF0020F0E7272D01002C060000AF
:103D3000EC05000024060000642D0100A40600002C
:103D400010B56421FFF760FF10BD000073B50400DB
:103D5000FFF724F9FA212000FEF784FD1E25002834
:103D600011D13C26764278212000FFF74DFF002834
:103D700009D131002000FFF747FF002803D1013DA2
:103D8000002DF0D10AE001250F22054B0521E01896
:103D900001957823009203F0D1FC280076BDC0463F
:103DA0007406000073B50400FFF7F8F8FA2120004C
:103DB000FEF758FD0025A8420BD001250F22184B15
:103DC0000521E01801957823009203F0B7FC280044
:103DD00076BD1421002006F0EAFD1430A84208DB6D
:103DE000A90020004942FFF70FFF0028E5D1013567
:103DF000EFE7FA212000FEF735FD051EDDD10600B4
:103E00001421002006F0D3FD1430B042DFDB200087
:103E1000B100FFF7F9FE0028CFD10136F0E7C04628
:103E200074060000F0B504001600002589B0049166
:103E3000002D00D063E12000B349FFF7E5FE050047
:103E4000002E02D02000FEF76FFD002D00D113E1FF
:103E50002000C627FEF7D8FE06F0A0FE0023FF00D4
:103E6000E051AA4863222518192128000093053340
:103E700003F0B0FE280004F051FA06F08FFEE3597B
:103E8000A34DC01A05976051083F012007F068F95B
:103E900000285ED19F4B62599A425ADC06F07EFEA2
:103EA000059BE358C01A605120000393FFF798F870
:103EB000062007F055F90390002821D106F06EFE88
:103EC000BD22C426E051D200A358F6000133A3500E
:103ED000039BA351062007F043F90028FAD006F00F
:103EE0005DFEE359C01AA0512000FFF72FFAC2234C
:103EF000DB008949E01806F0D9FD2000FFF73CFB04
:103F0000052007F02DF903900028BED106F046FEEB
:103F1000824B834AE050A358824E0133A350039B47
:103F2000A351052007F01CF90028FAD006F036FE50
:103F30007A4BE358C01AA0512000FFF707FAC223BA
:103F4000DB007949E01806F0B1FD2000FFF714FB13
:103F50009BE7C525BD27ED00FF00012007F000F914
:103F6000002851D12000FFF7D5FA062007F0F8F815
:103F7000039000281FD106F011FEC4266051E359BA
:103F8000F6000133E351039BA351062007F0E8F844
:103F90000028FAD006F002FE6359C01AA051200092
:103FA000FFF7D4F9C223DB005B49E01806F07EFD81
:103FB0002000FFF7E1FA052007F0D2F8039000286F
:103FC000CBD106F0EBFD554B554AE050A358554E6A
:103FD0000133A350039BA351052007F0C1F800282B
:103FE000FAD006F0DBFD4D4BE358C01AA05120007B
:103FF000FFF7ACF9C223DB004B49E01806F056FD91
:104000002000FFF7B9FAA8E72000FEF7FDFDBE2269
:10401000D200A3580133A350049B002B04DD0122DE
:1040200019002000FEF700FD0025404B4049E554F3
:10403000404B414EE5541233E01806F037FD3F493E
:1040400006A801F017FC06A801F092FCA359C01ABB
:104050003B4BE05006A801F08BFCA0512000FFF77D
:104060008BFAB9230122DB00E550364B2000E254E5
:10407000FFF76CF909B0F0BD324BE35C002B0BD1BC
:10408000B92720003049FEF7EDFBFF00E3595A1C29
:10409000E251002806D001252A4BE35C002B00D119
:1040A000C6E6E7E7294B5343294A9B18294A93421E
:1040B00013D9E7590A21380007F09AFE002912D0D7
:1040C000B923DB001421E05807F092FE0029E3D168
:1040D0002000FFF767FE0500DEE72000FFF730FE57
:1040E0000028E6D0D7E71421380007F081FE002928
:1040F000EED02000FFF72AFE0028E1D0CBE7002E0B
:1041000000D1A5E635009DE6D4FEFFFF7406000051
:104110001C0600005FEA00000A2D01002C060000CA
:10412000EC05000024060000452D0100FD050000FF
:10413000122D0100FE05000034060000580A002080
:104140003C060000FF050000DC050000CDCCCCCC17
:104150009999991932333333F0B587B0040003913C
:1041600006F01CFDFA23039A9B005A430290059225
:10417000049306F013FD514BE518029BC01A059BF2
:10418000984200D385E0012006F03EFD06F006FDD2
:10419000060006F003FD049B861B9E422BD20123E2
:1041A000019318331422052128000093AF3303F044
:1041B000C5FA434A434B4449E250280004F041FC0D
:1041C00006F0ECFC06F0EAFC029B0499C01A07F02A
:1041D0009FFC039B181A0AF019F900223B4B08F0C8
:1041E00023FB0AF0ADF80A220100280004F062FC6B
:1041F000280004F093F8062006F0B2FF051E22D135
:10420000C52706F0CBFCBD22C426FF00E051D2003A
:10421000A358F6000133A350A551062006F0A0FFD5
:104220000028FAD006F0BAFCE359C01AA0512000C9
:10423000FFF78CF8C223DB002549E01806F036FCB6
:104240002000FFF799F9052006F08AFF051E90D19E
:1042500006F0A4FC1F4F204AE051A3581F4E013323
:10426000A350A551052006F07BFF0028FAD006F0E8
:1042700095FCE359C01AA0512000FFF767F8C2234C
:10428000DB001749E01806F011FC2000FFF774F975
:104290006FE70123019318331422052128000093AE
:1042A0004B3303F04BFA2000FFF750F800230D4A80
:1042B000A3540D4AA35407B0F0BDC04674060000D5
:1042C0000600240084060000782D01000000E03F75
:1042D000822D01002C060000EC05000024060000E1
:1042E000552D0100FD050000FE050000F8B51E007B
:1042F000079B1500D318C26804000F00934201D930
:104300000020F8BD0178406800F0ECF9079B002B15
:104310000FD160682A00036839005B6898478542BE
:10432000EED13100606800F056FA43425841C0B205
:10433000E7E7069B002BECD06068079A03680699B4
:104340005B689847079B9842DAD1E2E7F8B5050029
:104350000F0016000178D2B2406800F0DBF90024AB
:1043600086420AD1A64207D9686803685B69984704
:1043700038550134A4B2F5E701242000F8BDF7B5A3
:1043800007001600002400910193B44213D2FB6889
:10439000351B9D4200D91D00019B721BA24200D912
:1043A0000023009A380011192A00FFF7CFFF0028D8
:1043B00002D06419E9E70120FEBD73B504000020B6
:1043C0001D0006AB40CB1B78019000902000FFF74A
:1043D0008DFF002805D00123320029002000FFF7BF
:1043E000CEFF76BDF7B5002708ACE7570AAC2478B6
:1043F0001825A4460BAC24788173019400246943EA
:1044000004604460204C214D0E57C273F6017619AA
:1044100006620126350043740774611849688D40AF
:104420000563791C0AD018257D432957174FC90108
:10443000C9196519416169688E404662591C0BD0E3
:1044400018214B43E156124DC9014919E318C161C6
:10445000596801238B40836218235A43A3560B49A2
:10446000DB015B1883610123A41862689340C36277
:10447000099B0022836063460373019B437303001F
:1044800034331A70FEBDC046A04201001044004102
:1044900020440041F0B5040000680E00150089B00A
:1044A000002803D000F015FB09B0F0BD0122237BEA
:1044B0000292002B01D080230293029A3378A168E4
:1044C00013405A4253414D48DBB2059307F020FB9D
:1044D000C3B23020032158430393019307F018FB24
:1044E0003100844673190793079B8B42DCD000226E
:1044F0000B780693029B0398002805D001980028AA
:1045000002D060460138FDD1657BA069023D012DD6
:1045100045D810256557013512D0069E1E4035003E
:104520006F1EBD410496059EB54209D0049E676A80
:104530006569002E2ED02E683E432E60012505951C
:104540000568E66A35430560039D002D05D0019D91
:10455000002D02D06546013DFDD11125655701357D
:1045600006D0E569A66A2D682E4201D01A43D2B260
:104570000568E66AB543056011202056013000D079
:104580000A70207B002837D15B00DBB2002BB2D150
:104590000131A9E72E68BE432E60049DCFE7056870
:1045A000E66A35430560039D002D05D0019D002D71
:1045B00002D06546013DFDD110256557013507D074
:1045C000069E6569676A334212D02E6837432F60B2
:1045D0000568E66AB5430560112020560130CBD04E
:1045E000E069A56A00680542C6D01A43D2B2C3E7A3
:1045F0002E68BE432E60EBE75B10C6E720A10700E4
:1046000007B56B460122D971D91DFFF743FF6B46F1
:10461000D8790EBD0300006810B5002803D05B6890
:1046200006CB00F021FA10BD006810B5002801D0BB
:1046300000F036FA10BDF8B505000E001700002492
:10464000BC4208D02B682800315D1B6898470028C1
:1046500001D00134F4E72000F8BD70470300FC33BB
:10466000196ADA69914203D01B6AC018007E70474C
:1046700001204042FBE70300FC33D8691B6AC01AE3
:1046800001D50130FF307047F7B50193FA23802739
:10469000002504009B008360114B7F0008330E004F
:1046A00045602900009203603A0018300AF056F97C
:1046B00023002000FC332130DD613A001D62290017
:1046C000FF300AF04BF987239B00E3185D609D6083
:1046D000009B20002375019B2661A5756375FEBDB7
:1046E000543901008A2300229B00C1540C3BC3189B
:1046F0005A609A600123837570470200FC32536848
:1047000010B501339468DBB29C4202D05468015565
:10471000536010BDF7B50193002304001500180085
:104720009A422FD02200FC32D36120691362012209
:1047300004F0C6FB002826D02700206904F042FCC4
:10474000183701003800FFF7D8FF01262069B5426D
:104750000ED004F095FB0221206904F09BFB206938
:1047600004F030FC01003800FFF7C7FF0136EDE729
:1047700004F07DFB019B002B03D00321206904F092
:1047800089FBE8B2FEBD0500FBE710B50300827DA2
:10479000002082420ED0872292009C186268A46892
:1047A0000132D2B2A24205D02133FF331800FFF705
:1047B000A4FF012010BD0300FC3399685A689142A0
:1047C00006D09A68805C9A680132D2B29A607047CB
:1047D00001204042FBE700228A2370B59B008275CE
:1047E00005000E00C15C006904F06AFB002806D1D8
:1047F0000321286904F04EFB0224200070BD8723AA
:1048000028009B00EA18536894682130FF301C1B75
:1048100001D50134FF34002C0ED02C69FFF7CBFFFB
:10482000C1B2200004F08AFB0028E8D103212869E6
:1048300004F030FB0324E0E7002EDED003212869DA
:1048400004F028FBD9E710B51830FFF7B4FF10BD0E
:1048500070B50400006904F093FB002814D02069AF
:1048600004F09CFB002810D0206904F009FB032110
:10487000206904F00FFB8C239B00E558002D39D1F3
:104880000023FC34E361236270BD206904F090FBD7
:10489000002809D0206904F086FB002804D0206994
:1048A00004F08BFB0028DFD0206904F081FB002896
:1048B00026D1206904F06DFB0028E5D0206904F0C2
:1048C0007CFB002837D087239B00E218536892684E
:1048D0009B1A01D50133FF33FF21002B05D02000A7
:1048E0002130FF30FFF767FFC1B2206904F039FBC8
:1048F000A075C9E7236820001B699847A847BFE750
:10490000206904F0BDFA2069032104F0C3FA20698C
:1049100004F053FB0028B7D0872300229B00E31844
:104920005A609A600123A3758B239B00E35893423E
:10493000AAD09847A8E72200FC32D369126A013353
:10494000DBB22069934206D104F091FA0321206979
:1049500004F0A0FA98E704F035FB010020001830BD
:10496000FFF7CBFE206904F08BFAEFE710B50248A1
:10497000FFF76EFF10BDC0465C0A002010B515237E
:10498000142202490248FFF77FFE10BDF4140020F4
:104990005C0A002010B500F057FB0022024B80009B
:1049A000C35849331A7010BDE40C0020F0B5040060
:1049B00085B01E000AAB1B78103001930BAB1B783F
:1049C000170002930CAB1B780D00039300F0BEF9A7
:1049D0002000243000F0BAF9220000234832A363FB
:1049E000E363236463641370537063729D4205D163
:1049F0002721084B084A094809F028FE2000019B9E
:104A000025606371029B2771E371039BA67123727A
:104A100005B0F0BD7839010089390100DD390100A8
:104A200030B5040085B002AD00680291039204F035
:104A3000E7F96B79227AE17920680093002304F08A
:104A40007BFB2979029A206804F0FEF9206804F0C3
:104A5000CDF905B030BD10B50400006804F0B9F917
:104A60000023637210BD000007B5837A00910192A4
:104A7000002B07D09A070AD5EFF310835A4253410F
:104A8000C37272B60099019AFFF7CAFF07BDDB0730
:104A9000F8D5C368014A9BB29360F3E70018004061
:104AA000837A002B05D09A0704D5C37A002B00D057
:104AB00062B67047DB07FCD5C368024A9BB2D3607D
:104AC000F7E7C0460018004010B5006804F0A1F9EF
:104AD00010BD70B505000C008E18B44206D02178C8
:104AE0002800FFF7F1FF20700134F6E770BD0000E9
:104AF00010B5006804F074FA03000020834203DB61
:104B00000C304343014A985810BDC046443A010056
:104B100010B5006804F064FA002805DB0C23434359
:104B20000348C018406810BD01204042FBE7C04662
:104B3000443A010010B5006804F052FA002805DB81
:104B40000C2343430348C018806810BD0120404235
:104B5000FBE7C046443A0100F0B5060010360500F8
:104B600089B0300000F048F900286CD12F002437BC
:104B7000380000F041F9041E62D12800FFF7DAFF87
:104B8000C1B2300000F018FA0221300000F038FA0B
:104B900001222E49300000F00BFA300000F054FAE8
:104BA0002B4B8000C5502800FFF7B2FFC1B2380080
:104BB00000F002FA0221380000F022FA380000F07A
:104BC00043FA234B8000C5502800FFF791FF0123D3
:104BD0000100220002933000230004940394019406
:104BE000009400F033FAA8632800FFF781FF012347
:104BF00002002100019338002300049403940294DE
:104C0000009400F023FAE863402009F071FE2A00C6
:104C100048322864079200280BD00123137068647F
:104C20006B6C10221819E96B103409F08EFE402CC1
:104C3000F6D1079B1B78002B05D1380000F076F9E0
:104C4000300000F073F909B0F0BDC046954900008E
:104C5000E40C002070B5437A0400002B03D101223C
:104C600043814272C360230048331B78002B02D17A
:104C70002000FFF771FF18263300082120790D4D21
:104C80004343EB18595606F083FA33000821A07904
:104C90004343EB18595606F07BFA082160794643E6
:104CA000AD19695606F074FA034B200006CBFFF7E6
:104CB000B7FE70BDA0420100DC0C00201FB5094A00
:104CC000094B0A4913600023938002930133019337
:104CD00016330093162201330548FFF767FE05B02F
:104CE00000BDC046DC0C002000093D00F814002087
:104CF000900C0020084B1968002909D1EFF31080AF
:104D0000064A002803D172B6BFF35F8F01311170DC
:104D10001A6801321A607047A80E0020A40E002005
:104D2000084B1A68002A0CD01A68013A1A601B68EE
:104D3000002B06D1044B1B78002B02D0BFF35F8FF2
:104D400062B67047A80E0020A40E0020FF2310B505
:104D50000370C023002104009B00417041808380C8
:104D60000C22083009F0FAFD200010BD01230A00D2
:104D700010B51A40194208D00C4A1370033343701F
:104D80008368002B00D0984710BD0223194204D03D
:104D900006490B70C3684270F3E704231942F3D04D
:104DA000024A1370033343700369EAE74E48004137
:104DB00010B5FFF79FFF0C4B1B8C1B071B0F0B2B1A
:104DC0000FD80A4A9900885800280AD00F240849A9
:104DD0000A78A24313430B70064B1978C9B2FFF748
:104DE000C5FFFFF79DFF10BD00480041AC0E00203D
:104DF0003F4800414E480041F8B5002302780500C5
:104E000018000B2A77D93C4E2B702B780B2B07D828
:104E100001229A403168114204D001332B70F4E72B
:104E2000012068E0FFF766FF3768344C002F2BD174
:104E30002022334B334859690A435A611022D969F9
:104E40000A43DA61022223883900934323802388AE
:104E5000013A134323802C4B6063BF32A36309F0F4
:104E60007DFDC0223900284809F078FD4022C1208C
:104E7000264B80002380264B26491A601A58114081
:104E8000C02212040A431A5001231A0029783068FC
:104E90008A40024332600F261F4A880085501F480F
:104EA00031400278B2430A43027002201C4A117852
:104EB00081431170117819431170297822698B4050
:104EC0009A43226160223F21636C934363642A7991
:104ED000636C0A40134912020B40032113436364BD
:104EE0006A79636C0A40104992050B40134363646E
:104EF000FFF716FF0020F8BDA00E0020004800417B
:104F000000040040E00D0020200D0020020F0000F2
:104F100000E100E0FFFF00FFAC0E00203F48004131
:104F200040480041FFC0FFFFFFFF3FFF70B5050095
:104F3000FFF7E0FE6B785CB2062B2BD02B780224B7
:104F40000B2B27D801229A40144B1968114221D00B
:104F50001968914319601B68002B14D14022104B33
:104F6000DA67BFF34F8FBFF36F8F21000D4A0E3109
:104F70001388A34313800C4BDA698A43DA615A69B8
:104F800010318A435A6100242B78084A9B009C50B8
:104F9000FF232B70FFF7C4FE200070BDA00E002081
:104FA00004E100E00048004100040040AC0E002095
:104FB0000232920011507047037870B505000C0062
:104FC00001710B2B14D8FFF795FE29780F2509489E
:104FD00029400378084AAB430B4303703F23516CCD
:104FE0001C40064B240219400C435464FFF798FE02
:104FF00070BDC0463F48004100480041FFC0FFFF70
:10500000037870B505000C0041710B2B14D8FFF725
:1050100071FE29780F25094829400378084AAB43D7
:105020000B4303700323516C1C40064BA40519402D
:105030000C435464FFF774FE70BDC0463F48004106
:1050400000480041FFFF3FFF00787047F0B587B090
:1050500001930CAB1E780DAB1B78050002930EABD1
:105060001B780078039310AB1F78049105920B28EE
:1050700002D9002007B0F0BD6B78062BF9D0AB78D1
:10508000002B00D179E01021080009F027FC00284E
:10509000EFD02B783B4A1B019B181A00D1680029DE
:1050A00004D0D1688B4201D0D268F7E7D0600122EA
:1050B0000223AA70964203D0DB18022E00D0130000
:1050C00006240188114301800188A14301800188E1
:1050D0001234A1430180153C018826402A4C360237
:1050E00021400E430680029E0188284C1640214034
:1050F000B6020E430680039E0188254C16402140CF
:10510000F6020E4306800188224E3A4031401203D7
:105110000A43072102800F9A114002884903D204F2
:10512000D20C0A4302806A4692884280049A426006
:10513000029A002A08D0019A41685A43002F01D0F0
:105140000F9CA2408A184260059A8260039A002A46
:1051500009D0019A84685A431300002F01D10F9A95
:105160009340E31883600023EA789A4203D02B78B7
:10517000044A1B019B18C3607CE7024B0001C01866
:1051800095E7C046E00D0020FFFCFFFFFFFBFFFF9F
:10519000FFF7FFFFFFEFFFFF70B504000025A361DD
:1051A000049B1000E361059B626123622561256019
:1051B000A562A160012105F077FFA069012105F03A
:1051C00073FFE069012105F06FFF206A012105F0FE
:1051D0006BFF042320006562E36070BDC36870B597
:1051E00004000D00022B0ED103290CD8080006F094
:1051F00085FC0214161C0021606905F085FF012161
:10520000A06905F081FFE368042B20D1032D1ED88F
:10521000280006F073FC0C292F3D0121ECE7012149
:10522000606905F071FF0021EAE70021F8E701213C
:10523000606905F069FF0021A06905F065FF0121A3
:10524000E06905F061FF0021206A05F05DFFE36879
:10525000052B61D1092D5FD8280006F04FFC1F29CE
:1052600037495E6066707E840021606905F04CFFFE
:105270000121E1E70021606905F046FF0121A069F5
:1052800005F042FF0021E06905F03EFF0121DBE768
:105290000121606905F038FF0021F0E70021606915
:1052A00005F032FF0121A06905F02EFF012108E081
:1052B0000021606905F028FF0121A06905F024FFA5
:1052C0000021E06905F020FF00210CE00021606969
:1052D00005F01AFF0121A06905F016FF0021E06921
:1052E00005F012FF0121206A05F00EFF012110E0F8
:1052F0000021606905F008FF0121A06905F004FFA5
:105300000021E06905F000FF0121206A05F0FCFEA4
:105310000021606A05F0F8FE70BD0121E9E7012176
:10532000606905F0F1FE0021E7E70121606905F001
:10533000EBFE0021A06905F0E7FE0121E1E7012174
:10534000606905F0E1FE0021A06905F0DDFE0121A4
:10535000E06905F0D9FE0021D7E70121606905F079
:10536000D3FE00219FE70021F8E70000CB1770B5BE
:10537000CD1804005D40002924DD012323600426AC
:105380007642002D30D005F00FFCA36A6268C31A84
:105390009342F6D322682369A062012A16D1A2683B
:1053A00001332361934201D100232361E368206923
:1053B000013D052B11D10A2106F01AFD2000FFF74F
:1053C0000DFFDEE700230029D8D1D8E7002B01D15B
:1053D000A36823612369013BE7E704490140EDD558
:1053E000013931430131E9E770BDC0460300008057
:1053F00070B5124804F09AF8114C002819D020001A
:1054000004F0C6FA002002220E4B0F4D196891439A
:10541000196004212E6931432961BFF34F8F30BFDA
:1054200019680A431A60002802D0200004F054FBD7
:1054300070BD200004F08CFB0120E4E71C15002067
:105440003815002010E000E000ED00E070B50578B0
:1054500004000E00002D06D1290000F0A3F9290058
:10546000200000F063F8200000F000F9FA210500A8
:105470008900300006F04CFB4119200000F01EF9B5
:105480000621200000F040F870BD10B50400FFF7C1
:10549000DDFF2000FFF7ACFF10BD00000423044A2D
:1054A00010B5117E0B431376024B5B68984710BD15
:1054B00000400042DC0E002010B5024800F012F857
:1054C00010BDC046DC0E0020002805D0034B044A66
:1054D0005A809A7AD209FCD17047C0460014004025
:1054E0000080FFFF0023037070470000044B10B5DD
:1054F0001B68002B00D098470122024B1A7210BD86
:10550000E40E00200014004003780A00002B09D0AC
:105510000720054B0240197F8143114319779A7A7E
:10552000D209FCD17047C04600140040014B1960FD
:105530007047C046E40E002003780A00002B09D013
:105540003F20054B024099698143114399619A7A42
:10555000D209FCD17047C046001400400378002BEC
:105560000BD03F20054B01409A6905488901024054
:10557000114399619A7AD209FCD170470014004016
:105580003FF0FFFF0378002B0BD01F20054B01409D
:105590009A69054809030240114399619A7AD20930
:1055A000FCD1704700140040FF0FFEFF70B50D00E6
:1055B0001900037804001600002B09D0FFF7BCFF88
:1055C00031002000FFF7CAFF29002000FFF7DAFFB3
:1055D00070BD00000378002B0BD01F20054B01404D
:1055E0009A69054849040240114399619A7AD2099F
:1055F000FCD1704700140040FFFFC1FF0378002B6F
:105600000BD00F20054B01409A69054889050240DF
:10561000114399619A7AD209FCD170470014004075
:10562000FFFF3FFC03780A00002B09D0054B9206D0
:10563000996989018909114399619A7AD209FCD142
:105640007047C0460014004070B51D000378040088
:105650001600002B09D0FFF7BDFF31002000FFF737
:10566000CDFF29002000FFF7DDFF70BD00B50078F9
:105670008BB0FFF729FF01220F4B52421B690992A1
:105680000022089207929A0E643206929A01120F33
:10569000013A05929A02D20E0492DA03D20E0392D4
:1056A0001A059B06920E9B0E01A80292019309F027
:1056B00023FA0BB000BDC04600140040037837B594
:1056C0000500002B1ED0104B994200D21900002378
:1056D00068460091019308F0FBFF040043690269EA
:1056E000C168643B01322800DBB2D2B2C9B2FFF715
:1056F000ABFF23686268A1682800DBB2D2B2C9B2EE
:10570000FFF754FF37BDC04680436D38094B0A4A46
:105710009A605A7852B2002AFBDB084A5A605A78DB
:1057200052B2002AFBDB064A5A805A78D209FCD1D1
:105730007047C046000C0040020400000205110042
:10574000044200000221044B1A888A431A809A7A84
:10575000D209FCD17047C046001400400222044B1D
:1057600019880A431A809A7AD209FCD17047C04638
:10577000001400400122044B19880A431A809A7AC7
:10578000D209FCD17047C046001400400121044BEF
:105790001A888A431A809A7AD209FCD17047C04687
:1057A000001400402023F7B500272A4A0E00916913
:1057B00005000B439361284B284A294C9A82BE422C
:1057C0000BD1284B37001A7870231A4205D0238852
:1057D0001B0702D50127236901932800FFF796FFD5
:1057E0002800FFF7AFFF2800FFF7C4FF63881E4AB9
:1057F000134063801D4B2380A37ADB09FCD1C021B9
:105800001B4A08331360890053581B021B0A53506C
:105810000123E27913430722E371237F9343237724
:10582000A37ADB09FCD12800FFF798FF2800FFF7D7
:10583000ADFF002E0BD1002F09D0019B002B06D00D
:105840002361A37ADB09FCD101332B70F7BD8423DC
:10585000DB03F5E70004004000080040CE0600002E
:105860000014004038040040FFBFFFFF080A00009A
:1058700000E100E00323F0B589B006AC23700023FB
:105880000500080001930733009321002300012243
:105890000068FEF792FD7F20A678A1796279E3780F
:1058A00067782478204006240590644218116043EC
:1058B0008446101160436344844608116043624487
:1058C0008446FA206144C000C9B209180598DBB2C9
:1058D0000011604384460598D2B26044C0B2029081
:1058E000381160433F18301144433419FFB2E4B219
:1058F00028000197009400F023F8280009B0F0BDBB
:1059000030B5012304000D4D8B4206D228780133B7
:10591000121892B2DBB20135F6E7022903D9A307C8
:1059200001D1013292B26E23FF336343E01C013B8D
:105930008010C018101880B230BDC0468C3A0100EB
:10594000F0B5FA2705AC267806AC257807AC2478A4
:10595000FF00B94202D3054FC91989B2C67005715B
:105960000170427083704471F0BDC04630F8FFFF93
:1059700010B50400827841780078FFF7C1FF182342
:105980004343E07822791B183C2043439B1858433B
:10599000024A63799B18C01810BDC04680436D3819
:1059A000437802781B021A438378C0781B041343A0
:1059B00000061843704770B505000C00081E07D09C
:1059C0000AF08CF92B680200210028005B689847D8
:1059D00070BD10B50400243001F0DBFC002801D1BB
:1059E000002010BD8D239B00E01801F0D2FC0028A0
:1059F000F6D020680368DB699847F2E7020070B5CB
:105A00000569040029008068103201F015F80028AB
:105A10000AD0A378002D08D140221343A37080231D
:105A2000A2785B421343A37070BD22690135AA427C
:105A3000F5D040229343F1E7F7B5027840231500F3
:105A400004001D401A4202D000263000FEBD174B54
:105A500042699A42F8D8FFF7D1FF061EF4D0A26837
:105A600023699179023B8B4080275269BF009B18C4
:105A70000193A0680379AB420ED9019B0522E91876
:105A8000243001F0ACFC0028DED03A0000210135C2
:105A900008F064FFEDB2ECE7802382799B04934029
:105AA00062691B0CD3186361CFE7C046FFFD1F007E
:105AB00010B5040080680A002430A16901F08FFC51
:105AC000002804D00F22A38813405B01C01810BD2A
:105AD00070B50025037804000E00AB420FD12422DC
