:10000000D82D002089020000850200008702000030
:1000100000000000000000000000000000000000E0
:100020000000000000000000000000008502000049
:100030000000000000000000850200007D020000BA
:100040008502000085020000850200008502000094
:100050008502000085020000850200008502000084
:100060008502000085020000850200008502000074
:100070008502000085020000850200008502000064
:100080008502000085020000850200008502000054
:100090008502000000000000000000008502000052
:1000A0008502000085020000850200008502000034
:1000B00000000000074B1A7DD107FBD52022FF323C
:1000C0001A83054A4008D8611A801A7DD107FCD5E9
:1000D0007047C0460040004102A5FFFF10B5041C58
:1000E000044B9C4205D8201C0134FFF7E3FFFF348A
:1000F000F6E710BDFFFF030030B50023934204D0A4
:100100009C000D5901330551F8E730BDF0B5114C95
:1001100080256368AB436360002A19D0151E102D3B
:1001200000D910250C4B521B2380237DDE07FCD504
:1001300000239E008F5901338751AB42F9D19B00B8
:10014000C018C918054B2380237DDD07FCD5E3E7E4
:10015000F0BDC0460040004144A5FFFF04A5FFFFDD
:1001600038B5041C0D1C0023E958E258914205D112
:100170008022043352009342F6D107E0201CFFF79F
:1001800099FF201C291C4022FFF7C0FF38BD00004A
:10019000024B5B785BB2002BFADB7047000C00402F
:1001A000024BDB68DA06FBD57047C046000800400A
:1001B000F8B5264B1E215A6802268A43244C324346
:1001C0005A60A660FFF7E4FF224B234D6360FFF700
:1001D000DFFFAE84FFF7E4FF204B1B689B0E3F2B35
:1001E00000D11F231E4A9B0213431E4A0026EA62C7
:1001F000AB62AE84FFF7D4FF1B4B0227AB84FFF743
:10020000CFFFAB8C3B43AB84FFF7CAFF63883F2231
:1002100093431F43678062888023DB01134363801D
:10022000A660FFF7B5FF114B6360FFF7B1FF104BFE
:10023000104AC0215A60104A0906106A0002000ADA
:100240000143116207229E601A60F8BD0040004120
:10025000000C0040060001000008004024608000FF
:10026000FF01000080BB0A1C2405000000070300FA
:1002700010E000E0E703000000ED00E008B500F04A
:10028000DDF808BDFEE7FEE72248234970B5884245
:1002900001D0002301E0214B07E0214CCA18A24203
:1002A000F9D2C45804331460F7E71E4A191D043B01
:1002B000934203D200221A600B1CF6E71A4A1B4B2A
:1002C000FF218A439A601A4B02225A62194B03217A
:1002D000D8780C2488431043D870DD780820A543D3
:1002E0000543DD70144B30269D7BB54320263543F6
:1002F0009D739D7BA54328439873987B8843024355
:100300009A730E4B80215A680A435A6000F0C2FE6D
:10031000FEE7C046441D000000000020D40100207C
:10032000D0010020D80D00200000000000ED00E00A
:10033000FC70004100500041004800410040004175
:10034000F0B5124D00236A889A421AD00B0A584021
:100350004000285A0902484080B2F0BD17B256004A
:10036000B2B2002F02DA0A4A5640B2B2013CA4B23D
:10037000002CF3D15C002A530133802252009342B7
:10038000E4D01A0292B20824E8E7C046D001002067
:100390002110000070B5D318157801328024416017
:1003A0000326013EFDD12C4200D101600626013E0C
:1003B000FDD10160641004D0E4B20226013EFDD1FB
:1003C000EDE79A4200D2E7E770BD000201238342C5
:1003D00002D2C0460133FAE77047F0B51C23061C71
:1003E00000200D1CDD400F242C40002A05D1002CDC
:1003F00003D1002B01D0002808D0251C471C303524
:100400003018092C00DD07350570381C043B1C1D15
:10041000E7D1F0BD054A064B1A60BFF34F8F054A7E
:10042000054BDA60BFF34F8FFEE7C046EF6916F069
:10043000FC7F00200400FA0500ED00E010B5194A29
:1004400019491368013313600A68002A0CD0174C4D
:100450001019834203D180241548A4028461934279
:100460001FD100230B601CE0DBB2124A002B11D11C
:100470000F4B80218902996111780F4B081C0A38B3
:10048000C0B2F02802D91878404218701B78C918F9
:10049000117006E012789A4203D18022044B920236
:1004A0005A6110BDD0030020D403002018FCFFFFC8
:1004B000004400410100002000000020074B1A68A2
:1004C000074B1968914207D2FA21C90052181A60E5
:1004D0008022044B92025A617047C046D00300202C
:1004E000D403002000440041024B802292029A6013
:1004F0009A6170470044004107B5020A01AB1A70C7
:10050000020C5A7098700D4B40229A6001205A617B
:10051000FFF75BFFEFF31083002B08D172B608489A
:10052000402101AA0323FFF735FF62B605E0044826
:10053000402101AA0323FFF72DFF07BD004400411E
:100540001444004108B50020FFF7D6FF054A064BCA
:100550001A60BFF34F8F054A054BDA60BFF34F8F28
:10056000FEE7C046EF6926F0FC7F00200400FA0594
:1005700000ED00E008B50B4B1A68002A0ED10A49BD
:1005800019600A4B186801301860094B1968002976
:1005900006D0884204D31A60FFF7D4FF013A1A60EC
:1005A00008BDC046D8030020DC050000040A002076
:1005B000080A002010B5344B2021DA6901200A43D3
:1005C000DA61324B06241A7802431A70304B0F223C
:1005D0001978914319701978214319702D490C78B5
:1005E0002043087019780A401A701A7860210A436B
:1005F0001A70294B294A5A805A78D209FCD1284BC3
:1006000001211A780A431A709A78D007FCD4254938
:1006100008688203D20E1F2A00D1052290011C8D8A
:10062000214A224002431A85086842021F20D20E46
:10063000824200D11D221C8D0240844322431A8530
:100640000A689201520F072A00D10322188D110364
:10065000164A02400A431A8519787F220A401A7006
:100660001A78042112480A431A7058621A890C2118
:100670008A431A811A8901218A431A818022002122
:10068000520001F054FA10BD0004004058440041EB
:100690003C44004159440041000C00400640000029
:1006A00000500041246080003FF8FFFFFF8FFFFFF4
:1006B000500A0020F7B51C1C304B051C5B6A0F1C50
:1006C000161C0193002C05D1442454432C4BE418F0
:1006D000FFF750FF6178237899420FD25B1A9F424F
:1006E00000D91F1C002D46D061180431281C3A1C6B
:1006F00001F014FA6378FB1863703CE00199720111
:100700005318A178002911D1211D19605968890B4E
:100710008903596058681B49014059601A494020B3
:1007200056183179014331710121A170134900201C
:10073000561816495218127AD1071DD55A68A17851
:10074000D2B22270022903D11968201D01F0E6F906
:1007500023789F4200D91F1C002D06D06770211DF1
:10076000281C3A1C01F0DAF900E065700123FF361D
:1007700033720023A370381CFEBDC04600500041F8
:10078000500B0020FF3F00F000510041FF5000419E
:1007900008B50023FFF78EFF08BDF8B5051C0C1C3B
:1007A000161C1F1C002C08D0281C211C321C3B1CB2
:1007B000FFF780FF241A2D18F4E7F8BDF8B50D1CDB
:1007C000214956014C6A84463419002B05D06369CF
:1007D000071C5B005B0863611BE06369291C5B000D
:1007E0005B0F0333D9400AD0043A531E9A41D30712
:1007F0006269071C520052081A43626109E04427EB
:100800005743124B6146FF180437381C2A1C01F06D
:1008100085F927616369AA049B0B920C9B03134320
:10082000636162690A4B0B4913406361064BF2181E
:100830007618022333728023B371131CFF331B7AA3
:100840009907FAD5281CF8BD00500041500B002034
:10085000FF3F00F0FF50004108B50023FFF7AEFF57
:1008600008BD000008B5044B1B88994200D9191C2B
:100870000022FFF7F1FF08BDE003002007B50021CB
:10088000684607300A1CFFF7E7FF07BDF0B5D64CF6
:100890009FB0FFF76FFEA28B08231A4006920698BE
:1008A000D24A002827D0A38311218023A37251703C
:1008B000402191715371CE4BCE4C5D68C0202540D4
:1008C000800505435D605D692C4020435861CA483E
:1008D0001860CA4818615C68C94820408024A40296
:1008E000204358605868800B80035860C54B517195
:1008F00000221A7049E2137A1020034200D144E228
:10090000C14910720B7907938E794D790596CF798D
:10091000AC463B021E43B3B2029603934E7A0B7A67
:1009200036021E43B5B201960495CD7A8B7A2D021C
:100930001D43B64B66461D80402536025571331C5B
:10094000079E3343B24EB34200D1BCE132D881217D
:1009500049008B4200D1D0E114D8822B00D196E11E
:1009600008D8802B00D18EE1812B00D00BE20CA89F
:100970000023A5E1802149008B4200D103E202213E
:10098000FF31CCE0A3498B4200D1F1E105D8A2218F
:10099000FF318B4200D0F6E1EAE1C02189008B42B1
:1009A00000D1F0E100D9EBE1B02189008B4200D108
:1009B00062E1E8E198498B4200D1E1E100D9A4E08D
:1009C00096498B4217D8D021C9008B4200D3B8E09A
:1009D00093498B4200D1CBE1A021C9008B4200D0CA
:1009E000D1E1FFF74BFF029D80235B422B437E4EFC
:1009F000DBB2B372C9E18821824809018B4200D180
:100A0000B4E1902109018B4200D0BCE1029F032692
:100A10000770FFF733FFA0235B00E654744B754A61
:100A2000586CC02189051040084358644620FF30A7
:100A300025547C481864902047003020E055586BBE
:100A400092271040084358637F008020E0554427D8
:100A50007F42BC46734FBC4467461F63B0277F008C
:100A6000E5555F6F17405F67B2277F00E055D027DD
:100A70007F00E6551F1CA4373E6816400E433E60BB
:100A8000A627FF37E555CC27BC46664FBC441F1C44
:100A9000A03766463E60C0277F003026E6551F1C03
:100AA00094373E6816400E433E60C2277F005D4E7D
:100AB000E0551F1C883690373E60E0277F004426B3
:100AC000E655E2277F00E555E0551F1CC4373E6818
:100AD00016400E433E601F1CD4373E6816400E433E
:100AE0003E60F02744267F00E655F2267600A555A5
:100AF000A055181CE4300468F43314400C4304601F
:100B000018680240114319603FE147498B4200D108
:100B100036E108D845498B4200D131E144498B4246
:100B200000D12DE12FE143498B4200D117E1424929
:100B30008B4200D117E141498B4200D023E140486C
:100B40001AE1039880235B00984202D13D481221AC
:100B500013E1039980239B00994202D13A489921DD
:100B60000BE1032F78D1059D032D00D90BE10CACCF
:100B7000201C0021482200F0DAFF059E6770002E3D
:100B800005D1042309222370A270E37029E008AE86
:100B90002E4B321C83CB83C21B68002513602F1C95
:100BA0002B4A7359D01919680122FFF716FC043536
:100BB0003F18102DF4D1264E0025F555124F254B28
:100BC000BA799200D658301C00F0B9FF01304000CD
:100BD0002070735D002B04D06A00A2189370013559
:100BE000F7E72178201CC8E000500041FF50004189
:100BF000500A0020FFFFFF8F100A0020540B002036
:100C0000FF3F00F0DC0300200C0A0020E00300207E
:100C100002030000A102000021090000810600007B
:100C2000A1030000DC0B002021200000210A0000AD
:100C3000210B000021220000A1FE0000A1210000E4
:100C400088010020B01B0000EC0000204C1B0000BD
:100C5000E2030020A01B00000F2F02D14E483921D3
:100C60008BE0212F02D14D48092186E0222F00D0B0
:100C700089E04B48212180E00498072800D082E0D9
:100C80004848AA2179E0069F0CA8078019E0019E38
:100C900050230699049F0CA81E400F2301801F407B
:100CA000072F70D808377F01002E04D03E4ABF18A6
:100CB000BB799B0603E03C4BFF18BB79DB06DB0FDF
:100CC0000380022159E0049F039D0F231F40002D44
:100CD00059D17B1E062B56D8019E7F239E43083791
:100CE000F6B27F01002E04D02F4E2023BF197B7156
:100CF00046E02D497F18787142E0049F0F231F4082
:100D0000039B002B3FD17B1E062B3CD8019E7F23EB
:100D10009E43F6B27F01002E10D0234E2348BB190C
:100D20003F18F979202211422AD07A713A7A2A4260
:100D300026D04022FF331A7202220EE01B4A1A49C3
:100D40007B18BF18FA7902421AD07871397A2022BA
:100D5000114215D0FF331A7201225A7110E0144B60
:100D6000029D5D700CE00CA800230380012104E0CB
:100D700000230C930D930CA80821FFF773FD04E0EA
:100D8000FFF77CFD01E0202393710A4B1878431E86
:100D90009841C0B21FB0F0BD0400002090010020B7
:100DA0005C1B00004000002000500041FF5000414B
:100DB000DD030020DC03002008B5FFF7FBFB054A3C
:100DC00000231370044A02215370044B1A780A431B
:100DD0001A7008BDDC030020DD0300200050004134
:100DE00010B501220C1CFFF737FD201C10BD10B5FB
:100DF00001220C1CFFF730FD201C10BD38B5051C6E
:100E00000C1CFFF743FD0023984205D0281C211C31
:100E10000222FFF7BDFC031C181C38BD38B5051CA9
:100E20000C1CFFF733FD0023984205D0281C211C21
:100E30000222FFF7B2FC231C181C38BD10B5031C9E
:100E40001C1A944208DA0C78002C01D0013100E021
:100E500020241C700133F3E710BD00008022F8B598
:100E60009200051C0C1C081C002100F060FE002DE7
:100E70000CD13E22201C444900F050FEFF23552295
:100E80005B00E254414BAA22E2547CE0402D24D87E
:100E90006A1E1F2A00D9203A002A02D0120200231B
:100EA00013E0F02323700123FF21E15401330A2BC7
:100EB000FAD1F3E7364882420DD08AB2E2520A1CD8
:100EC0000233802189008B425DD03248151F511CAE
:100ED0008542F4D8EEE7304AF0E7442D2BD8412D77
:100EE00051D12949201C2B310B22FFF7A7FF2823C2
:100EF000E3720025294F2E01BB19D8682034002841
:100F000002D000F01CFE01E080200003030A63779A
:100F1000030CA377AB1C9BB22077A376000E1B0AB1
:100F2000E077E376B919201C0B220135FFF786FF25
:100F3000032DDFD127E02B1C453B012B0AD8174A94
:100F40001B01D318DD68281C00F0F9FD291C021CC8
:100F5000201C16E0124B473D2902994213D8114B31
:100F6000114A2360114B201C6360FE235B00E2509A
:100F700080238022DB0052006561A361E160226171
:100F8000203000F0CBFDF8BD8B1C0000FF010000FD
:100F900003040000FF030000FFFF0000CC1C000062
:100FA000FFFF03005546320A306FB10A57515D9E6C
:100FB00070B50D1C161C09682E4A1C1C002391429A
:100FC0000AD12D4A6968914206D1FE235B002B4A63
:100FD000EB589B185A425341002B49D0A968012372
:100FE000194211D12A6980235B009A420CD1E8682A
:100FF000C3B2002B08D1224BC218224B9A4203D80D
:10100000291C2031FFF7ACF8002C29D0AB69002B4C
:1010100026D021681C4A994206D0934201D8002963
:1010200001D001235B4223606B69934220D80721E2
:1010300019400122DB088A40E318D1B21A7A0A4229
:1010400004D10A431A7263680133636062682368DB
:101050009A420DD3002E0BD10C4B1A681E3205E0BC
:10106000002E05D1094B1A682D32FF32084B1A6049
:1010700070BDC0465546320A57515D9ED0904EF520
:1010800000E0FFFFFFDF030063040000040A00200C
:10109000080A002070B5384EB368002B00D0FEE778
:1010A000FFF722FA354B36481D68F8232A189B02B1
:1010B0009A4238D8334B344A1968344C344B9142F5
:1010C0000ED11978334AC80702D42168914207D05B
:1010D000314B22601A68314B2D32FF321A6022E008
:1010E0001978012319400FD120682D4A274B9042CF
:1010F00001D1196017E018682649884204D0FA2007
:101100001A604000FFF761F9002323608022254B1D
:1011100092025A6180239B011B6883F30888802315
:101120009B01B3602847FFF743F8BFF35F8F62B6B8
:10113000FFF742FE8020C002FFF7DEF91A4B0A22B9
:101140001A701D1CFFF7A2FB184C00280DD0237845
:10115000DBB2002B07D1114A8020C0001360FFF7DB
:10116000CBF901232B70012323702378002BE9D0C6
:1011700000F09EFAFCE7C04600ED00E0042000000D
:1011800000E0FFFFB42000007CB0EE87FC7F002071
:1011900038040040EF6926F0040A0020080A002005
:1011A000EF6916F000440041000000200304002015
:1011B00010B5054C0021201C122200F0B8FCF023D1
:1011C00023700A23E37110BDC406002008B5FFF7A1
:1011D000EFFF024B00221A7308BDC046C001002079
:1011E000F8B5051C0E1C171C0024AB689C4210D2DD
:1011F0008021AA78E8688900331CFFF7CEFA8023A3
:101200005B01E018E96801223B1CFFF7D1FE0134C5
:10121000EBE7F8BD70B50D1C141C231C061C012146
:1012200000202A1CFFF746FA0023984206D0231C10
:10123000301C1F212A1CFFF73DFA0123181C70BD2A
:1012400008B503480D210422FFF706FB08BDC04680
:10125000C001002008B50B490B4B4A7908791202EE
:1012600002438879C9790004024309060A43110A36
:101270001A715971110C120E9971DA71FFF7E0FFB2
:1012800008BDC0460C040020C001002038B504226F
:101290000D1CFFF7E1FA154CA8420FD0FFF788FFAD
:1012A00001232373124B04229A700022DA701A7100
:1012B0005A719A711A735A73FFF7CCFFFFF786FFC2
:1012C000617A237A09021943A37A1B041943E37A4A
:1012D0001B061943491B0B0A217263720B0C090E82
:1012E000A372E172FFF7B6FF38BDC046C00100200F
:1012F000C406002070B5194D0021041C1422281CBE
:1013000000F015FC281C1649002C04D0021CCD7DD1
:101310000832082302E0CD7C021D04234E7C3F21CD
:1013200031401C2901D03F2907D11C2111700A210D
:1013300051700C330521D170DBB2191CAB4200D9BE
:10134000291CC9B2002C03D0023B1B02038001E020
:10135000013B0370FFF79AFF70BDC046D80600201E
:101360000C040020F7B52B496B464A7C6C46DA71B9
:101370008A7C6B469A71CA7C6B465A710A7D01ABB6
:101380001A708B7D02346370CB7D051C23700026A0
:1013900023889E4238D2FFF779FA002838D01E4FB2
:1013A000002D0BD0019A391CB018FFF757FD802192
:1013B000381C89000422FFF74FFA0FE08021381C07
:1013C000890005222B1CFFF7E8F9019B391CF01856
:1013D0002A1C124BFFF7ECFDFFF770F8104901369D
:1013E0004B7A0A7A1B0213438A7A12041343CA7A8D
:1013F000120613430B4A9B181A0A0B724A721A0CF4
:101400001B0E8A72CB72C3E7FFF7E0FEFFF722FFE5
:10141000F7BDC0460C040020C40400202C040020AA
:10142000C001002000FEFFFFF0B585B000F046FBD4
:10143000464D0521281C0022FFF7ECFE002800D1B4
:1014400081E06F7A2B7A3F021F43AB7A404C1B043A
:101450001F43EB7A00261B061F433B0A63723B0CBB
:10146000A3723B0E2772E372EB7B1E2B43D00CD88A
:10147000122B29D004D8B3423DD0032B1CD050E00E
:101480001A2B32D01B2B36D04BE0282B36D00BD862
:10149000232B37D0252B44D12E4880239B02436039
:1014A0002D4B082103601DE02F2B24D05A2B1ED07A
:1014B0002A2B36D1301C22E0EB7C191C122B00D9D0
:1014C0001221C9B225480DE0254C2649201C0830C0
:1014D0001822FFF7B3FCEB7C191C242B00D9242124
:1014E000C9B2201CFFF7D2FE2DE0301C00E0012025
:1014F000FFF700FF27E0FFF769FE22E00120FFF77A
:1015000031FF20E00C2501A817492A1C00F006FB3A
:10151000AF4203D925726672A672E67201A80C2149
:10152000E0E7FFF745FE0A4A012313730B4B052240
:101530009A700022DA701A715A719A711A73202205
:101540005A73FFF787FE05B0F0BDC0460C040020BB
:10155000C00100200404002000001F3FC40600203A
:101560009C010020941B0000FC1C000072B6BFF31D
:101570005F8F044B044A9A829A83044B00229A603C
:101580007047C04600500041FF03000000ED00E03E
:10159000F0B5C5B00DAD041CFFF7E8FF00214422F3
:1015A000281C00F0C4FA002198221EA800F0BFFAFF
:1015B00062780223AB700F231A406270A27805AEE6
:1015C0001340A370284B00270593636827480693B0
:1015D000E1681EAB012207973773FFF7E9FC201C77
:1015E000291C1EAAFFF7FCFD6278301C0D21012387
:1015F000FFF7E4F805AEA178301C2A1CFFF70AFEBD
:10160000002807D11A4B7E1C9F4201DDFEF79AFF8E
:10161000371CEFE7144B01AF019373687B60B3682D
:10162000BB6000233B73F37B002B14D02A2B10D11B
:10163000B27D6B46DA70F27D201C9A705E88291CA0
:10164000A6601EAAFFF7CCFDBB6876029E1BBE609B
:1016500001E0FEF7DFFE6278381C0D210123FFF761
:10166000ADF80026D4E7C04653425355FF0F0000A3
:10167000F824010010B5EFF30883064A13600368ED
:1016800083F308884468A047024B1B6883F30888EB
:1016900010BDC046CC0D002007B5011C01226846D4
:1016A000FEF79BFE68460821FFF79AFB07BD000086
:1016B000F7B5864C00232360854B7A221A70FFF71A
:1016C000B3FE844D4021281CFFF798FB824B00227B
:1016D00018602A54904201D0FEF7F0FE7F4A804BFA
:1016E000002115601960151C1F1C7B4B3A68186897
:1016F0008242E4D229680B788C46FF2B00D1E1E0CE
:10170000784E232B00D0B8E071490B78532B2BD1A6
:10171000904217D961463368013201313A6029603D
:10172000821A9A4200D91A1C6F4E2068326000F06B
:10173000F5F9336839685A1829683A60CA182A6076
:101740006A4A13703B68674A013B3B602B6811682B
:10175000013B2B60654B1B788B4203D2C91A206872
:10176000FFF75CFBC04681E0522B04D13168206852
:10177000FFF73DFB7AE04F2B03D1336822681370EB
:1017800074E0482B03D1336821680B806EE0572B3F
:101790000AD1574B22689A4202D10020FEF7ACFED4
:1017A000236832681A6061E06F2B01D1206819E06C
:1017B000682B05D12168301C0B880221336053E06F
:1017C000772B05D12368301C1B68042133604BE064
:1017D000472B09D13068FFF74DFF464B1B78002B94
:1017E00044D0454801213FE0542B3FD04E2B3DD003
:1017F000562B02D141482A2136E0582B04D13068BB
:10180000FEF76CFC3E482EE0592B0DD132683D4B63
:10181000002A02D122681A6004E019689208206840
:10182000FEF774FC38481EE05A2B1FD12368009342
:10183000009933680026CB1801930099019A9142D0
:1018400009D0009A311C1078FEF77AFD009B061C27
:1018500001330093F1E701212C48FFF7C1FA301C56
:10186000FFF71AFF2A480321FFF7BAFA18497A232B
:101870000B701C4B00221A6021E01A1C303AD1B2C6
:10188000092904D831680B011A43326017E01A1C89
:10189000413A052A01D8373B04E01A1C613A052A6F
:1018A00004D8573B31680A01134307E02C2B02D1BF
:1018B0003268226001E006490B70002333602B6818
:1018C00001332B603B6801333B600EE7C80D0020FD
:1018D0007C0D0020840D0020740D0020780D002068
:1018E000800D0020D00D0020D40D0020700D0020B0
:1018F0000CED00E0F0060020321D0000081D000085
:10190000341D0000EC060020381D00003C1D0000C6
:101910003E1D0000F8B5031C041C47331A78002054
:101920004021231CFEF7C6FE002801D1002019E04B
:1019300026790023237073B2002BF7DBA51DE88FF7
:101940003F27374048302018611D3A1C00F0E6F868
:10195000E88F3F23381880B29E4301D1E887E5E73E
:101960000023EB87F8BDF0B593B0061C0C1C019268
:101970001F1C3F25AC4203DC251C002F00D1402753
:101980002B1C3B436A4668461372311C2A1C0930E3
:1019900000F0C4F8019B02A8DAB240210123FEF74F
:1019A0000DFF7619641BE4D113B0F0BD08B5031C1C
:1019B0004833473002780431181C0023FFF7D3FF67
:1019C00008BD0000F7B5041CFFF7A4FF00286FD086
:1019D000231C4833A06C9A8801381A8000225A8050
:1019E00008285FD800F090F8130521246027443BB5
:1019F0003400304E301C00F0A2F8051C201C311CB5
:101A00004C302A1C00F08AF8201C291C4EE00123CF
:101A1000E36480235B0023658023DB006365A023F0
:101A20005B00A365201C102140E0FEF78BFD3BE02E
:101A3000FEF7F0FC38E0201C0021FFF7B7FF206D17
:101A40001D4B984234D9211C5431FEF789FB2FE0FD
:101A5000211C206D5831626DFEF74EFB24E0656D50
:101A6000201C216D4C302A1CFEF746FBA90017E014
:101A7000676D256D0026BE4211DA6B1CFF330193A2
:101A800000212878FEF75CFC019B0135011C9D427A
:101A9000F7D17300E3184C3318800136EBE7790077
:101AA000201C03E001225A80201C0021FFF77EFF4A
:101AB000F7BDC0462D1C0000FF1F0000074808B5F9
:101AC000031C473306221A70FFF77CFF04480722E5
:101AD000031C47331A70FFF775FF08BDF40600209A
:101AE0007C08002010B5E2B0041CFFF73FFDC422C3
:101AF00068460021520000F01AF86B4647331C700C
:101B00006846FFF75FFFFBE702B4714649084900EA
:101B1000095C49008E4402BC7047C04610B50023E2
:101B2000934203D0CC5CC4540133F9E710BD031CCD
:101B30008218934202D019700133FAE770470023EC
:101B4000C25C0133002AFBD1581E70470CA08000F4
:101B500040A0800044A0800048A080000697FF09B4
:101B600001A101150026FF007508954009018102B9
:101B700095400901910295010901B102C0000000E0
:101B8000416461667275697420496E64757374721C
:101B90006965730046656174686572204D300000A8
:101BA00000000000801B0000941B0000E2030020E6
:101BB00012011002EF0201409A231B0001420102B0
:101BC000030100003C21646F6374797065206874C0
:101BD0006D6C3E0A3C68746D6C3E3C626F64793E8D
:101BE0003C7363726970743E0A6C6F636174696FF1
:101BF0006E2E7265706C6163652822687474703A29
:101C00002F2F6164616672752E69742F33343033FF
:101C100022293B0A3C2F7363726970743E3C2F6229
:101C20006F64793E3C2F68746D6C3E0A00554632F5
:101C300020426F6F746C6F616465722076322E3053
:101C40002E302D61646166727569742E352053469D
:101C50004857524F0D0A4D6F64656C3A20466561D6
:101C600074686572204D300D0A426F6172642D49AF
:101C7000443A2053414D443231473138412D466575
:101C800061746865722D76300D0A00EB3C90554604
:101C900032205546322000020101000240003E1F62
:101CA000F82000010001000000000000000000001A
:101CB00000294200420046454154484552424F4F98
:101CC000544641543136202020000000494E464FF2
:101CD0005F554632545854002D1C0000494E44456F
:101CE0005820202048544D00C41B00004355525238
:101CF000454E542055463200000000000000000808
:101D000000001F400200020076312E31205B41723C
:101D10006475696E6F3A58595A5D204A756C203166
:101D20003720323031382031353A30313A31370AC4
:101D30000D000600580A0D00590A0D005A00230A2A
:101D40000D00000001C80000050F39000218100541
:101D50000038B60834A909A0478BFDA0768815B6CF
:101D600065000101001C100500DF60DDD88945C752
:101D70004C9CD2659D9E648A9F00000306AA0002C7
:101D8000000000000A00000000000306AA0008008E
:101D900002000400A0001400030057494E555342AE
:101DA00000000000000000000000840004000700A4
:101DB0002A00440065007600690063006500490060
:101DC0006E007400650072006600610063006500CB
:101DD00047005500490044007300000050007B009C
:101DE000390032004300450036003400360032002E
:101DF0002D0039004300370037002D003400360035
:101E0000460045002D0039003300330042002D000C
:101E100033003100430042003900430035004100E7
:101E200041003300420039007D0000000000000046
:101E30000902990005010080FA080B000202020164
:101E40000009040000010202010005240010010441
:101E50002402060524060001052401030107058369
:101E6000030800FF09040100020A000000070581C1
:101E700002400000070502024000000904020002BF
:101E800008065000070584024000000705050240CF
:101E90000000090403000203000000092100010002
:101EA00001222100070586034000010705060340C3
:101EB00000010904040002FF2A010007058703400E
:101EC00000010705070340000100000000C20100F7
:101ED00000000800090403000203000003000000E2
:101EE000008002022000000000000000000000004E
:101EF00000000000000000000000000000000000E2
:101F0000312E3030534253550000000000000000D5
:101F100000000000000000000000000000000000C1
:101F200000000000000000000000000000000000B1
:101F300000000000000000000000000000000000A1
:101F40000000000000000000000000000000000091
:101F50000000000000000000000000000000000081
:101F60000000000000000000000000000000000071
:101F70000000000000000000000000000000000061
:101F80000000000000000000000000000000000051
:101F90000000000000000000000000000000000041
:101FA0000000000000000000000000000000000031
:101FB0000000000000000000000000000000000021
:101FC0000000000000000000000000000000000011
:101FD0000000000000000000000000000000000001
:101FE00000000000000000000000000000000000F1
:101FF00000000000E51A0000911500002D1C0000F3
:102000000080002089E30000D5E1000071E30000BA
:1020100000000000000000000000000000000000C0
:1020200000000000000000000000000071E300005C
:10203000000000000000000071E30000DDE300008C
:1020400071E3000071E3000071E30000D57100004E
:1020500099E1000071E30000C969000075E3000028
:1020600071E30000C1BE000071E3000071E30000F5
:102070007965000071E3000071E3000071E3000086
:1020800071E3000071E3000071E3000071E3000000
:102090005DCA000071E3000071E30000857100007B
:1020A00071E3000071E3000071E3000071E30000E0
:1020B0000000000010B5064C2378002B07D1054B1B
:1020C000002B02D0044800E000BF0123237010BDA4
:1020D000000300200000000070890100044B10B5CF
:1020E000002B03D00349044800E000BF10BDC046E8
:1020F000000000000403002070890100F12310B5E6
:102100000400DB00C01809F094FD094BE01809F049
:1021100044FBD723DB00E0180CF081F820000C30E2
:102120000CF07DF820000CF07AF8200010BDC046BD
:1021300014070000012210B50248034BC25403F0FB
:1021400079FD10BD1C030020FA060000F0B58E4B8F
:102150008E4C85B0E55C0293002D14D18C498D48DE
:102160000CF0D2F8D1232000DB00E55401F008FD8B
:1021700001222900200002F0E1FA2B002A000521AB
:10218000200002F083FC029BE35C5A1E022A34D832
:10219000012B03D180497F480CF0B6F8029BE35C29
:1021A000022B03D17D497B480CF0AEF8029BE35C27
:1021B000032B03D17A4977480CF0A6F8794BE35CFE
:1021C000002B13D0200002F025F9774BE058774B15
:1021D000E1580DF03BFA0D1E08D1C821200000F097
:1021E00019FC01222900200002F0A8FA704BE35CE0
:1021F000002B02D0200002F04DF9029BE35C042B7F
:102200005BD16C4963480CF07FF8664BE35C002BB4
:102210004CD0200002F0FEF8200000F0CAFB664D12
:10222000664F2B683A6801332B6093423ED1C82138
:102230002000634E00F0EEFB01220021200002F09E
:102240007DFAA359581C0FF0EBFC5E4A5E4B0EF072
:1022500095FE0CF007FD00225C4B0EF08FFE002275
:102260005A4B0FF0F7F8002200230DF035FA002842
:1022700072D0A05901300FF0D3FC524A524B0EF0ED
:102280007DFE0CF0EFFC0022504B0EF077FE00229A
:102290004E4B0FF0DFF800224D4B0DF0FFFE0FF01C
:1022A00089FC424B3860E05000232B60404BE35CDC
:1022B000002B02D0200002F0EDF8029BE35C052B1E
:1022C00015D1444933480CF01FF8364BE35C002B22
:1022D00006D0200002F09EF8C821200000F09AFBF2
:1022E000334BE35C002B02D0200002F0D3F8029BBA
:1022F000E35C062B00D099E0374926480CF004F83F
:10230000200000F0C3FE354B264DE25C284E0393BF
:10231000002A65D1052300271A0019002000009724
:1023200000F0F8FBA35DBB420FD0200002F0B2F832
:10233000C821200000F06EFB39002000012202F0CD
:10234000FDF90321200000F0F1FA635D002B6DD050
:10235000200002F05FF869E0A05901300FF060FC46
:10236000184A194B0EF00AFE0CF07CFC0022174BA9
:102370000EF004FE0022154B0FF06CF80022144BF7
:102380000FF068F88BE7C0468A0600001C030020A7
:10239000CC64010028030020D6640100DA64010047
:1023A000DE640100A20600008C0600008406000026
:1023B000A3060000E2640100BC0A00200400002023
:1023C000940600009A9999999999C93F0000144080
:1023D0000000E03FEC640100F4640100A10600008D
:1023E000052300271A0019002000009700F072FB57
:1023F000635DBB420FD0200002F00CF8C821200022
:1024000000F008FB39002000012202F097F90321B7
:10241000200000F08BFAA35D002B02D0200002F018
:1024200039F8039BE35C002B00D173E7029BE35C6C
:10243000072B1DD1854986480BF066FF0022854B8E
:10244000E254854BE35C934202D0200001F0E2FFAE
:10245000824BE35C002B0BD0200002F01BF8C8215C
:10246000200000F0D7FA01220021200002F066F9D6
:10247000029BE35C082B60D10026794974480BF07D
:1024800043FF744BE654754BE25C0393B2424DD06C
:10249000200001F0FFFF734D734F2B683A68013342
:1024A0002B60934200D0CCE0C821200000F0B2FAAB
:1024B00031006E4E0122200002F040F9A359581C51
:1024C0000FF0AEFB6A4A6B4B0EF058FD0CF0CAFBE6
:1024D0000022694B0EF052FD0022674B0EF0BAFF4E
:1024E000002200230DF0F8F8002800D192E0A05956
:1024F00001300FF095FB5E4A5E4B0EF03FFD0CF095
:10250000B1FB00225C4B0EF039FD00225A4B0EF05D
:10251000A1FF0022594B0DF0C1FD0FF04BFB584BB2
:10252000039AE050002338602B60A3544A4BE35CCD
:10253000002B02D0200001F06DFF029BE35C092B11
:102540001AD1504942480BF0DFFE434BE35C002BAD
:102550000BD0200001F05EFFC821200000F05AFAE5
:1025600014221921200000F00DFB3C4BE35C002BF2
:1025700002D0200001F08EFF029BE35C0A2B1DD1EC
:10258000414933480BF0C0FE0022324BE254334B3A
:10259000E35C93420BD0200001F07CFFC8212000B7
:1025A00000F038FA14221921200000F0EBFA2A4B2F
:1025B000E35C002B02D0200001F02CFF029BE35CC7
:1025C0000B2B22D1314922480BF09EFED1238022D1
:1025D000DB005200E252200001F0D2FAD523CF22D4
:1025E000DB00D200E358A25893420ED3284AA258E7
:1025F00093420AD201220021200002F09FF800231A
:1026000005211A00200002F041FA200001F09CFB95
:1026100005B0F0BDA05901300FF002FB144A154B74
:102620000EF0ACFC0CF01EFB0022134B0EF0A6FCCF
:102630000022114B0EF00EFF0022104B0EF00AFF8D
:102640006BE7200000F0B5F970E7C046FE640100BA
:1026500028030020A1060000A2060000A306000037
:1026600004650100BC0A002004000020940600005C
:102670009A9999999999C93F000014400000E03F48
:102680008406000009650100126501001D65010056
:102690007C06000030B50F4C85B020000E490BF0D1
:1026A00006FE0E4D20002A000D490CF0D3FA210041
:1026B00001A80BF01FFE0B4C01A9200000F092FDB9
:1026C00001A80BF0ACFD2A00200007490CF0C2FA6B
:1026D00005B030BDC00A00202365010000000020C5
:1026E0001FE200001C030020FD200000BFF34F8FFD
:1026F000034B044ADA60BFF34F8FC046FDE7C04684
:1027000000ED00E00400FA050020704737B5050031
:102710000C006846144904F083FF6A466B469078C3
:102720001278002114325B787F2A08D80C2B06D847
:102730001F2804D85B0103435202134399B26B462E
:102740006A46DB782980002011795279172B09D845
:102750003B2907D83B2A05D8DB0249010B4352101D
:10276000134398B2208037BDD00A00200300806C4C
:1027700010B5002802D006F000FC10BDD86C00286F
:1027800002D005F0C1F9F8E701204042F5E700006A
:102790000A00902100B5C900030040588FB00028FE
:1027A0000FD0002369460B808B700100013368460F
:1027B00006F08AFD002802D0684607F093F90FB0B2
:1027C00000BD0B4959580029F9D031236B441870CA
:1027D0006B4658860123684605F03EFC002801D16F
:1027E0000020ECE7684605F0B9FC0028F8D0E6E7E1
:1027F00084040000836B002B09D01A780020120794
:102800001CD5D8695B69C01A18D50D4816E0C16B94
:10281000081E13D00B003133187800220023000764
:1028200005D50A694B6908684968121A8B4110007E
:10283000002BEAD180231B069A42E6D27047C0469D
:10284000FFFFFF7F10B51030FFF7D4FF10BD03006E
:1028500007B5806B002809D06B460122D91D06F010
:10286000CAFA012805D16B46D87904E0D86B002854
:1028700002D1012040420EBD6B460122D91D05F058
:1028800069F8EEE710B51030FFF7E1FF10BD10B5A5
:102890000400806B002802D0002106F09EFBE06B54
:1028A000002803D00022002305F048F910BD0300E2
:1028B000806B10B5002802D006F05AFC10BDDB6B0F
:1028C000002BFBD0180005F029FDF7E710B51030FC
:1028D000FFF7EDFF10BD0300806B10B5002802D09C
:1028E00006F000FD10BDDB6B002BFBD0180005F0DF
:1028F00007FEF7E710B51030FFF7EDFF10BD07B585
:102900006B46D9710733012219001030FFF7E3FF3E
:102910000EBD00000023FA2243608364C364024BAF
:102920009200826003607047486C0100F8B50E4D5C
:102930000400475D0E00002002210BF066FC02003F
:10294000531E9A41D2B2002308496255974201D1E1
:102950006358013363509E4204DC434258410023D4
:1029600060556350F8BDC046A10600007406000023
:10297000F8B5C8270D000124FF00AC4217DA0A267B
:102980003B00013BFDD101200CF018F8002804D0D9
:10299000013E002EF4D10134EFE73B00013BFDD1B5
:1029A00001200CF00BF80028F2D1012000E00020FB
:1029B000F8BDC82110B508220020890009F078FF71
:1029C00010BD0000F0B585B00291070001210D2077
:1029D000160003930BF0C6FF02200BF043FD00240A
:1029E0006A460A99127AC9B2019169460848097B78
:1029F0003D182800F3B200912100013409F05DF880
:102A0000A4B2280008F02AFF082CE9D105B0F0BDD7
:102A10001407000013B50A00FA2104000901002080
:102A200009F046FF00210A230A0020000091FFF769
:102A3000C9FF13BD73B5012106000D200BF092FFF5
:102A400002200BF00FFD00240C4BF35AA3420FD9C8
:102A500000220B4821003518130028000192009233
:102A600009F02BF80134280008F0F8FEA4B2EBE7D7
:102A700000210D200BF076FF73BDC0461607000045
:102A800014070000F7B50F00019001210D2016007A
:102A90000BF068FF02200BF0E5FC0024019B0C48C2
:102AA00021001D183A00280009F031F801342800EF
:102AB00008F0D4FEA4B230000BF0D4FC082CEDD109
:102AC00000210D200BF04EFF02200BF0CBFCF7BDD8
:102AD00014070000F7B51F00040016000D000D20BC
:102AE00001210BF03FFF02200BF0BCFC0899084BC2
:102AF000FFB2E418C9B2F3B2EAB220000191009724
:102B0000092108F0DAFF200008F0A8FEF7BDC04652
:102B100014070000F7B51F00040016000D000D207B
:102B200001210BF01FFF02200BF09CFC0899084BC1
:102B3000FFB2E418C9B2F3B2EAB2200001910097E3
:102B4000082108F0BAFF200008F088FEF7BDC04653
:102B500014070000F8B50D0014001F000026BE4247
:102B60000FD0012128000BF0FDFE20000BF07AFCB5
:102B7000002128000BF0F6FE20000BF073FC01365C
:102B8000EDE7F8BD70B50C0016000025B54217DA68
:102B900001210E200BF0E6FE012108200BF0E2FEE1
:102BA00020000BF05FFC00210E200BF0DBFE00216B
:102BB00008200BF0D7FE20000BF054FC0135E5E7B0
:102BC00070BD0000F0B501262B4B85B0C518040080
:102BD0000523632219212800009608F003F9002339
:102BE0006322009319210533280007F08DFFD123BC
:102BF000DB00E35C002B1ED0204BE75C002F1CD0D9
:102C000001231424039352330293043B4B222100EB
:102C1000280000930194353B08F07BF900230393CF
:102C20003F330293043B0093372221002800019494
:102C3000213B08F06EF905B0F0BD3F230396142642
:102C40000293043B37223100280000930196213B78
:102C500008F05FF953230293043B00934B22353B6A
:102C6000310028000397019608F053F9034BE35C09
:102C7000002BE0D0C4E7C0462C070000A1060000EE
:102C800070B504000A4B0B4EC518280008F0E1FC93
:102C9000094B2800A351094909F082F9084B280083
:102CA000A351084909F07CF9280008F007FD70BD20
:102CB0002C0700003C070000140028002B650100D1
:102CC0000A003C003465010070B504000C4B0D4A4D
:102CD000C2500D4B0A22C518B43BC158280009F058
:102CE000B0F92800094909F04AF9094B0A22E158CC
:102CF000280009F0A6F92800064909F040F970BD3E
:102D00003C070000230041002C0700003F65010044
:102D10007C0600004765010010B504004B68436065
:102D20008B688360CB681031C360103007F000F906
:102D3000200010BDF8B50400270000210D200C373D
:102D40000BF010FE380017490BF0EFFA164B174E38
:102D5000E518002805D0A35D1549002B11D11549B0
:102D60000FE0380014490BF0E0FA0028F3D13800E6
:102D700012490BF0DAFA0028EDD1A35D002B08D040
:102D80000F49280009F00CF90E4BE01807F0DAF8AB
:102D9000F8BD28000C4909F003F9A35D002BF3D01E
:102DA000EEE7C0464B650100BC040000FD060000D4
:102DB0005467010051660100526501005B65010026
:102DC00065650100CC0400006568010070B5040071
:102DD00094B000210D200BF0C5FD21000F4A68467C
:102DE0000F4B183107F096F90E4B6946E618300084
:102DF000FFF792FF0C4BE5182800FFF748FDD023A2
:102E0000DB000A22E158300009F01FF92800FFF723
:102E10004EFD280007F096F814B070BD436901001C
:102E2000024200005C0500006C050000F8B5134B81
:102E30000400C35C0E00002B1ED1A027FFF720FF6B
:102E4000FF020025AE420CD00223192208212000E7
:102E5000FFF780FE192239002000FFF713FE01352D
:102E6000F0E73500092DECD81922002120000135AA
:102E7000FFF708FEEDB2F5E7F8BDC04661060000B9
:102E8000F0B5D026050099B00C00F600524902A812
:102E900004F0C6FBA85964210CF0F2FA3030E0705F
:102EA000A8590A210CF0ECFA30302071A8590A21F7
:102EB0000CF0CCFB02AB5E783031300061710A213E
:102EC0000CF054FA3030E0710A2130000CF0D4FAE2
:102ED00002AB9E783031300021720A210CF046FAA4
:102EE000303060720A2130000CF0C6FA02AB1E7856
:102EF00030313000A1720A210CF0C2FA3030E07299
:102F00000A2130000CF0A2FB2E2300262374153377
:102F1000637410333031A37403332173E3740A21D3
:102F200030000CF023FA3030A0730A2130000CF08E
:102F3000A3FA2B001833019393233031E173DB00A4
:102F4000E958002920D0002302AA1381937204A813
:102F5000220006F0B9F900283CD000270023220007
:102F6000019904A807F0D6F8169BBB421CD1179A0A
:102F70001F00002A18D11949194809F011F8013623
:102F8000F6B2642ECBD125E0164BEF58002F21D09E
:102F9000392302AA9B1804A8197022000B0041864D
:102FA000390005F059F8D6E708A8FFF723FC0028F8
:102FB00007D008A8FFF74BFC0A38434258413F1896
:102FC000F2E708A806F0BEFF022FD8DC2100019826
:102FD000FFF7DEFB19B0F0BDD00A002054690100F4
:102FE000EC1200209C04000030B5040095B00021D4
:102FF0000D200BF0B7FC104B2000E5182900FFF75F
:103000003FFF21002A0068460C4B183107F082F878
:103010000B4B6946E018FFF77FFE0A4BE3189A6BEB
:10302000002A06D1DB6B002B03D103212000FFF720
:10303000FDFE15B030BDC0464C0600000242000047
:10304000BC040000CC04000010B504000A200BF002
:1030500077FB15200BF0DEFB0CF0E4FF011C0CF0FD
:1030600063FB0EF033FE064A064B0DF087FF0EF0B1
:1030700075FEEA2189050CF0F3FC034BE05010BD0E
:103080006666666666660A40640600000022014BBA
:10309000C2547047F906000010B5040001200BF07F
:1030A0008DFC012802D10022014BE25410BDC04624
:1030B000A406000010B5024B1868FFF7EDFF10BD25
:1030C000CC0A002070B5050001200BF077FC04004D
:1030D000012806D106200BF071FC002801D1014B1C
:1030E000EC5470BDA206000010B5024B1868FFF743
:1030F000E9FF10BDCC0A002070B5050001200BF0DF
:103100005DFC0400012806D105200BF057FC0028C7
:1031100001D1014BEC5470BDA306000010B5024B69
:103120001868FFF7E9FF10BDCC0A002010B50400B5
:10313000002110200BF016FC002111200BF012FCD6
:10314000002112200BF00EFC002113200BF00AFCD2
:10315000044BE35C002B03D000210D200BF002FC9C
:1031600010BDC046F906000010B5094B0400C35C51
:10317000002B08D0FFF7DAFF02200BF073F90549A6
:10318000054803F0CAFF2000FFF786FF10BDC046C8
:10319000F9060000881300009C0F002090220023F5
:1031A000D20083500A4A0B498350043283500A4AA2
:1031B000835004328150A821084A89058352064A67
:1031C0008218D360064A8150043283507047C0464B
:1031D0008404000000093D008C04000094040000F9
:1031E0009C040000F0B504002700544D87B0059101
:1031F0000C3729000BF05BF8290038000BF057F86A
:1032000020001830FFF7CAFF4D4B0025E018FFF7EC
:1032100081FB4C4B4C4EE018FFF77CFB4B4BE0180E
:10322000FFF778FB4A4BE018FFF774FB494BE018B7
:10323000FFF770FBFE22484B9205E554474BD72120
:10324000E2500433E554464B464AE5500433E5501A
:10325000454BC900E5500123A351D123DB00E250C7
:103260000222424BFF32E5500433E550404B6018D8
:10327000E5500433E5503F4B3F49E5500433E250FD
:103280003E4BE5540BF013F880223D4B5200E550C5
:103290000433E5503B4B0A21E5500433E5543A4BE7
:1032A000E5500433E550394BE5500433E550384BD5
:1032B000E5500433E550374BE5500433E550364BC9
:1032C000E5500433E250354BFF3AE5520433E55004
:1032D000334BE250A2590433E250883BE258314B61
:1032E000E2500433E552304B0F22E018D22308F0AD
:1032F000CDFB2E4B0B22E0182D4B0C210293A82363
:103300000193183B0093863B08F046F9294B1022A5
:10331000E01813230193013B27490093013B03F07D
:1033200047FDF123DB00E01808F07EFC380005992A
:103330000AF0D0FF200007B0F0BDC046746901005C
:10334000BC0400000C050000840600005C050000C1
:10335000AC050000FC0500006106000064060000EA
:103360006C06000001000101740600008C060000DC
:10337000940600009C0600007A690100A406000083
:10338000C4060000CC060000D4060000DC060000E5
:10339000E4060000EC060000F4060000FC06000055
:1033A000040700000C070000140700002C070000B1
:1033B00080841E005C070000F6070000F0B50500E1
:1033C000040095B018352D4A290068462C4B06F0AC
:1033D000A1FE2C4B6946E7183800FFF79DFC2A4BED
:1033E000E6183000FFF753FA284B0A22E15C380058
:1033F00008F045FE3000FFF75AFA300006F0A2FD53
:10340000234A290068461E4B06F084FE214B69467C
:10341000E7183800FFF780FC1F4BE6183000FFF775
:1034200036FACF23DB00E1580A22380008F00DFEFF
:103430003000FFF73CFA300006F084FD174A2900FF
:1034400068460F4B06F066FE154B6946E6183000DD
:10345000FFF762FC134BE5182800FFF718FA124B30
:103460000A22E158300008F0F0FD2800FFF71FFAAB
:10347000280006F067FD15B0F0BDC0467F69010069
:10348000024200000C0500001C0500008A06000036
:103490008B690100AC050000BC05000095690100C6
:1034A000FC0500000C0600007C060000F0B50027BB
:1034B0009126040087B003AB19705F700F4B03991E
:1034C000C51828003B0006F077FFF6000C4BA5510D
:1034D000E35C3800BB420FD1012329001A00200011
:1034E000009706F087FDB84206D103000090012244
:1034F0002000A15906F07EFD07B0F0BD8C0400004D
:103500009F040000F0B50400250000210D2095B0B7
:1035100018350BF027FA042128004F4AFFF7C6FFA1
:10352000002803D102212000FFF780FC4B4F290027
:103530003A0068464A4B06F0EDFD4A4B6946E618EC
:103540003000FFF7E9FB00233A002900684606F047
:10355000E1FD69463000FFF7DFFB0122002130006A
:1035600009F054F9D023DB00E0503F4BE01806F09F
:10357000E9FC3E4F29003A006846394B06F0CAFD87
:103580003B4B6946E6183000FFF7C6FB00233A00C4
:103590002900684606F0BEFD69463000FFF7BCFB17
:1035A00001220021300009F031F9324BE054324B56
:1035B000E01806F0C7FC314F29003A006846284B56
:1035C00006F0A8FD2E4B6946E6183000FFF7A4FB75
:1035D00000233A002900684606F09CFD6946300049
:1035E000FFF79AFB01220021300009F00FF9CF23E9
:1035F000DB00E050234BE01806F0A4FC224F29002A
:103600003A006846164B06F085FD204B6946E618E1
:103610003000FFF781FB00233A002900684606F0DE
:1036200079FD69463000FFF777FB01220021300069
:1036300009F0ECF8164BE050164BE01806F082FC4F
:10364000154B1649E51828000FF07AFF29002000D5
:10365000FFF716FC15B0F0BD00093D0043690100FD
:10366000024200005C0500006C0500007F6901005B
:103670000C0500008A0600001C0500008B69010093
:10368000AC050000BC05000095690100FC050000C8
:103690007C0600000C0600004C0600009E6901003C
:1036A0007FB502AD06002849280003F0B9FF872244
:1036B000264B1204F418264B0021F25001230193EB
:1036C0003B337B22200000938C3307F03FF90A2222
:1036D0006978200008F0CFFC1E4E2000310008F071
:1036E0004EFC0A22A978200008F0C5FC3100200019
:1036F00008F045FCFA232978DB00C9180A222000CB
:1037000008F09FFC2000144908F039FCEB78092BE5
:1037100003D83021200008F036FC0A22E978200086
:1037200008F0A9FC20000D4908F029FC2B79092B91
:1037300003D83021200008F026FC29790A22200035
:1037400008F099FC7FBDC046D00A00202C0700007D
:103750003C070000B3690100B5690100E969010097
:103760000C4B37B5C518012304000193153328000D
:10377000009314220621B23307F0E8F8064B074AFB
:1037800028000749E25008F0FAFB280007F096FFEE
:1037900037BDC0462C0700003C070000060024008F
:1037A000BC690100F7B5040001271626124BE51885
:1037B000280007F04EFF2800C82314220621019795
:1037C000009607F0C3F80D4B0D4A2800E2500D4952
:1037D00008F0D5FB0C49280008F0D1FB280007F0C1
:1037E0006DFF2000FFF7A2FC02200AF03BFE074815
:1037F00003F046FCDAE7C0462C0700003C07000057
:1038000006002400C9690100D36901009C0F002053
:10381000104B37B5C5180123040001930E3316224F
:10382000552100932800373307F090F80A4B0B4AD4
:10383000E2500B4BE1580B4B994207DC0A2228005F
:1038400008F0FFFB2800084908F099FB280007F062
:1038500035FF37BD2C0700003C0700005A0024004C
:10386000D406000077E60000E0690100104B37B590
:10387000C5180123040001930E331622552100932D
:103880002800373307F062F80A4B0B4AE250643BDA
:10389000E1580A4B994207DC0A22280008F0D1FBC4
:1038A0002800074908F06BFB280007F007FF37BD29
:1038B0002C0700003C0700005A0024000F270000DE
:1038C000E0690100104B37B5C518012304000193CE
:1038D0000E331622552100932800373307F036F8AF
:1038E0000A4B0B4AE2500B4BE1580B4B994207DC59
:1038F0000A22280008F0A5FB2800084908F03FFB31
:10390000280007F0DBFE37BD2C0700003C07000055
:103910005A002400DC0600000F270000E0690100C7
:10392000F0B5874D874A465987B003908418002E1A
:103930001BD101271023022275212000009301973B
:10394000183307F003F812233A0074212000009383
:103950000196183307F02EF808230093023B1A0053
:103960009D212000019607F025F8039B764A985880
:103970000EF0ACF9039B754A5B5906001D000493D9
:103980006B425D41724B0F000BF09CFE6E4BEDB233
:103990000593002800D16EE0002D00D16BE00026D9
:1039A0000C2507230422782120000196009506F0BB
:1039B000CDFF07230422812120000196009506F007
:1039C000C5FF072304228A2120000196009506F0F6
:1039D000BDFF07230422932101960095200006F0E5
:1039E000B5FF0221200007F07FFD5A4F200039006B
:1039F00007F081FD01250C230022562120000093B1
:103A00000195103306F0A2FF039A534B53495350CC
:103A100013004D4A98580EF059F9009502000B001A
:103A2000200008F0EBFB4E4E2000310007F063FD54
:103A30002900200007F058FD4A4B039AD35C002B65
:103A400017D02900200007F04FFD3900200007F0B3
:103A500052FD454B039A414920005350434908F019
:103A60008EFA3100200007F046FD2900200007F003
:103A70003BFD07B0F0BD300039003D4A3D4B0BF037
:103A800021FE002823D0002D21D0012300260C2563
:103A900001930C3303227721200000930D3306F0AD
:103AA00055FF07230422782120000196009506F097
:103AB0004DFF07230422812120000196009506F086
:103AC00045FF072304228A210196009586E72A4BA9
:103AD00030003900294A0BF0F5FD012300281AD0E7
:103AE000002D18D000260C2501930C3303227721DA
:103AF000200000930D3306F029FF072304227821CC
:103B000020000196009506F021FF07230422812161
:103B10000196009562E7049A002A00D061E70193BC
:103B20000D23772100930332DB18200006F00EFFEF
:103B3000049B042201930C2378210093053B4DE75D
:103B40006C0600002C07000064060000CDCCCCCC35
:103B5000CCCC0E40F477010057000A003C0700006F
:103B60005C6F0100FD06000059001200E3690100CE
:103B70009A99999999990D4066660C4066666666B1
:103B80005F4BF7B5C51800230400019346332D227F
:103B9000052128000093583306F00CFF594F5A4E68
:103BA0005A4B3100E351280008F0E9F9D023DB003B
:103BB0000A22E158280008F048FA554B3100E35139
:103BC000280008F0DCF9012616231422062128001B
:103BD00001960093B23306F0B9FE44230196260005
:103BE0002E22232128000093343306F0AFFE494BE8
:103BF0000C36E351002130000AF0B5FB010028002B
:103C000008F0C1F9012130000AF0ADFB01002800E5
:103C100008F0B9F9022130000AF0A5FB01002800E4
:103C200008F0B1F9032130000AF09DFB01002800E3
:103C300008F0A9F9042130000AF095FB01002800E2
:103C400008F0A1F9052130000AF08DFB01002800E1
:103C500008F099F9062130000AF085FB01002800E0
:103C600008F091F9072130000AF07DFB01002800DF
:103C700008F089F9D123DB00E35C3E00002B1CD067
:103C8000254B2649E351280008F079F9244B0A22F4
:103C9000E351244B2800E15808F0D3F9224B234983
:103CA000E351280008F06BF9214B0A22E351D2239B
:103CB000DB002800E15808F0C4F91E4B1E49A3514F
:103CC000280008F05CF91D4B0A22A3511C4B280068
:103CD000E15808F0B6F91B4BE35C002B02D0200042
:103CE000FEF7F2FF2000FFF71BFE2000FFF7D8FCD5
:103CF0002000FEF767FF280007F0E0FCF7BDC04694
:103D00002C0700003C070000E669010005000F00D9
:103D100006000F000500240023004100EB690100AC
:103D20005F0041008C06000023005500F26901008D
:103D30005F00550023006900FB6901005F00690016
:103D4000940600008906000013B5040001200AF063
:103D500035FE012802D10022114BE2541149684678
:103D600003F05EFC6B46DA78D523DB00E2506B464D
:103D70001A790D4B6846E2506B465A79D623DB0020
:103D8000E25003F031FDDE23DB00E0502000FFF7BE
:103D90005BF92000FFF7F4FE2000FFF7E5F913BD03
:103DA000A4060000D00A0020AC060000F0B5F24BDB
:103DB0000700C35CA5B0002B03D000210D200AF042
:103DC000D1FD3C00183404212000EC4AFFF76EFBC3
:103DD000EB4BEC4A2100FA50EB4AEC4BBA1810A816
:103DE00006F098F9EA4B10A9FC182000FEF794FFA2
:103DF000E84B0126FD181623320000934421073BAF
:103E00002800019606F0A2FDE34BFB1803939B6B81
:103E10000293002B68D1039BDB6B0293002B63D1D1
:103E200001930E330222462128000093033B06F043
:103E3000C1FD029B062201930A234521280000931D
:103E4000083B06F0B7FD082307224621280000930F
:103E50000196043B06F07AFD029B042201930323A2
:103E6000482128000093330006F0A4FD0323029AA2
:103E70004A212800019200930422330006F09AFDA3
:103E80000323029A4C21280001920093042233005C
:103E900006F090FD0323029A4E2128000192009320
:103EA0000422330006F086FD102300930A3B1A001B
:103EB00048212800019606F049FDB84BB84A022176
:103EC000FA50280007F010FB2800B64907F013FB52
:103ED000B549280008F053F82800B44907F00BFB57
:103EE0003100280007F000FB05AD2800B04903F0C1
:103EF00097FB0A226978200008F0BDF8AD4E20003B
:103F0000310008F03CF80A22A978200008F0B3F844
:103F10003100200008F033F8FA232978DB00C918B3
:103F20000A22200008F08DF8A349200008F027F8A5
:103F30000A22E978200008F09EF8A04E2000310007
:103F400008F01DF82B79092B03D83021200008F048
:103F50001AF80A222979200008F08DF83100200093
:103F600008F00DF86B79092B03D83021200008F0F8
:103F70000AF869790A22200008F07DF8904D2000A7
:103F8000290007F0FCFF8F4BFB5C002B21D0F123B5
:103F9000DB0010AAF81807A907F00CFF15980DF020
:103FA00095FE022602000B002000009608F026F97C
:103FB0002900200007F0E3FF0C980DF087FE009623
:103FC00002000B00200008F019F92900200007F07A
:103FD000D6FF7D49200007F0D2FF794E2000310046
:103FE00007F0CDFF3B000C3319002000029307F0CF
:103FF000BFFF3100200007F0C2FFD023DB000A2200
:10400000F958200008F01DF83100200007F0B7FF34
:104010003800FFF719F86D4BF8580DF057FE0B00FC
:10402000022102000091200008F0E8F83100200091
:1040300007F0A5FFD723DB00FD18280064490AF02C
:1040400074F9002800D019E1002062490AF08EFEC0
:104050000B00022102000091200008F0CFF831008F
:10406000200007F08CFF5C4902980AF05EF90028F6
:1040700000D10BE1594B0A22F958200007F0E1FF6B
:104080004F49200007F07BFF554B0A22F9582000CA
:1040900007F0D7FF20004A4907F071FFD9230A2211
:1040A000DB00F958200007F0CCFF4549200007F05D
:1040B00066FF2900200007F05BFF4149200007F060
:1040C0005EFF454902980AF030F9002800D0EEE082
:1040D000444902980AF029F9002800D0E7E0424953
:1040E00002980AF022F9002800D0E0E03F4BFB5C88
:1040F000002B00D1EAE03E49200007F040FF3100EC
:10410000200007F03CFF3B4B0A22F958200007F043
:1041100098FF3100200007F032FFD223DB00F9586E
:104120000A22200007F08DFF3100200007F027FF52
:10413000314B0A22F958200007F083FF310020009C
:1041400007F01DFFD323DB00F9580A22200007F0F7
:1041500078FF3100200007F012FF1D4E28003100CB
:104160000AF0E3F8244B0293002800D0B8E00020C6
:1041700018490AF0FBFD41E0F906000000093D0086
:104180005C0600002E4353564C060000024200001D
:10419000BC0400002C070000CC0400003C07000019
:1041A0004A001000F47701000C6C01005C6F010004
:1041B000D00A0020B3690100BA690100E969010071
:1041C000046A0100FD060000066A010064060000A2
:1041D000386A01000000F0BF4B650100CC0600000A
:1041E000C4060000526501005B650100A1060000E5
:1041F0000D6A01008C060000940600000B000221ED
:1042000002000091200007F0F9FF6849200007F044
:10421000B6FE310028000AF088F8002800D170E0CE
:10422000634BFB58012B00DC6BE0624B0A22200041
:10423000F95807F006FF5D49200007F0A0FE3100A5
:1042400028000AF072F8002867D000205A490AF0C6
:104250008DFD0B00022102000091200007F0D5FF28
:104260000223192208213800FEF774FC0398FEF798
:104270001EFB039805F066FE25B0F0BD4F4B0A22E9
:10428000F9582000013107F0DCFEE8E64C490298BD
:104290000AF04BF8002800D0ECE64A4902980AF0F0
:1042A00044F8002800D0E5E60A22474BF9E6474BE0
:1042B000FA580433FB589A4200DD1CE701DA4449FE
:1042C0001AE744499A4200D019E715E7200040490F
:1042D00007F055FE404BFB5C002B00D10FE70AE7CF
:1042E0003E4BF8583E4B984206DC0DF099FC0022FC
:1042F0003C4B0CF03DFA81E720003B4907F03FFEC4
:1043000083E700202C490AF031FD0B000221020056
:104310000091200007F072FF8DE7280033490AF072
:1043200004F8002838D12800314909F0FEFF0028A0
:1043300032D128002F4909F0F8FF00282CD128009D
:104340002D4909F0F2FF002826D128002B4909F059
:10435000ECFF002820D128001D4909F0E6FF0028C5
:1043600018D12800264909F0E0FF002812D12800C2
:10437000244909F0DAFF00280CD12800224909F06D
:10438000D4FF002806D12800204909F0CEFF0028DC
:1043900000D15AE71E4B01E0DB23DB00F8580DF09B
:1043A0003FFC00220F4B0CF0E3F952E7046A0100D6
:1043B00094060000F40600000000F0BF6C06000048
:1043C000526501005B65010084060000C406000020
:1043D000126A0100186A0100A1060000D40600005C
:1043E0005FEA000000408F401C6A01000D6A010076
:1043F000266A0100306A01003F6A01004D6A01002F
:10440000606A01006B6A01007B6A01008A6A010030
:10441000DC060000F8B51A4B0400C75C002F2DD154
:10442000DC2609F0E9FFDB25164AF600A051A35867
:10443000ED000133A350675106200AF0BFFA0028AF
:10444000FAD009F0D9FFA359C01A60512000FFF734
:1044500097FB2000FFF70AFAD723DB00E018483B60
:104460006259E35808499A4200DB084909F04CFFB9
:104470002000FFF79BFC0022054BE254F8BDC0462C
:10448000A40600008C060000266A01000D6A0100E7
:10449000A2060000F8B5194B0400C75C002F2CD110
:1044A00009F0AAFFD222164ED200A051A358154DF2
:1044B0000133A350675105200AF080FA0028FAD092
:1044C00009F09AFFA359C01A60512000FFF758FB6A
:1044D0002000FFF7F7F9D723DB00E018483B6259CB
:1044E000E35809499A4200DB084909F00DFF200012
:1044F000FFF75CFC0022064BE254F8BDA406000066
:10450000E4060000DC060000606A0100126A010097
:10451000A3060000F7B5040001910D200121DC265F
:104520000AF020FA0025F600019BDA179B18534089
:10453000AB4200DC7EE006200AF040FA002825D1DC
:1045400009F05AFFD423A051DB00E35C002B03D019
:104550003B4AA3580133A350DB270023FF00E3515C
:1045600006200AF02BFA0028FAD009F045FFA359DB
:10457000C01AE0512000FFF703FBD723DB003149CD
:10458000E01809F0C1FE2000FFF710FC05200AF03A
:1045900015FA002827D109F02FFFD4232A4FDB007A
:1045A000E051E35C002B04D0D222D200A3580133A7
:1045B000A3500023254AA35005200AF0FFF9002844
:1045C000FAD009F019FFE359C01A204BE05020003F
:1045D000FFF7D6FAD723DB001D49E01809F094FE57
:1045E0002000FFF7E3FB1B4B0121E018019B002B90
:1045F00019DD02F0D5FC1427C823DB00013BFDD1F7
:1046000001200AF0DBF900280FD1C823DB00013BB1
:10461000FDD101300AF0D2F9002806D12000FEF7C2
:1046200085FD0120FEBD4942E3E7013F002FE3D1B4
:10463000013579E72000FEF779FD0020F2E7C0465A
:104640008C0600004D6A0100E4060000DC06000054
:104650008A6A01005C07000010B56421FFF75AFF69
:1046600010BD000073B50400FFF77AF8FA212000AE
:10467000FEF77EF91E25002811D13C2676427821CE
:104680002000FFF747FF002809D131002000FFF785
:1046900041FF002803D1013D002DF0D10AE00125A2
:1046A0000F22054B0521E01801957823009206F0B2
:1046B0004DF9280076BDC0462C07000073B50400F4
:1046C000FFF74EF8FA212000FEF752F90025A84224
:1046D0000BD001250F22184B0521E01801957823F6
:1046E000009206F033F9280076BD1421002009F06D
:1046F0008CFD1430A84208DBA90020004942FFF7D6
:1047000009FF0028E5D10135EFE7FA212000FEF787
:104710002FF9051EDDD106001421002009F075FDDA
:104720001430B042DFDB2000B100FFF7F3FE0028B9
:10473000CFD10136F0E7C0462C070000F0B50400E9
:10474000002589B004910392002D00D06EE1200075
:10475000B949FFF7DFFE039B0500002B02D02000C4
:10476000FEF768F9002D00D119E12000DD26FEF7E3
:10477000DDFC09F041FE0023F600A051AF486322A2
:104780002518192128000093053306F02BFB28007B
:1047900006F094FF09F030FEDC27A359A84DC01A9B
:1047A00060510596FF0001200AF008F9002861D148
:1047B000A44B62599A425DDC09F01EFE059BE3584A
:1047C000C01A605120000393FFF722F806200AF078
:1047D000F5F8002825D109F00FFED423E051DB00C5
:1047E000E35C002B03D0984AA3580133A350DB2687
:1047F0000023F600A35106200AF0E0F80028FAD0C2
:1048000009F0FAFDE359C01AA0512000FFF7B8F9EA
:10481000D723DB008D49E01809F076FD2000FFF773
:10482000C5FA05200AF0CAF8061EBCD109F0E4FD5D
:10483000D222874BD200E050A3580133A350854BBE
:10484000E65005200AF0BAF80028FAD009F0D4FDA5
:104850007F4BE358C01A7F4BE0502000FFF790F9E0
:10486000D723DB007C49E01809F04EFD2000FFF75C
:104870009DFA98E7DC26D427F600FF0001200AF015
:104880009DF8002857D12000FFF75EFA06200AF0B5
:1048900095F8002823D109F0AFFDA051E35D002B6E
:1048A00003D0694AA3580133A350DB250023ED0050
:1048B000635106200AF082F80028FAD009F09CFD26
:1048C000A359C01A60512000FFF75AF9D723DB0023
:1048D0005E49E01809F018FD2000FFF767FA05208F
:1048E0000AF06CF80028C9D109F086FD584D6051D6
:1048F000E35D002B04D0D222D200A3580133A35091
:104900000023544AA35005200AF058F80028FAD092
:1049100009F072FD6359C01A4E4BE0502000FFF7BA
:104920002FF9D723DB004C49E01809F0EDFC2000FB
:10493000FFF73CFAA2E72000FEF7F8FB474AA3582E
:104940000133A350049B002B04DD01221900200039
:10495000FEF718F90025424B4249E5521633E0189C
:1049600009F0D2FC404906A802F05AFE06A802F05F
:104970003BFF3E4EA359C01A3D4BE05006A802F043
:1049800033FFA0512000FFF711FA0122394B20001C
:10499000E550394BE254FFF7F3F809B0F0BD364B60
:1049A000E35C002BF9D120003449FDF7E1FF314EE3
:1049B0000500A3595A1CA251002806D001252E4BF0
:1049C000E35C002B00D1BFE6E7E72D4B53432D4AB4
:1049D0009B182D4A934217D9A7590A2138000AF08B
:1049E00035FE002916D01421A0590AF02FFE002907
:1049F00004D12000FFF762FE0028DFD1A359642B09
:104A0000DDDD2000FEF7CEFE2000FFF725FE0028AA
:104A1000E2D0D3E7142138000AF018FE0029E8D0CC
:104A20002000FFF71FFE0028DDD0C7E7039B002B07
:104A300000D19AE6039D92E6D4FEFFFF2C0700000A
:104A4000D40600005FEA00008C060000306A010016
:104A5000E4060000DC0600006B6A0100940600001A
:104A6000A2060000386A0100D00A0020EC0600000F
:104A7000F40600006C060000A4060000DC0500003F
:104A8000CDCCCCCC9999991932333333F0B587B06A
:104A90000D0004001F00039209F0AEFCFA2106008D
:104AA00089006943049109F0A7FC049B801B98428C
:104AB00000D38DE0002F0BD0FA21322009F0A5FBA6
:104AC0000A220100002007F0F3FE0A2009F0CAFCC8
:104AD000062009F073FF002839D1039B002B02D078
:104AE00009F08AFC060009F087FCDC23DB00E050BB
:104AF000403BE35C002B03D03F4AA3580133A35053
:104B0000DB230022DB00E250062009F057FF051EE0
:104B10000BD1002FF8D0FA21322009F076FB0A22BF
:104B20000100280007F0C4FEEEE709F065FCDC2375
:104B3000DB00E3583149C01A0593DB23DB00E0506A
:104B4000203BE01809F0E0FB2000FFF72FF90520DB
:104B500009F034FF0028A6D1039B002B02D009F0F6
:104B60004BFC0600D423DB00E35C002B04D0D222F4
:104B7000D200A3580133A35009F03EFC204B214A38
:104B8000E0500023A350062009F018FF051E0BD1AA
:104B9000002FF8D0FA21322009F037FB0A22010059
:104BA000280007F085FEEEE709F026FC144BE358D9
:104BB000C01A144BE0502000FEF7E2FFD723DB00C1
:104BC0001149E01809F0A0FB2000FFF7EFF86AE7B1
:104BD0000E4B1422E0180123019318330521009392
:104BE0004B3305F0B3FE2000FEF7CAFF0022084B4E
:104BF000E25207B0F0BDC0468C0600009E6A01007C
:104C0000E4060000DC0600007B6A01002C070000BF
:104C1000A2060000F0B589B004AD06005E49280088
:104C200002F0FEFC280002F0DFFDDE23DB00F05086
:104C30005A4B5B4AF4185B4F5B4B3900F250200033
:104C400007F09DF9584B56492000F150390007F004
:104C500096F90123029301931833009378332D22A0
:104C6000FF330021200006F0EAF8504B4E4AB350C3
:104C70006B78092B03D83021200007F084F90A2231
:104C80006978200007F0F7F9494F2000390007F054
:104C900076F9AB78092B03D83021200007F073F99F
:104CA0000A22A978200007F0E6F93900200007F071
:104CB00066F9FA232978DB00C9180A22200007F0D8
:104CC000C0F93C49200007F05AF90A22E97820008F
:104CD00007F0D1F9384F2000390007F050F92B794F
:104CE000092B03D83021200007F04DF90A22297939
:104CF000200007F0C0F93900200007F040F96B7977
:104D0000092B03D83021200007F03DF90A226979E8
:104D1000200007F0B4F9002350221E212000009348
:104D2000643305F0F5FD200006F0C8FC062009F00C
:104D300045FE002814D1C8210122890007F0B8FDE2
:104D4000DE23DB00F15806A83C3902F0DFFC1248F4
:104D500006A902F019FC09F04FFBE023DB00F0503C
:104D6000052009F02BFE002814D1C821012289005A
:104D700007F09EFDDE23DB00F15806A83C3102F06F
:104D8000C5FC054806A902F0FFFB09F035FBE0234E
:104D9000DB00F05009B0F0BDD00A00202C07000065
:104DA00001002800AC6A01003C07000001003C0043
:104DB000B3690100BA690100E9690100F0B50400B6
:104DC00087B0E223DB00E35C002B00D14CE1A74B72
:104DD0000022E718012650231100380001960093A5
:104DE000783305F0B3FDA24DA24BA34963513800BF
:104DF00007F0D6F81C230196D0267A222421380009
:104E00000093983305F0A2FD642009F02BFB3800D5
:104E100006F054FC994BF6006351A359954A0A3B9E
:104E200003950592592B03D83800954907F0A7F848
:104E3000A359092B03DC3800924907F0A0F8D025CC
:104E4000ED000A226159380007F0FBF8642009F0F0
:104E500009FB380006F032FC052009F0AFFD002800
:104E600010D16359200001336351FDF7A2FD09F011
:104E7000C3FAE023DB00E050AF2362599B009A4263
:104E800000DD6351062009F099FD061E10D1D025E2
:104E9000ED0063592000013B6351FDF78AFD09F0E5
:104EA000ABFAE023DB00E0506359002B00DC6651D5
:104EB000E02509F0A1FAED006359C01A724B98423F
:104EC00000D87EE7E2230022DB00E2546F4B039A16
:104ED0006F49A350380007F063F8380006F0EEFB86
:104EE000FA20800009F0BEFA09F086FA6051380015
:104EF00006F0AFFB380006F0E1FB09F07DFA6359DC
:104F0000C01A644B984206D82000FFF783FE0A209F
:104F100009F0A8FAF1E7604B039A6049A350380002
:104F200007F03EF8380006F0C9FBFA20800009F0CF
:104F300099FA5B4BE35C002B00D18DE00125122335
:104F400038220521380001950093663305F0FEFCF8
:104F5000C82009F087FA380006F0B0FB0022502381
:104F6000CF261100380001950093783305F0EEFC50
:104F7000039B059A4B49E250380007F011F84A4B61
:104F8000039AF600A350A1590A223800474D07F0B2
:104F900058F84749380006F0F2FF0A2261593800F4
:104FA00007F04FF84349380006F0E9FF322009F0D6
:104FB00059FA380006F082FB062009F0FFFC049045
:104FC000002814D1A3590133A35109F015FAE023A5
:104FD000DB00E050A359182B01DD049BA351CF2324
:104FE000DB00E3586259934201DD01336351052030
:104FF00009F0E4FC061E13D163590133635109F033
:10500000FBF9E023DB00E0506359182B00DD66510B
:10501000CF22D2006359A158994201DD013BA35030
:1050200009F0EAF9E023DB00E358C01A164B984276
:1050300000D87EE700231A4A1F49A3541F4B039A46
:105040003800A35006F0ACFFFA20800009F00AFAFD
:10505000380006F033FB6CE72000FEF7AFF92000C4
:10506000FDF7B4FEFDF742FB07B0F0BD2C070000D2
:105070003C07000005002E00B86A010026008A00E7
:105080000B6A010062650100B80B000005004600D4
:10509000CA6A0100B70B000005006900D26A01006E
:1050A00011070000E36A01000F0046007C060000C3
:1050B000F56A010047650100FC6A010005005F0018
:1050C000F0B5040085B0062009F078FCBB4D00283F
:1050D00029D1053009F072FC061E24D1FA22B84904
:1050E000520007F0E5FB28222000B649FDF7CAFC74
:1050F000142231002000FDF7C5FC09F07DF9E02302
:105100000222DB00E050FF3210332000E252FFF7B2
:1051100055FEAD4BE35C002B00D048E1635D0B2BEB
:1051200043D90B23B9E0062009F048FC061E17D12D
:1051300009F062F9E023DB00E050635D3000013BE1
:105140006355C822A14907F0B3FB20002822A049DB
:10515000FDF798FC142231002000FDF793FCD8E7FE
:10516000052009F02BFC061ED3D109F045F9E023F8
:10517000DB00E050635DC822013363553000934982
:1051800007F096FB282220009249FDF77BFC1422B1
:1051900031002000FDF776FC8B4B625DE35C002B59
:1051A00078D0042A00D002E166558B4B3022E618F5
:1051B00001230193313300930A219633300005F027
:1051C000C5FB864B864A0393E250864A864FA25C13
:1051D000635D002A63D0002B03D13000834906F0C1
:1051E000CEFE635D012B03D13900300006F0C7FE0F
:1051F000635D022B03D130007D4906F0C0FE635D84
:10520000032B03D130007B4906F0B9FE635D042B0C
:1052100003D13000784906F0B2FE635D052B03D15F
:105220003000764906F0ABFE635D062B03D13000FB
:10523000734906F0A4FE635D072B03D1300071496A
:1052400006F09DFE635D082B03D130006E4906F029
:1052500096FE635D092B03D130006C4906F08FFE8A
:10526000635D0A2B03D13000694906F088FE635D57
:1052700068490B2B2FD0300006F020FA09F0BCF85B
:10528000E023DB00E358C01A634B984279D8200032
:10529000FFF716FF0C2A00D040E7635585E74A4A1E
:1052A000A25C002A1BD0002B03D130005B4906F022
:1052B00066FE635D012B03D13900300006F05FFE0E
:1052C000635D022B03D13000554906F058FE635D43
:1052D0005449032BCFD1300006F051FECBE7002B11
:1052E00003D13000504906F04AFE635D012B03D123
:1052F00030004E4906F043FE635D022B03D13000BF
:105300004B4906F03CFE635D032B03D13000494955
:1053100006F035FE635D042B03D13000464906F0EC
:105320002EFE635D052B03D13000444906F027FEB5
:10533000635D062B03D13000414906F020FE635D1A
:10534000072B03D130003F4906F019FE635D082B9F
:1053500003D130003C4906F012FE635D092B03D1F6
:1053600030003A4906F00BFE635D0A2B03D1300092
:10537000374906F004FE635D0B2B00D07BE735490F
:10538000A9E7354B039A3549A350300006F008FED3
:10539000300006F093F9FA20400009F063F820008D
:1053A000FEF70CF8C82009F05DF8FDF79FF9635D82
:1053B000032B00D8F9E603236FE7C0468A060000F6
:1053C000B80B000002020200FC060000C409000045
:1053D00002000200000202002C0700003C0700004F
:1053E0000A003C00FA060000D66401000B6B0100C5
:1053F000DA640100DE640100186B01002A6B010011
:10540000356B0100446B0100536B0100646B0100BC
:105410006E6B01007E6B0100DB0500008C6B0100F0
:10542000996B0100A66B0100AA6B0100B16B010032
:10543000B86B0100BF6B0100C66B0100CD6B0100B2
:10544000D46B0100DB6B0100E26B0100E96B010032
:10545000F16B0100F96B01000A006400016C0100AE
:105460003223F0B5050089B05B4206939D4B0026C0
:10547000EC186B461B8B0A2719000493062319317D
:105480005222200009B2019302960933009705F0D9
:10549000D6FC0323049A0193163212B20792023308
:1054A00050222000079900930296033305F0C7FCB1
:1054B0000123049954221E3102930193009320008A
:1054C00009B205F0BCFC3900069809F0D9FF0122A9
:1054D00001230240059218427ED16B461822995E44
:1054E0001123059A200002920197542200930F3352
:1054F0000F0005F0A4FC049A1223083A16B2059A8C
:10550000310020000092552205F002FA059A310080
:10551000122320000092562205F0FAF9049A08237B
:105520000E3A16B2059A310020000092542205F07E
:10553000EFF9059A3100082320000092552205F06A
:10554000E7F903260423059A079902920093632240
:10555000DB182000019605F072FC059A06230292E2
:1055600039006122009301960233200005F067FCA8
:10557000200006F0A3F8502008F074FF01230499DE
:105580000193193920334922009320003E3309B298
:1055900005F0DCF9544BEA5C544BEA540B3BEA58F7
:1055A000534BEA50534BEB5C002B07D1524BEB5C57
:1055B000002B03D1514BEB5C002B52D0062009F09D
:1055C000FDF90400052009F0F9F9002C01D00028AC
:1055D00047D12800FFF774FD049B5222991C112328
:1055E000200009B20197009302960D3305F027FCC5
:1055F000049B5B229F1F3FB23900122320000096BC
:1056000005F086F9390012235A222000009605F091
:105610007FF9049F08230C3F3FB239005C22200031
:10562000009605F075F9390008235B2220000096EA
:1056300005F06EF903270423049963220F3109B2A0
:1056400000932000DB180296019705F0F8FB062373
:10565000049900930831612209B20296019702333E
:1056600083E7062009F0AAF9002832D1053009F0B5
:10567000A5F9041E2DD1FA21C822890007F018F9D6
:10568000C820400008F0EEFEFA22FA2152008900FC
:10569000200007F00DF9C82008F0E4FE9622200053
:1056A0001749920007F004F9282228001549FDF750
:1056B000E9F9142221002800FDF7E4F908F09CFE26
:1056C000E0230122DB00E85010332800EA54FFF702
:1056D00075FB069B0F330693CD2B00D0C6E609B0B1
:1056E000F0BDC0462C0700008A0600008B060000B3
:1056F0000C070000FB060000FA060000FC06000094
:10570000B80B000002020200F8B53D4B0500C75C73
:10571000002F73D13B4B0321C418200005F0E4FE99
:10572000E823DB002000EF5005F093FF364E374BA7
:105730003749AB51200006F022FC0121200005F082
:10574000D3FE344B2000AB51334BE91806F017FC65
:10575000324B3349AB512E00200006F010FC31498A
:1057600020000C3606F00BFC2F49200006F007FC49
:105770003900300008F0F7FD0100200006F003FCBE
:105780000121300008F0EFFD0100200006F0FBFBD6
:105790000221300008F0E7FD0100200006F0F3FBD5
:1057A0000321300008F0DFFD0100200006F0EBFBD4
:1057B0000421300008F0D7FD0100200006F0E3FBD3
:1057C0000521300008F0CFFD0100200006F0DBFBD2
:1057D0000621300008F0C7FD0100200006F0D3FBD1
:1057E0000721300008F0BFFD0100200006F0CBFBD0
:1057F000200005F063FF2800FFF732FEF8BDC04629
:10580000FA0600002C0700003C0700000F003700DC
:105810000E6C010002008A004C06000002007800B5
:10582000136C0100066A0100176C0100F7B5040053
:10583000454B464EC518280005F00BFF444B280089
:10584000A351444BE11806F09AFB434B434FA3513D
:105850003900280006F0A4FB414B3900A351280071
:1058600006F09EFB012301934F331E2200212800E6
:105870000093503305F06AF83A4B2800A3513A4997
:1058800006F07DFB394BA351394EA35D002B03D1AC
:105890002800384906F073FBA35D012B03D12800D3
:1058A000354906F06CFBA35D022B03D12800334978
:1058B00006F065FBA35D032B03D12800304906F0F9
:1058C0005EFBA35D042B03D128002E4906F057FB95
:1058D000A35D052B03D128002B4906F050FBA35DE7
:1058E000062B03D12800294906F049FBA35D072BAD
:1058F00003D12800264906F042FBA35D082B03D103
:105900002800244906F03BFBA35D092B03D12800A6
:10591000214906F034FBA35D0A2B03D128001F495F
:1059200006F02DFBA35D0B2B03D128001C4906F0CC
:1059300026FB2000FFF794FD280005F08AFE2800D2
:1059400005F0BCFEF7BDC0462C0700003C07000078
:10595000010087004C0600000A001400196C0100C9
:105960000B0014000A002800236C01000A003C0010
:105970008A060000AA6B0100B16B0100B86B010040
:10598000BF6B0100C66B0100CD6B0100D46B010041
:10599000DB6B0100E26B0100E96B0100F16B0100C0
:1059A000F96B0100F7B55E4E0400835D002B00D05B
:1059B00085E05C4AA350A35D0122062B00D0A1E044
:1059C000584BE250584B594FE518280005F041FE5E
:1059D000574B2800E351574BE11806F0D0FA01234A
:1059E00001934F331E22002128000093503304F00E
:1059F000ADFF514B2800E351504906F0C0FA504B1F
:105A0000E351A35D002B03D128004E4906F0B7FAFD
:105A1000A35D012B03D128004B4906F0B0FAA35D2A
:105A2000022B03D12800494906F0A9FAA35D032BF4
:105A300003D12800464906F0A2FAA35D042B03D146
:105A40002800444906F09BFAA35D052B03D12800EA
:105A5000414906F094FAA35D062B03D128003F4983
:105A600006F08DFAA35D072B03D128003C4906F010
:105A700086FAA35D082B03D128003A4906F07FFA85
:105A8000A35D092B03D12800374906F078FAA35DFE
:105A90000A2B03D12800354906F071FAA35D0B2BC0
:105AA00003D12800324906F06AFA2000FFF7D8FC3B
:105AB000280005F0CEFD280005F000FEF7BD012B03
:105AC00000D176E7022B13D0032B15D0042B16D070
:105AD000052B00D06FE70122124BC250FDF726FBC9
