:10000000D82D002089020000850200008702000030
:1000100000000000000000000000000000000000E0
:100020000000000000000000000000008502000049
:100030000000000000000000850200007D020000BA
:100040008502000085020000850200008502000094
:100050008502000085020000850200008502000084
:100060008502000085020000850200008502000074
:100070008502000085020000850200008502000064
:100080008502000085020000850200008502000054
:100090008502000000000000000000008502000052
:1000A0008502000085020000850200008502000034
:1000B00000000000074B1A7DD107FBD52022FF323C
:1000C0001A83054A4008D8611A801A7DD107FCD5E9
:1000D0007047C0460040004102A5FFFF10B5041C58
:1000E000044B9C4205D8201C0134FFF7E3FFFF348A
:1000F000F6E710BDFFFF030030B50023934204D0A4
:100100009C000D5901330551F8E730BDF0B5114C95
:1001100080256368AB436360002A19D0151E102D3B
:1001200000D910250C4B521B2380237DDE07FCD504
:1001300000239E008F5901338751AB42F9D19B00B8
:10014000C018C918054B2380237DDD07FCD5E3E7E4
:10015000F0BDC0460040004144A5FFFF04A5FFFFDD
:1001600038B5041C0D1C0023E958E258914205D112
:100170008022043352009342F6D107E0201CFFF79F
:1001800099FF201C291C4022FFF7C0FF38BD00004A
:10019000024B5B785BB2002BFADB7047000C00402F
:1001A000024BDB68DA06FBD57047C046000800400A
:1001B000F8B5264B1E215A6802268A43244C324346
:1001C0005A60A660FFF7E4FF224B234D6360FFF700
:1001D000DFFFAE84FFF7E4FF204B1B689B0E3F2B35
:1001E00000D11F231E4A9B0213431E4A0026EA62C7
:1001F000AB62AE84FFF7D4FF1B4B0227AB84FFF743
:10020000CFFFAB8C3B43AB84FFF7CAFF63883F2231
:1002100093431F43678062888023DB01134363801D
:10022000A660FFF7B5FF114B6360FFF7B1FF104BFE
:10023000104AC0215A60104A0906106A0002000ADA
:100240000143116207229E601A60F8BD0040004120
:10025000000C0040060001000008004024608000FF
:10026000FF01000080BB0A1C2405000000070300FA
:1002700010E000E0E703000000ED00E008B500F04A
:10028000DDF808BDFEE7FEE72248234970B5884245
:1002900001D0002301E0214B07E0214CCA18A24203
:1002A000F9D2C45804331460F7E71E4A191D043B01
:1002B000934203D200221A600B1CF6E71A4A1B4B2A
:1002C000FF218A439A601A4B02225A62194B03217A
:1002D000D8780C2488431043D870DD780820A543D3
:1002E0000543DD70144B30269D7BB54320263543F6
:1002F0009D739D7BA54328439873987B8843024355
:100300009A730E4B80215A680A435A6000F0C2FE6D
:10031000FEE7C046441D000000000020D40100207C
:10032000D0010020D80D00200000000000ED00E00A
:10033000FC70004100500041004800410040004175
:10034000F0B5124D00236A889A421AD00B0A584021
:100350004000285A0902484080B2F0BD17B256004A
:10036000B2B2002F02DA0A4A5640B2B2013CA4B23D
:10037000002CF3D15C002A530133802252009342B7
:10038000E4D01A0292B20824E8E7C046D001002067
:100390002110000070B5D318157801328024416017
:1003A0000326013EFDD12C4200D101600626013E0C
:1003B000FDD10160641004D0E4B20226013EFDD1FB
:1003C000EDE79A4200D2E7E770BD000201238342C5
:1003D00002D2C0460133FAE77047F0B51C23061C71
:1003E00000200D1CDD400F242C40002A05D1002CDC
:1003F00003D1002B01D0002808D0251C471C303524
:100400003018092C00DD07350570381C043B1C1D15
:10041000E7D1F0BD054A064B1A60BFF34F8F054A7E
:10042000054BDA60BFF34F8FFEE7C046EF6916F069
:10043000FC7F00200400FA0500ED00E010B5194A29
:1004400019491368013313600A68002A0CD0174C4D
:100450001019834203D180241548A4028461934279
:100460001FD100230B601CE0DBB2124A002B11D11C
:100470000F4B80218902996111780F4B081C0A38B3
:10048000C0B2F02802D91878404218701B78C918F9
:10049000117006E012789A4203D18022044B920236
:1004A0005A6110BDD0030020D403002018FCFFFFC8
:1004B000004400410100002000000020074B1A68A2
:1004C000074B1968914207D2FA21C90052181A60E5
:1004D0008022044B92025A617047C046D00300202C
:1004E000D403002000440041024B802292029A6013
:1004F0009A6170470044004107B5020A01AB1A70C7
:10050000020C5A7098700D4B40229A6001205A617B
:10051000FFF75BFFEFF31083002B08D172B608489A
:10052000402101AA0323FFF735FF62B605E0044826
:10053000402101AA0323FFF72DFF07BD004400411E
:100540001444004108B50020FFF7D6FF054A064BCA
:100550001A60BFF34F8F054A054BDA60BFF34F8F28
:10056000FEE7C046EF6926F0FC7F00200400FA0594
:1005700000ED00E008B50B4B1A68002A0ED10A49BD
:1005800019600A4B186801301860094B1968002976
:1005900006D0884204D31A60FFF7D4FF013A1A60EC
:1005A00008BDC046D8030020DC050000040A002076
:1005B000080A002010B5344B2021DA6901200A43D3
:1005C000DA61324B06241A7802431A70304B0F223C
:1005D0001978914319701978214319702D490C78B5
:1005E0002043087019780A401A701A7860210A436B
:1005F0001A70294B294A5A805A78D209FCD1284BC3
:1006000001211A780A431A709A78D007FCD4254938
:1006100008688203D20E1F2A00D1052290011C8D8A
:10062000214A224002431A85086842021F20D20E46
:10063000824200D11D221C8D0240844322431A8530
:100640000A689201520F072A00D10322188D110364
:10065000164A02400A431A8519787F220A401A7006
:100660001A78042112480A431A7058621A890C2118
:100670008A431A811A8901218A431A818022002122
:10068000520001F054FA10BD0004004058440041EB
:100690003C44004159440041000C00400640000029
:1006A00000500041246080003FF8FFFFFF8FFFFFF4
:1006B000500A0020F7B51C1C304B051C5B6A0F1C50
:1006C000161C0193002C05D1442454432C4BE418F0
:1006D000FFF750FF6178237899420FD25B1A9F424F
:1006E00000D91F1C002D46D061180431281C3A1C6B
:1006F00001F014FA6378FB1863703CE00199720111
:100700005318A178002911D1211D19605968890B4E
:100710008903596058681B49014059601A494020B3
:1007200056183179014331710121A170134900201C
:10073000561816495218127AD1071DD55A68A17851
:10074000D2B22270022903D11968201D01F0E6F906
:1007500023789F4200D91F1C002D06D06770211DF1
:10076000281C3A1C01F0DAF900E065700123FF361D
:1007700033720023A370381CFEBDC04600500041F8
:10078000500B0020FF3F00F000510041FF5000419E
:1007900008B50023FFF78EFF08BDF8B5051C0C1C3B
:1007A000161C1F1C002C08D0281C211C321C3B1CB2
:1007B000FFF780FF241A2D18F4E7F8BDF8B50D1CDB
:1007C000214956014C6A84463419002B05D06369CF
:1007D000071C5B005B0863611BE06369291C5B000D
:1007E0005B0F0333D9400AD0043A531E9A41D30712
:1007F0006269071C520052081A43626109E04427EB
:100800005743124B6146FF180437381C2A1C01F06D
:1008100085F927616369AA049B0B920C9B03134320
:10082000636162690A4B0B4913406361064BF2181E
:100830007618022333728023B371131CFF331B7AA3
:100840009907FAD5281CF8BD00500041500B002034
:10085000FF3F00F0FF50004108B50023FFF7AEFF57
:1008600008BD000008B5044B1B88994200D9191C2B
:100870000022FFF7F1FF08BDE003002007B50021CB
:10088000684607300A1CFFF7E7FF07BDF0B5D64CF6
:100890009FB0FFF76FFEA28B08231A4006920698BE
:1008A000D24A002827D0A38311218023A37251703C
:1008B000402191715371CE4BCE4C5D68C0202540D4
:1008C000800505435D605D692C4020435861CA483E
:1008D0001860CA4818615C68C94820408024A40296
:1008E000204358605868800B80035860C54B517195
:1008F00000221A7049E2137A1020034200D144E228
:10090000C14910720B7907938E794D790596CF798D
:10091000AC463B021E43B3B2029603934E7A0B7A67
:1009200036021E43B5B201960495CD7A8B7A2D021C
:100930001D43B64B66461D80402536025571331C5B
:10094000079E3343B24EB34200D1BCE132D881217D
:1009500049008B4200D1D0E114D8822B00D196E11E
:1009600008D8802B00D18EE1812B00D00BE20CA89F
:100970000023A5E1802149008B4200D103E202213E
:10098000FF31CCE0A3498B4200D1F1E105D8A2218F
:10099000FF318B4200D0F6E1EAE1C02189008B42B1
:1009A00000D1F0E100D9EBE1B02189008B4200D108
:1009B00062E1E8E198498B4200D1E1E100D9A4E08D
:1009C00096498B4217D8D021C9008B4200D3B8E09A
:1009D00093498B4200D1CBE1A021C9008B4200D0CA
:1009E000D1E1FFF74BFF029D80235B422B437E4EFC
:1009F000DBB2B372C9E18821824809018B4200D180
:100A0000B4E1902109018B4200D0BCE1029F032692
:100A10000770FFF733FFA0235B00E654744B754A61
:100A2000586CC02189051040084358644620FF30A7
:100A300025547C481864902047003020E055586BBE
:100A400092271040084358637F008020E0554427D8
:100A50007F42BC46734FBC4467461F63B0277F008C
:100A6000E5555F6F17405F67B2277F00E055D027DD
:100A70007F00E6551F1CA4373E6816400E433E60BB
:100A8000A627FF37E555CC27BC46664FBC441F1C44
:100A9000A03766463E60C0277F003026E6551F1C03
:100AA00094373E6816400E433E60C2277F005D4E7D
:100AB000E0551F1C883690373E60E0277F004426B3
:100AC000E655E2277F00E555E0551F1CC4373E6818
:100AD00016400E433E601F1CD4373E6816400E433E
:100AE0003E60F02744267F00E655F2267600A555A5
:100AF000A055181CE4300468F43314400C4304601F
:100B000018680240114319603FE147498B4200D108
:100B100036E108D845498B4200D131E144498B4246
:100B200000D12DE12FE143498B4200D117E1424929
:100B30008B4200D117E141498B4200D023E140486C
:100B40001AE1039880235B00984202D13D481221AC
:100B500013E1039980239B00994202D13A489921DD
:100B60000BE1032F78D1059D032D00D90BE10CACCF
:100B7000201C0021482200F0DAFF059E6770002E3D
:100B800005D1042309222370A270E37029E008AE86
:100B90002E4B321C83CB83C21B68002513602F1C95
:100BA0002B4A7359D01919680122FFF716FC043536
:100BB0003F18102DF4D1264E0025F555124F254B28
:100BC000BA799200D658301C00F0B9FF01304000CD
:100BD0002070735D002B04D06A00A2189370013559
:100BE000F7E72178201CC8E000500041FF50004189
:100BF000500A0020FFFFFF8F100A0020540B002036
:100C0000FF3F00F0DC0300200C0A0020E00300207E
:100C100002030000A102000021090000810600007B
:100C2000A1030000DC0B002021200000210A0000AD
:100C3000210B000021220000A1FE0000A1210000E4
:100C400088010020B01B0000EC0000204C1B0000BD
:100C5000E2030020A01B00000F2F02D14E483921D3
:100C60008BE0212F02D14D48092186E0222F00D0B0
:100C700089E04B48212180E00498072800D082E0D9
:100C80004848AA2179E0069F0CA8078019E0019E38
:100C900050230699049F0CA81E400F2301801F407B
:100CA000072F70D808377F01002E04D03E4ABF18A6
:100CB000BB799B0603E03C4BFF18BB79DB06DB0FDF
:100CC0000380022159E0049F039D0F231F40002D44
:100CD00059D17B1E062B56D8019E7F239E43083791
:100CE000F6B27F01002E04D02F4E2023BF197B7156
:100CF00046E02D497F18787142E0049F0F231F4082
:100D0000039B002B3FD17B1E062B3CD8019E7F23EB
:100D10009E43F6B27F01002E10D0234E2348BB190C
:100D20003F18F979202211422AD07A713A7A2A4260
:100D300026D04022FF331A7202220EE01B4A1A49C3
:100D40007B18BF18FA7902421AD07871397A2022BA
:100D5000114215D0FF331A7201225A7110E0144B60
:100D6000029D5D700CE00CA800230380012104E0CB
:100D700000230C930D930CA80821FFF773FD04E0EA
:100D8000FFF77CFD01E0202393710A4B1878431E86
:100D90009841C0B21FB0F0BD0400002090010020B7
:100DA0005C1B00004000002000500041FF5000414B
:100DB000DD030020DC03002008B5FFF7FBFB054A3C
:100DC00000231370044A02215370044B1A780A431B
:100DD0001A7008BDDC030020DD0300200050004134
:100DE00010B501220C1CFFF737FD201C10BD10B5FB
:100DF00001220C1CFFF730FD201C10BD38B5051C6E
:100E00000C1CFFF743FD0023984205D0281C211C31
:100E10000222FFF7BDFC031C181C38BD38B5051CA9
:100E20000C1CFFF733FD0023984205D0281C211C21
:100E30000222FFF7B2FC231C181C38BD10B5031C9E
:100E40001C1A944208DA0C78002C01D0013100E021
:100E500020241C700133F3E710BD00008022F8B598
:100E60009200051C0C1C081C002100F060FE002DE7
:100E70000CD13E22201C444900F050FEFF23552295
:100E80005B00E254414BAA22E2547CE0402D24D87E
:100E90006A1E1F2A00D9203A002A02D0120200231B
:100EA00013E0F02323700123FF21E15401330A2BC7
:100EB000FAD1F3E7364882420DD08AB2E2520A1CD8
:100EC0000233802189008B425DD03248151F511CAE
:100ED0008542F4D8EEE7304AF0E7442D2BD8412D77
:100EE00051D12949201C2B310B22FFF7A7FF2823C2
:100EF000E3720025294F2E01BB19D8682034002841
:100F000002D000F01CFE01E080200003030A63779A
:100F1000030CA377AB1C9BB22077A376000E1B0AB1
:100F2000E077E376B919201C0B220135FFF786FF25
:100F3000032DDFD127E02B1C453B012B0AD8174A94
:100F40001B01D318DD68281C00F0F9FD291C021CC8
:100F5000201C16E0124B473D2902994213D8114B31
:100F6000114A2360114B201C6360FE235B00E2509A
:100F700080238022DB0052006561A361E160226171
:100F8000203000F0CBFDF8BD8B1C0000FF010000FD
:100F900003040000FF030000FFFF0000CC1C000062
:100FA000FFFF03005546320A306FB10A57515D9E6C
:100FB00070B50D1C161C09682E4A1C1C002391429A
:100FC0000AD12D4A6968914206D1FE235B002B4A63
:100FD000EB589B185A425341002B49D0A968012372
:100FE000194211D12A6980235B009A420CD1E8682A
:100FF000C3B2002B08D1224BC218224B9A4203D80D
:10100000291C2031FFF7ACF8002C29D0AB69002B4C
:1010100026D021681C4A994206D0934201D8002963
:1010200001D001235B4223606B69934220D80721E2
:1010300019400122DB088A40E318D1B21A7A0A4229
:1010400004D10A431A7263680133636062682368DB
:101050009A420DD3002E0BD10C4B1A681E3205E0BC
:10106000002E05D1094B1A682D32FF32084B1A6049
:1010700070BDC0465546320A57515D9ED0904EF520
:1010800000E0FFFFFFDF030063040000040A00200C
:10109000080A002070B5384EB368002B00D0FEE778
:1010A000FFF722FA354B36481D68F8232A189B02B1
:1010B0009A4238D8334B344A1968344C344B9142F5
:1010C0000ED11978334AC80702D42168914207D05B
:1010D000314B22601A68314B2D32FF321A6022E008
:1010E0001978012319400FD120682D4A274B9042CF
:1010F00001D1196017E018682649884204D0FA2007
:101100001A604000FFF761F9002323608022254B1D
:1011100092025A6180239B011B6883F30888802315
:101120009B01B3602847FFF743F8BFF35F8F62B6B8
:10113000FFF742FE8020C002FFF7DEF91A4B0A22B9
:101140001A701D1CFFF7A2FB184C00280DD0237845
:10115000DBB2002B07D1114A8020C0001360FFF7DB
:10116000CBF901232B70012323702378002BE9D0C6
:1011700000F09EFAFCE7C04600ED00E0042000000D
:1011800000E0FFFFB42000007CB0EE87FC7F002071
:1011900038040040EF6926F0040A0020080A002005
:1011A000EF6916F000440041000000200304002015
:1011B00010B5054C0021201C122200F0B8FCF023D1
:1011C00023700A23E37110BDC406002008B5FFF7A1
:1011D000EFFF024B00221A7308BDC046C001002079
:1011E000F8B5051C0E1C171C0024AB689C4210D2DD
:1011F0008021AA78E8688900331CFFF7CEFA8023A3
:101200005B01E018E96801223B1CFFF7D1FE0134C5
:10121000EBE7F8BD70B50D1C141C231C061C012146
:1012200000202A1CFFF746FA0023984206D0231C10
:10123000301C1F212A1CFFF73DFA0123181C70BD2A
:1012400008B503480D210422FFF706FB08BDC04680
:10125000C001002008B50B490B4B4A7908791202EE
:1012600002438879C9790004024309060A43110A36
:101270001A715971110C120E9971DA71FFF7E0FFB2
:1012800008BDC0460C040020C001002038B504226F
:101290000D1CFFF7E1FA154CA8420FD0FFF788FFAD
:1012A00001232373124B04229A700022DA701A7100
:1012B0005A719A711A735A73FFF7CCFFFFF786FFC2
:1012C000617A237A09021943A37A1B041943E37A4A
:1012D0001B061943491B0B0A217263720B0C090E82
:1012E000A372E172FFF7B6FF38BDC046C00100200F
:1012F000C406002070B5194D0021041C1422281CBE
:1013000000F015FC281C1649002C04D0021CCD7DD1
:101310000832082302E0CD7C021D04234E7C3F21CD
:1013200031401C2901D03F2907D11C2111700A210D
:1013300051700C330521D170DBB2191CAB4200D9BE
:10134000291CC9B2002C03D0023B1B02038001E020
:10135000013B0370FFF79AFF70BDC046D80600201E
:101360000C040020F7B52B496B464A7C6C46DA71B9
:101370008A7C6B469A71CA7C6B465A710A7D01ABB6
:101380001A708B7D02346370CB7D051C23700026A0
:1013900023889E4238D2FFF779FA002838D01E4FB2
:1013A000002D0BD0019A391CB018FFF757FD802192
:1013B000381C89000422FFF74FFA0FE08021381C07
:1013C000890005222B1CFFF7E8F9019B391CF01856
:1013D0002A1C124BFFF7ECFDFFF770F8104901369D
:1013E0004B7A0A7A1B0213438A7A12041343CA7A8D
:1013F000120613430B4A9B181A0A0B724A721A0CF4
:101400001B0E8A72CB72C3E7FFF7E0FEFFF722FFE5
:10141000F7BDC0460C040020C40400202C040020AA
:10142000C001002000FEFFFFF0B585B000F046FBD4
:10143000464D0521281C0022FFF7ECFE002800D1B4
:1014400081E06F7A2B7A3F021F43AB7A404C1B043A
:101450001F43EB7A00261B061F433B0A63723B0CBB
:10146000A3723B0E2772E372EB7B1E2B43D00CD88A
:10147000122B29D004D8B3423DD0032B1CD050E00E
:101480001A2B32D01B2B36D04BE0282B36D00BD862
:10149000232B37D0252B44D12E4880239B02436039
:1014A0002D4B082103601DE02F2B24D05A2B1ED07A
:1014B0002A2B36D1301C22E0EB7C191C122B00D9D0
:1014C0001221C9B225480DE0254C2649201C0830C0
:1014D0001822FFF7B3FCEB7C191C242B00D9242124
:1014E000C9B2201CFFF7D2FE2DE0301C00E0012025
:1014F000FFF700FF27E0FFF769FE22E00120FFF77A
:1015000031FF20E00C2501A817492A1C00F006FB3A
:10151000AF4203D925726672A672E67201A80C2149
:10152000E0E7FFF745FE0A4A012313730B4B052240
:101530009A700022DA701A715A719A711A73202205
:101540005A73FFF787FE05B0F0BDC0460C040020BB
:10155000C00100200404002000001F3FC40600203A
:101560009C010020941B0000FC1C000072B6BFF31D
:101570005F8F044B044A9A829A83044B00229A603C
:101580007047C04600500041FF03000000ED00E03E
:10159000F0B5C5B00DAD041CFFF7E8FF00214422F3
:1015A000281C00F0C4FA002198221EA800F0BFFAFF
:1015B00062780223AB700F231A406270A27805AEE6
:1015C0001340A370284B00270593636827480693B0
:1015D000E1681EAB012207973773FFF7E9FC201C77
:1015E000291C1EAAFFF7FCFD6278301C0D21012387
:1015F000FFF7E4F805AEA178301C2A1CFFF70AFEBD
:10160000002807D11A4B7E1C9F4201DDFEF79AFF8E
:10161000371CEFE7144B01AF019373687B60B3682D
:10162000BB6000233B73F37B002B14D02A2B10D11B
:10163000B27D6B46DA70F27D201C9A705E88291CA0
:10164000A6601EAAFFF7CCFDBB6876029E1BBE609B
:1016500001E0FEF7DFFE6278381C0D210123FFF761
:10166000ADF80026D4E7C04653425355FF0F0000A3
:10167000F824010010B5EFF30883064A13600368ED
:1016800083F308884468A047024B1B6883F30888EB
:1016900010BDC046CC0D002007B5011C01226846D4
:1016A000FEF79BFE68460821FFF79AFB07BD000086
:1016B000F7B5864C00232360854B7A221A70FFF71A
:1016C000B3FE844D4021281CFFF798FB824B00227B
:1016D00018602A54904201D0FEF7F0FE7F4A804BFA
:1016E000002115601960151C1F1C7B4B3A68186897
:1016F0008242E4D229680B788C46FF2B00D1E1E0CE
:10170000784E232B00D0B8E071490B78532B2BD1A6
:10171000904217D961463368013201313A6029603D
:10172000821A9A4200D91A1C6F4E2068326000F06B
:10173000F5F9336839685A1829683A60CA182A6076
:101740006A4A13703B68674A013B3B602B6811682B
:10175000013B2B60654B1B788B4203D2C91A206872
:10176000FFF75CFBC04681E0522B04D13168206852
:10177000FFF73DFB7AE04F2B03D1336822681370EB
:1017800074E0482B03D1336821680B806EE0572B3F
:101790000AD1574B22689A4202D10020FEF7ACFED4
:1017A000236832681A6061E06F2B01D1206819E06C
:1017B000682B05D12168301C0B880221336053E06F
:1017C000772B05D12368301C1B68042133604BE064
:1017D000472B09D13068FFF74DFF464B1B78002B94
:1017E00044D0454801213FE0542B3FD04E2B3DD003
:1017F000562B02D141482A2136E0582B04D13068BB
:10180000FEF76CFC3E482EE0592B0DD132683D4B63
:10181000002A02D122681A6004E019689208206840
:10182000FEF774FC38481EE05A2B1FD12368009342
:10183000009933680026CB1801930099019A9142D0
:1018400009D0009A311C1078FEF77AFD009B061C27
:1018500001330093F1E701212C48FFF7C1FA301C56
:10186000FFF71AFF2A480321FFF7BAFA18497A232B
:101870000B701C4B00221A6021E01A1C303AD1B2C6
:10188000092904D831680B011A43326017E01A1C89
:10189000413A052A01D8373B04E01A1C613A052A6F
:1018A00004D8573B31680A01134307E02C2B02D1BF
:1018B0003268226001E006490B70002333602B6818
:1018C00001332B603B6801333B600EE7C80D0020FD
:1018D0007C0D0020840D0020740D0020780D002068
:1018E000800D0020D00D0020D40D0020700D0020B0
:1018F0000CED00E0F0060020321D0000081D000085
:10190000341D0000EC060020381D00003C1D0000C6
:101910003E1D0000F8B5031C041C47331A78002054
:101920004021231CFEF7C6FE002801D1002019E04B
:1019300026790023237073B2002BF7DBA51DE88FF7
:101940003F27374048302018611D3A1C00F0E6F868
:10195000E88F3F23381880B29E4301D1E887E5E73E
:101960000023EB87F8BDF0B593B0061C0C1C019268
:101970001F1C3F25AC4203DC251C002F00D1402753
:101980002B1C3B436A4668461372311C2A1C0930E3
:1019900000F0C4F8019B02A8DAB240210123FEF74F
:1019A0000DFF7619641BE4D113B0F0BD08B5031C1C
:1019B0004833473002780431181C0023FFF7D3FF67
:1019C00008BD0000F7B5041CFFF7A4FF00286FD086
:1019D000231C4833A06C9A8801381A8000225A8050
:1019E00008285FD800F090F8130521246027443BB5
:1019F0003400304E301C00F0A2F8051C201C311CB5
:101A00004C302A1C00F08AF8201C291C4EE00123CF
:101A1000E36480235B0023658023DB006365A023F0
:101A20005B00A365201C102140E0FEF78BFD3BE02E
:101A3000FEF7F0FC38E0201C0021FFF7B7FF206D17
:101A40001D4B984234D9211C5431FEF789FB2FE0FD
:101A5000211C206D5831626DFEF74EFB24E0656D50
:101A6000201C216D4C302A1CFEF746FBA90017E014
:101A7000676D256D0026BE4211DA6B1CFF330193A2
:101A800000212878FEF75CFC019B0135011C9D427A
:101A9000F7D17300E3184C3318800136EBE7790077
:101AA000201C03E001225A80201C0021FFF77EFF4A
:101AB000F7BDC0462D1C0000FF1F0000074808B5F9
:101AC000031C473306221A70FFF77CFF04480722E5
:101AD000031C47331A70FFF775FF08BDF40600209A
:101AE0007C08002010B5E2B0041CFFF73FFDC422C3
:101AF00068460021520000F01AF86B4647331C700C
:101B00006846FFF75FFFFBE702B4714649084900EA
:101B1000095C49008E4402BC7047C04610B50023E2
:101B2000934203D0CC5CC4540133F9E710BD031CCD
:101B30008218934202D019700133FAE770470023EC
:101B4000C25C0133002AFBD1581E70470CA08000F4
:101B500040A0800044A0800048A080000697FF09B4
:101B600001A101150026FF007508954009018102B9
:101B700095400901910295010901B102C0000000E0
:101B8000416461667275697420496E64757374721C
:101B90006965730046656174686572204D300000A8
:101BA00000000000801B0000941B0000E2030020E6
:101BB00012011002EF0201409A231B0001420102B0
:101BC000030100003C21646F6374797065206874C0
:101BD0006D6C3E0A3C68746D6C3E3C626F64793E8D
:101BE0003C7363726970743E0A6C6F636174696FF1
:101BF0006E2E7265706C6163652822687474703A29
:101C00002F2F6164616672752E69742F33343033FF
:101C100022293B0A3C2F7363726970743E3C2F6229
:101C20006F64793E3C2F68746D6C3E0A00554632F5
:101C300020426F6F746C6F616465722076322E3053
:101C40002E302D61646166727569742E352053469D
:101C50004857524F0D0A4D6F64656C3A20466561D6
:101C600074686572204D300D0A426F6172642D49AF
:101C7000443A2053414D443231473138412D466575
:101C800061746865722D76300D0A00EB3C90554604
:101C900032205546322000020101000240003E1F62
:101CA000F82000010001000000000000000000001A
:101CB00000294200420046454154484552424F4F98
:101CC000544641543136202020000000494E464FF2
:101CD0005F554632545854002D1C0000494E44456F
:101CE0005820202048544D00C41B00004355525238
:101CF000454E542055463200000000000000000808
:101D000000001F400200020076312E31205B41723C
:101D10006475696E6F3A58595A5D204A756C203166
:101D20003720323031382031353A30313A31370AC4
:101D30000D000600580A0D00590A0D005A00230A2A
:101D40000D00000001C80000050F39000218100541
:101D50000038B60834A909A0478BFDA0768815B6CF
:101D600065000101001C100500DF60DDD88945C752
:101D70004C9CD2659D9E648A9F00000306AA0002C7
:101D8000000000000A00000000000306AA0008008E
:101D900002000400A0001400030057494E555342AE
:101DA00000000000000000000000840004000700A4
:101DB0002A00440065007600690063006500490060
:101DC0006E007400650072006600610063006500CB
:101DD00047005500490044007300000050007B009C
:101DE000390032004300450036003400360032002E
:101DF0002D0039004300370037002D003400360035
:101E0000460045002D0039003300330042002D000C
:101E100033003100430042003900430035004100E7
:101E200041003300420039007D0000000000000046
:101E30000902990005010080FA080B000202020164
:101E40000009040000010202010005240010010441
:101E50002402060524060001052401030107058369
:101E6000030800FF09040100020A000000070581C1
:101E700002400000070502024000000904020002BF
:101E800008065000070584024000000705050240CF
:101E90000000090403000203000000092100010002
:101EA00001222100070586034000010705060340C3
:101EB00000010904040002FF2A010007058703400E
:101EC00000010705070340000100000000C20100F7
:101ED00000000800090403000203000003000000E2
:101EE000008002022000000000000000000000004E
:101EF00000000000000000000000000000000000E2
:101F0000312E3030534253550000000000000000D5
:101F100000000000000000000000000000000000C1
:101F200000000000000000000000000000000000B1
:101F300000000000000000000000000000000000A1
:101F40000000000000000000000000000000000091
:101F50000000000000000000000000000000000081
:101F60000000000000000000000000000000000071
:101F70000000000000000000000000000000000061
:101F80000000000000000000000000000000000051
:101F90000000000000000000000000000000000041
:101FA0000000000000000000000000000000000031
:101FB0000000000000000000000000000000000021
:101FC0000000000000000000000000000000000011
:101FD0000000000000000000000000000000000001
:101FE00000000000000000000000000000000000F1
:101FF00000000000E51A0000911500002D1C0000F3
:1020000000800020556300003F6300003F63000034
:1020100000000000000000000000000000000000C0
:102020000000000000000000000000003F6300000E
:1020300000000000000000003F630000A9630000F2
:102040003F6300003F6300003F6300003F63000008
:102050003F6300003F630000C52C000041630000A7
:102060003F630000ED4600003F6300003F63000057
:10207000752800003F6300003F6300003F630000DD
:102080003F6300003F6300003F6300003F630000C8
:10209000000000003F6300003F6300003F6300005A
:1020A0003F6300003F6300003F6300003F630000A8
:1020B0000000000010B5064C2378002B07D1054B1B
:1020C000002B02D0044800E000BF0123237010BDA4
:1020D000D0020020000000005CCE0000044B10B5D0
:1020E000002B03D00349044800E000BF10BDC046E8
:1020F00000000000D40200205CCE0000F8B506000D
:102100000D000024094F7B88A3420DD92100320025
:10211000380002F0B4FA380002F082F901342800E5
:1021200004F080F9A4B2EDE7F8BDC0462803002012
:102130001FB50C4B0B220293A8230193183B00936D
:102140000C21863B084801F05DFB084CD2230F228E
:102150000821200002F07CFA2000054A054904F01D
:10216000A3FC1FBD80841E00EC0200202803002079
:10217000000000206143000037B5E121264D09022F
:10218000280002F0E7FE01210D2004F0FDFA234CA7
:10219000200002F0F3F8200002F042F9204C21491F
:1021A000200000F083FF002804D128001E4902F01F
:1021B00015FBFEE71D4A1E49684601F073F86946A3
:1021C000200000F089FF1B4C200001F04FFBA2898A
:1021D0000E25605F131C12B2E189824200DD0B1CE8
:1021E0001AB2D30F9B18144A20005B10032113600E
:1021F00001F080FD002320006361104902F0A1F886
:102200000121200002F096F8200001F058FB200088
:1022100001F08AFB37BDC046200B002028030020B8
:10222000200300204003002014B7000026B7000060
:102230002FB70000EC0200201C03002070B7000044
:10224000F0B587B000210D2004AD04F0CDFA2800D0
:10225000954900F08DFF954F954C964E200031002A
:10226000276102F0A9FA31002000276102F0A4FAE8
:10227000012302930193183300937833FF332D2207
:102280000021200001F0FEFD8B4B23616B78092BB0
:1022900003D83021200002F093FA0A226978200046
:1022A00002F0FDFA854E2000310002F085FAAB788D
:1022B000092B03D83021200002F082FA0A22A978E3
:1022C000200002F0ECFA3100200002F075FAFA2347
:1022D0002978DB00C9180A22200002F0D0FA7849D8
:1022E000200002F069FA0A22E978200002F0D7FA09
:1022F000744E2000310002F05FFA2B79092B03D8CD
:102300003021200002F05CFA0A222979200002F034
:10231000C6FA3100200002F04FFA6B79092B03D87E
:102320003021200002F04CFA002669790A222000B0
:1023300002F0B9FA5022200064231E21009601F019
:1023400005FC614B614F23613900200002F034FA33
:102350005F4B39002361200002F02EFA200001F0CB
:10236000E3FA5C4C5C49200002F038FA0A226978F2
:10237000200002F094FA2F21200002F021FA0A2214
:10238000A978200002F08BFA2F21200002F018FA21
:10239000FA232978DB00C9180A22200002F06FFA1C
:1023A0004E49200002F008FA280000F0D2FF0C216C
:1023B00048434B490918200002F0FEF92000494922
:1023C00002F0FAF90A22E978200002F068FA3A21CC
:1023D000200002F0F5F90A222979200002F05FFAC4
:1023E0003A21200002F0ECF90A226979200002F07B
:1023F00056FA200002F0EAF9200002F0E7F9052180
:10240000300003F091FF05210400300003F08CFF41
:1024100005210500300003F087FFFF2324041B047F
:102420002D061C402D0C2C43C0B228212043FFF761
:1024300065FE50213000FFF761FE2B4A136801331F
:102440001360062B2DD10A2464250D36012130009E
:1024500004F0CAF9280003F0E5FF0021300004F081
:10246000C3F9013C280003F0DDFF002CEED1FA2473
:102470000125240129000D2004F0B6F929000820C7
:1024800004F0B2F9200003F0CDFF00210D2004F08C
:10249000ABF90021082004F0A7F9200003F0C2FFE7
:1024A000E8E707B0F0BDC046200300200100280087
:1024B000EC0200203BB7000001003C0047B70000E1
:1024C0006EB7000045B7000001006E0049B700007C
:1024D00002006E00200B00205DB700006AB700000C
:1024E000040000206DB70000240300200020704786
:1024F000F8B505000E0017000024BC4208D02B6878
:102500002800315D1B689847002801D00134F4E7AA
:102510002000F8BD70470300FC33196ADA69914264
:1025200003D01B6AC018007E704701204042FBE7C1
:102530000300FC33D8691B6AC01A01D50130FF3093
:1025400070470000F7B50193FA23802700250400A7
:102550009B008360114B7F0008330E00456029000B
:10256000009203603A00183006F0F1FA23002000D0
:10257000FC332130DD613A001D622900FF3006F096
:10258000E6FA87239B00E3185D609D60009B2000B6
:102590002375019B2661A5756375FEBDF8BE00001D
:1025A00070B5040018260C49006902F00FFC206980
:1025B00002F068FA33000821207D084D4343EB18F0
:1025C000595604F03DF90821607D4643AD1969561E
:1025D00004F036F970BDC046A0860100FCC50000BD
:1025E0008A2300229B00C1540C3BC3185A609A6096
:1025F0000123837570470200FC32536810B5013324
:102600009468DBB29C4202D054680155536010BDFF
:10261000F7B5019300230400150018009A422FD04B
:102620002200FC32D36120691362012202F068FAB1
:10263000002826D02700206902F0E4FA18370100AC
:102640003800FFF7D8FF01262069B5420ED002F00E
:1026500037FA0221206902F03DFA206902F0D2FA2D
:1026600001003800FFF7C7FF0136EDE702F01FFA5F
:10267000019B002B03D00321206902F02BFAE8B262
:10268000FEBD0500FBE710B50300827D00208242FD
:102690000ED0872292009C186268A4680132D2B2E0
:1026A000A24205D02133FF331800FFF7A4FF012019
:1026B00010BD0300FC3399685A68914206D09A68AD
:1026C000805C9A680132D2B29A6070470120404221
:1026D000FBE700228A2370B59B00827505000E007F
:1026E000C15C006902F00CFA002806D103212869B8
:1026F00002F0F0F90224200070BD872328009B001F
:10270000EA18536894682130FF301C1B01D501344E
:10271000FF34002C0ED02C69FFF7CBFFC1B2200094
:1027200002F02CFA0028E8D10321286902F0D2F93E
:102730000324E0E7002EDED00321286902F0CAF965
:10274000D9E710B50121FFF7C4FF10BD10B518304F
:10275000FFF7AFFF10BD70B50400006902F030FA5A
:10276000002814D0206902F039FA002810D020691E
:1027700002F0A6F90321206902F0ACF98C239B003A
:10278000E558002D39D10023FC34E361236270BD8C
:10279000206902F02DFA002809D0206902F023FAFE
:1027A000002804D0206902F028FA0028DFD0206930
:1027B00002F01EFA002826D1206902F00AFA002849
:1027C000E5D0206902F019FA002837D087239B0052
:1027D000E218536892689B1A01D50133FF33FF2139
:1027E000002B05D020002130FF30FFF762FFC1B27F
:1027F000206902F0D6F9A075C9E7236820001B699B
:102800009847A847BFE7206902F05AF920690321D9
:1028100002F060F9206902F0F0F90028B7D08723B0
:1028200000229B00E3185A609A600123A3758B2352
:102830009B00E3589342AAD09847A8E72200FC32B5
:10284000D369126A0133DBB22069934206D102F0E8
:102850002EF90321206902F03DF998E702F0D2F940
:10286000010020001830FFF7C6FE206902F028F9A9
:10287000EFE7000010B50248FFF76DFF10BDC0463E
:102880004003002010B51B231A2202490248FFF71B
:1028900059FE10BD140B00204003002010B500F0BD
:1028A0005DFB0022024B8000C35849331A7010BDF3
:1028B00014060020F0B5040085B01E000AAB1B789A
:1028C000103001930BAB1B78170002930CAB1B78F5
:1028D0000D00039300F0C4F92000243000F0C0F98B
:1028E000220000234832A363E3632364636413700C
:1028F000537063729D4205D12721084B084A09484D
:1029000006F09EF82000019B25606371029B2771F1
:10291000E371039BA671237205B0F0BD1CBF0000DC
:102920002DBF000081BF000030B5040085B002ADAE
:1029300000680291039202F060F86B79227AE179E3
:1029400020680093002302F017FA2979029A206880
:1029500002F078F8206802F046F805B030BD0000BB
:1029600007B5837A00910192002B07D09A070AD508
:10297000EFF310835A425341C37272B60099019A21
:10298000FFF7D2FF07BDDB07F8D5C368014A9BB24A
:102990009360F3E700180040837A002B05D09A0774
:1029A00004D5C37A002B00D062B67047DB07FCD594
:1029B000C368024A9BB2D360F7E7C04600180040E4
:1029C00010B5006802F022F810BD70B505000C00CB
:1029D0008E18B44206D021782800FFF7F1FF20704E
:1029E0000134F6E770BD000010B5006802F018F978
:1029F00003000020834203DB0C304343014A985814
:102A000010BDC046E8BF000010B5006802F008F92C
:102A1000002805DB0C2343430348C018406810BD61
:102A200001204042FBE7C046E8BF000010B5006847
:102A300002F0F6F8002805DB0C2343430348C018D6
:102A4000806810BD01204042FBE7C046E8BF00009F
:102A5000F0B506001036050089B0300000F056F9D8
:102A600000286CD12F002437380000F04FF9041EE5
:102A700062D12800FFF7DAFFC1B2300000F026FA79
:102A80000221300000F046FA01222E49300000F009
:102A900019FA300000F062FA2B4B8000C550280074
:102AA000FFF7B2FFC1B2380000F010FA022138007F
:102AB00000F030FA380000F051FA234B8000C55086
:102AC0002800FFF791FF012301002200029330004C
:102AD0002300049403940194009400F041FAA86345
:102AE0002800FFF781FF0123020021000193380035
:102AF0002300049403940294009400F031FAE863F4
:102B0000402006F007F82A0048322864079200287F
:102B10000BD00123137068646B6C10221819E96BD9
:102B2000103406F00BF8402CF6D1079B1B78002BD5
:102B300005D1380000F084F9300000F081F909B0C7
:102B4000F0BDC0469D2800001406002070B5437AF1
:102B50000400002B03D1012243814272C360230091
:102B600048331B78002B02D12000FFF771FF182695
:102B70003300082120790D4D4343EB18595603F0DB
:102B80005FFE33000821A0794343EB18595603F048
:102B900057FE082160794643AD19695603F050FE8F
:102BA000034B200006CBFFF7BFFE70BDFCC5000045
:102BB0000C0600201FB500240D4B0E4A9C801A60A5
:102BC000012301931C3300931C220B49029401330F
:102BD0000A48FFF76FFE0223029323330093242257
:102BE0000749019401330748FFF764FE1FBDC04643
:102BF0000C06002000093D00180B00207405002081
:102C0000100B0020C0050020084B1968002909D1CD
:102C1000EFF31080064A002803D172B6BFF35F8F2E
:102C2000013111701A6801321A607047D80700200C
:102C3000D4070020084B1A68002A0CD01A68013A01
:102C40001A601B68002B06D1044B1B78002B02D0A6
:102C5000BFF35F8F62B67047D8070020D40700200B
:102C6000FF2310B50370C023002104009B004170B6
:102C7000418083800C22083005F069FF200010BDE0
:102C800001230A0010B51A40194208D00C4A1370EB
:102C9000033343708368002B00D0984710BD022394
:102CA000194204D006490B70C3684270F3E704234D
:102CB0001942F3D0024A1370033343700369EAE701
:102CC0004E48004110B5FFF79FFF0C4B1B8C1B07B4
:102CD0001B0F0B2B0FD80A4A9900885800280AD0DE
:102CE0000F2408490A78A24313430B70064B197846
:102CF000C9B2FFF7C5FFFFF79DFF10BD00480041B7
:102D0000DC0700203F4800414E480041F8B5002351
:102D10000278050018000B2A77D93C4E2B702B78CF
:102D20000B2B07D801229A403168114204D001339D
:102D30002B70F4E7012068E0FFF766FF3768344C3A
:102D4000002F2BD12022334B334859690A435A6153
:102D50001022D9690A43DA61022223883900934399
:102D600023802388013A134323802C4B6063BF32B6
:102D7000A36305F0ECFEC0223900284805F0E7FE09
:102D80004022C120264B80002380264B26491A6012
:102D90001A581140C02212040A431A5001231A0083
:102DA000297830688A40024332600F261F4A880023
:102DB00085501F4831400278B2430A430270022016
:102DC0001C4A1178814311701178194311702978C8
:102DD00022698B409A43226160223F21636C9343B6
:102DE00063642A79636C0A40134912020B40032181
:102DF000134363646A79636C0A40104992050B407F
:102E000013436364FFF716FF0020F8BDD0070020CE
:102E10000048004100040040100700205006002038
:102E2000020F000000E100E0FFFF00FFDC070020D0
:102E30003F48004140480041FFC0FFFFFFFF3FFF08
:102E400070B50500FFF7E0FE6B785CB2062B2BD067
:102E50002B7802240B2B27D801229A40144B196897
:102E6000114221D01968914319601B68002B14D1BD
:102E70004022104BDA67BFF34F8FBFF36F8F2100F3
:102E80000D4A0E311388A34313800C4BDA698A4331
:102E9000DA615A6910318A435A6100242B78084A52
:102EA0009B009C50FF232B70FFF7C4FE200070BDD9
:102EB000D007002004E100E0004800410004004089
:102EC000DC0700200232920011507047037870B581
:102ED00005000C0001710B2B14D8FFF795FE297823
:102EE0000F25094829400378084AAB430B43037078
:102EF0003F23516C1C40064B240219400C43546480
:102F0000FFF798FE70BDC0463F48004100480041B1
:102F1000FFC0FFFF037870B505000C0041710B2B5B
:102F200014D8FFF771FE29780F2509482940037846
:102F3000084AAB430B4303700323516C1C40064B00
:102F4000A40519400C435464FFF774FE70BDC046DD
:102F50003F48004100480041FFFF3FFF00787047B5
:102F6000F0B587B001930CAB1E780DAB1B78050054
:102F700002930EAB1B780078039310AB1F7804917B
:102F800005920B2802D9002007B0F0BD6B78062B04
:102F9000F9D0AB78002B00D179E01021080005F0C2
:102FA000AFFD0028EFD02B783B4A1B019B181A007D
:102FB000D168002904D0D1688B4201D0D268F7E7EC
:102FC000D06001220223AA70964203D0DB18022EA1
:102FD00000D0130006240188114301800188A14319
:102FE000018001881234A1430180153C01882640EC
:102FF0002A4C360221400E430680029E0188284C4E
:1030000016402140B6020E430680039E0188254CDF
:1030100016402140F6020E4306800188224E3A40B7
:10302000314012030A43072102800F9A114002889F
:103030004903D204D20C0A4302806A469288428035
:10304000049A4260029A002A08D0019A41685A43C1
:10305000002F01D00F9CA2408A184260059A82601E
:10306000039A002A09D0019A84685A431300002F5A
:1030700001D10F9A9340E31883600023EA789A42C3
:1030800003D02B78044A1B019B18C3607CE7024BDA
:103090000001C01895E7C04610070020FFFCFFFFA5
:1030A000FFFBFFFFFFF7FFFFFFEFFFFF70B505001E
:1030B00000680E00002801D003F0FEF9102003F094
:1030C000F7F904003200682100F04FF92C6001216B
:1030D000200000F067F970BD0323F0B54F7987B089
:1030E00004AC0E0003900A2138000625237003F07B
:1030F000EDFC68433F18677037790A21380003F008
:10310000E5FC68433F18A770F7780A21380003F000
:10311000DDFC68433F18E770B7780A21380003F0F8
:10312000D5FC68433F182771002773780A211800DF
:103130000293677103F0CAFC6843029B3678181843
:10314000A0710A21300003F0C1FC454303987519B2
:10315000E57101970097012321000822006800F023
:103160002FF93A000221039800F075F807B0F0BD7E
:103170000323F0B589B006AC2370002305000800D6
:10318000019307330093210023000122006800F01F
:103190007EF97F20A678A1796279E3786778247830
:1031A00020400624059064421811604384461011A3
:1031B0006043634484460811604362448446FA20B5
:1031C0006144C000C9B209180598DBB20011604320
:1031D00084460598D2B26044C0B202903811604370
:1031E0003F18301144433419FFB2E4B2280001976C
:1031F000009400F03FF8280009B0F0BD30B501237D
:1032000004000D4D8B4206D228780133121892B279
:10321000DBB20135F6E7022903D9A30701D1013258
:1032200092B26E23FF336343E01C013B8010C01851
:10323000101880B230BDC04630C000000378303B6B
:10324000DBB2092B00D900230A22534340783038DF
:10325000C018C0B270471FB56B4619735A7300236C
:10326000019300930222013303A9006800F0A8F83B
:1032700005B000BDF0B5FA2705AC267806AC257878
:1032800007AC2478FF00B94202D3054FC91989B2AF
:10329000C67005710170427083704471F0BDC04604
:1032A00030F8FFFF7FB501AD0400160028000B22A7
:1032B00005F044FC0D206844FFF7C0FF207028781B
:1032C0004138122815D803F0F7FB30141442142E9D
:1032D0001414140A141436403E1414143C006A7872
:1032E0000123612A04D0AB786E3B5A1E934106330A
:1032F000637002A8FFF7A2FF08223100A070280027
:1033000005F01CFC2800FFF799FF6B46E070D81D04
:10331000FFF794FF20710A206844FFF78FFF607168
:10332000200004B070BD0223E2E7AA780423722AC9
:10333000DED0DB18DCE7AA780323722AD8D0023368
:10334000D6E70923D4E70A23D2E70B23D0E70C23DF
:10335000CEE710B5827841780078FFF74FFF07215C
:10336000063003F023FDC8B210BD00230372FA3308
:1033700001704260C360704710B5037A0400002BEF
:103380000AD021786068FFF72BF96068FFF7D9F958
:1033900043425841C0B210BD012100F003F800289B
:1033A000EFD1F8E770B5040040680D00FFF7F8F8BA
:1033B00001202072002D02D02000FFF7DDFF70BD3C
:1033C000F8B51E00079B1500D318C26804000F0053
:1033D000934201D90020F8BD01784068FFF700F959
:1033E000079B002B0FD160682A00036839005B68D7
:1033F00098478542EED131006068FFF76AF9434291
:103400005841C0B2E7E7069B002BECD06068079AF2
:10341000036806995B689847079B9842DAD1E2E710
:10342000F8B505000F0016000178D2B24068FFF72A
:10343000EFF8002486420AD1A64207D968680368DB
:103440005B69984738550134A4B2F5E701242000A0
:10345000F8BDF7B507001600002400910193B442AF
:1034600013D2FB68351B9D4200D91D00019B721BC6
:10347000A24200D90023009A380011192A00FFF750
:10348000CFFF002802D06419E9E70120FEBD73B523
:10349000040000201D0006AB40CB1B78019000907B
:1034A0002000FFF78DFF002805D0012332002900FE
:1034B0002000FFF7CEFF76BDF7B5002708ACE75731
:1034C0000AAC24781825A4460BAC247881730194A7
:1034D0000024694304604460204C214D0E57C273A0
:1034E000F6017619066201263500437407746118E7
:1034F00049688D400563791C0AD018257D432957FA
:10350000174FC901C9196519416169688E40466242
:10351000591C0BD018214B43E156124DC9014919D2
:10352000E318C161596801238B40836218235A4311
:10353000A3560B49DB015B1883610123A418626861
:103540009340C362099B0022836063460373019B1F
:103550004373030034331A70FEBDC046FCC500003F
:10356000104400412044004110B504000E202056B4
:10357000431C07D0012103F007F90E20012120563A
:1035800003F032F92068002805D0FFF7DFFA0120A8
:103590003434207010BD0F200121205603F0F4F8C0
:1035A00002230F20617B2056994315D103F01CF9AB
:1035B00010202056431C07D0012103F0E5F810200D
:1035C0000121205603F010F911202056431CDED0B3
:1035D000002103F0D9F8DAE70121E7E7F0B50400AC
:1035E00000680E00150089B0002803D0FFF7EDF940
:1035F00009B0F0BD0122237B0292002B01D0802371
:103600000293029A3378A16813405A4253414D48BD
:10361000DBB2059303F05AFAC3B2302003215843BA
:103620000393019303F052FA310084467319079310
:10363000079B8B42DCD000220B780693029B0398F9
:10364000002805D00198002802D060460138FDD13D
:10365000657BA069023D012D45D8102565570135D0
:1036600012D0069E1E4035006F1EBD410496059E79
:10367000B54209D0049E676A6569002E2ED02E6877
:103680003E432E60012505950568E66A35430560D1
:10369000039D002D05D0019D002D02D06546013D02
:1036A000FDD111256557013506D0E569A66A2D685B
:1036B0002E4201D01A43D2B20568E66AB5430560CE
:1036C00011202056013000D00A70207B002837D10D
:1036D0005B00DBB2002BB2D10131A9E72E68BE43FB
:1036E0002E60049DCFE70568E66A35430560039DBB
:1036F000002D05D0019D002D02D06546013DFDD174
:1037000010256557013507D0069E6569676A334203
:1037100012D02E6837432F600568E66AB54305600E
:10372000112020560130CBD0E069A56A006805421F
:10373000C6D01A43D2B2C3E72E68BE432E60EBE771
:103740005B10C6E720A1070007B56B460122D971BF
:10375000D91DFFF743FF6B46D8790EBD0300006803
:1037600010B5002803D05B6806CBFFF7F9F810BD51
:10377000006810B5002801D0FFF70EF910BD7047A2
:1037800070B5002927DB0C25445F8C4223DD002A1D
:1037900021DB0E25445F94421DDD857E0826845F73
:1037A000022D19D0032D1FD0012D03D1D5432D1982
:1037B0000A0029B2072554436418E2172A40121957
:1037C000846AD210A0182940A25C002B12D00B4BA7
:1037D0005B5C1343037070BD651E691AD543428953
:1037E00009B2521912B2E5E74589013D6D1A11007F
:1037F0002AB2DFE7024B5B5C1340EBE743C00000FB
:103800003BC00000F0B5040087B01D000DAB059271
:1038100000229A5E0CAB04910021595E00F07AFA06
:10382000114B00270833236023002C336762A76203
:1038300038201D7002F03CFE6A4606000220127C11
:1038400003900E980123019068460297007D52B2C2
:1038500040B2009069B230005B42FFF72DFE2000BD
:10386000666207B0F0BDC0464CC0000070B50400F1
:10387000406AFFF779FE051E02D10025280070BDC1
:1038800023002C331878002102F0AEFF230002221F
:103890002D331A700A22A05E0822A35E072243433A
:1038A000D8171040C018C01005F034F9A0620028E5
:1038B000E3D02368002120001B6B9847DEE7F7B5B3
:1038C00004000822835E0A21425E07212700534339
:1038D000DA170A40D218D210F831806A05F037F9A9
:1038E0002C37606AFFF73AFF3878012102F07CFF3D
:1038F00000266B4625005E7104232D352A78606A08
:1039000013436A4601A913710222FFF767FE2B7861
:1039100031005A4253415B002B70387802F064FF4B
:10392000606AFFF725FFF7BDF0B5040087B000AF70
:10393000406AFFF713FF230025002C33187801217C
:1039400002F052FF01212D352B78606A1943FFF7F1
:10395000FBFE2B785A4253415B002B700822A35E7A
:1039600007220025D9171140C918C9103961397CBF
:103970007A6079610A20215E5943CB1713405B18A6
:10398000DB109BB2FB60FB689D422CD26E467B69CC
:10399000681C0933DB08DB00F31A9D46BB60082274
:1039A000A35E7A68D9171140C918C91003F018F935
:1039B000BB68013018706B46581CA36A7A695919A4
:1039C00005F0BCF800227B6969466B445A707B693C
:1039D000606A9A1CFFF702FEFF223B69B54613405E
:1039E000ED18ADB2CFE70021606AFFF7ADFE23000E
:1039F0002C331878002102F0F7FE606AFFF7B8FE5A
:103A0000BD4607B0F0BDF0B515000C001E0089B032
:103A10000EAB00229B5E0FAA1288019005925A1BE2
:103A2000D11752184A400292321BD11752184A40FD
:103A300003920399029A8A4205DD32001E001300A8
:103A400022002C001500B44205DD2A001D001300E1
:103A5000220034001600321B91B20691591BC81780
:103A60000918414012B20791D10F8A1852100092E2
:103A7000012204929D4202DB01235B420493B44283
:103A800022DC019B039A1B689B691F00029B9342E7
:103A900016DD22002900059B0198B847009B079A74
:103AA0009A1A11B293B20091120406D5049AAD1875
:103AB000069A2DB2D3181BB20093013424B2DEE76C
:103AC0002A002100059BE7E709B0F0BD704710B55B
:103AD00004682469A04710BD37B506AC2588046882
:103AE0000095A46BA04737BD37B506AC25880468A0
:103AF0000095E46BA04737BD73B506AC0025655F44
:103B000007AC2688046801960095246CA04773BD15
:103B1000F0B5160004000D0085B003930AAB1F88B2
:103B200003685B699847039B2268013B9B191BB2A2
:103B3000009301972B0029002000976A3200B847B4
:103B400023682000DB6A984705B0F0BDF0B505009A
:103B50001C000E00170085B00AAB1B88013C0393C4
:103B60000368A4195B69984703992A680191009733
:103B70003100280023B2946A3A00A0472B6828003D
:103B8000DB6A984705B0F0BDF0B50E0087B003932F
:103B90000CAB029200229B5E040004930DAB1B88C9
:103BA0003500059303685B699847039A2368B21848
:103BB00095420BDA059A290000921B6A20001F002B
:103BC000029A049B0135B8472DB2EEE72000DB6A6C
:103BD000984707B0F0BD13B501910E24015F0C2288
:103BE000835E02680091146C00221100A04713BD8F
:103BF000F0B5040015000E0087B004930CAB002252
:103C00009B5E05930DAB1B88039303685B69984724
:103C1000039A2368009231002A0020005F6A049B07
:103C2000B847059B03995A1E236800915219310029
:103C300020005F6A12B2049BB847039A236800927F
:103C400031002A0020001F6A059BB8470499039A97
:103C500023680139009289192A0020001F6A09B2DD
:103C6000059BB84723682000DB6A984707B0F0BD82
:103C70007047F0B585B002930AAB0027DF5F0BAB4E
:103C80001B8816000393029B04000D0002689942F2
:103C900010D1BE4202DD33003E001F000399013700
:103CA0000091BB1B976B1BB2320029002000B84764
:103CB00005B0F0BDBE420CD1029B994201DD029DD0
:103CC0000291029B039901335B1B0091D76B1BB2DE
:103CD000EAE753699847039A236801920097200006
:103CE0009F6A3200029B2900B84723682000DB6AE4
:103CF0009847DDE703230B4010B583760822835EE7
:103D00000A24025FC90702D48381C28110BD828167
:103D1000C381FBE74281C2810122002310B55242D8
:103D2000064C4261064A0834436004600181818187
:103D3000036182610377036210BDC046A4C5000021
:103D400001010001F0B51C008FB00692012214ABF6
:103D50001B780591079315AB0021595E16AB1B88A4
:103D600005000893A3B2D01A93405B421BB2891896
:103D70000C938BB209930493002300B20290039337
:103D80000D92039BA3427BDA029B2700002B09DBE9
:103D90000C9B671E02331AB20C92029A3FB29B1818
:103DA0001BB202936B469B890A9301339AB21BB2F2
:103DB00003930B925300029A01339B181BB2029398
:103DC000039B9F422CDB079B0D9A134212D009994B
:103DD000BAB25300CB1806990B988A1A05992E6827
:103DE000411808981BB20090306A12B2060009B25E
:103DF0002800B0470222079B134211D00999BAB29A
:103E00005300CB1806990B988A1A0599089E091A2F
:103E100028680096066A1BB2280012B209B2B047A1
:103E2000BC4227D0079B0D9A13420FD06B460A99CC
:103E300010229B5E069A089E521A05992868091955
:103E40000096066A12B2280009B2B0470222079B08
:103E500013420FD06B460A9910229B5E069A28687F
:103E6000521A059912B2091B089C09B20094066AFD
:103E70002800B047049B3C0002339BB2049380E7C8
:103E80000FB0F0BDF0B58DB01E0012AB0B9200224A
:103E90009B5E0F00049313AB0021595E14AB1B888B
:103EA000050005936B461A8A049BB34200DD321C61
:103EB00012B2D30F9B185B101C1C8B4200DD0C1C34
:103EC00023B209932B6828005B699847BBB206931D
:103ED000A3B20793069BA2B29F186400B3B20893E3
:103EE000A3B205990A930A9A089B019104999B1A17
:103EF0002A6800913FB239002800D4691BB20B9A9E
:103F0000A047079A0B9B944663441EB2049B28006B
:103F10005C1E0A9BE41A069B24B2591E089B01945E
:103F20005918059B891A029301233200009309B2A4
:103F3000099BFFF707FF059B32000293022339001C
:103F4000280000930194099BFFF7FCFE2B682800D2
:103F5000DB6A98470DB0F0BDF0B595B01D001AAB07
:103F60001B88049205931BAB1E881CAB1B78026A4E
:103F700002931DAB1B78040008910393002A00D024
:103F8000C4E00C22835E8B4200DC7DE00E22835E67
:103F9000049A934278DD0623029A53435B18002B60
:103FA00072DD039B049ADB009B18002B6CDD037F02
:103FB000002B03D1AF2D01D90135EDB223682000CC
:103FC0005B6998470522002355430793984B0B9252
:103FD0005B190F93079A0F9B9B5C0A936B469B8B15
:103FE00009936B461B89099A0E936B461F8C029BA3
:103FF0005343FB181BB20D9308230C930023069325
:1040000001220A9B2068134252D06B461A8B198AF0
:10401000029B012B3AD1039B012B37D1099B5218EC
:104020008569D919059B12B209B22000A847069BE1
:1040300001335BB206930A9B5B080A930C9B013B1E
:10404000DBB20C93002BDBD1079B01335BB20793F0
:104050000B9B013BDBB20B93002BBBD1059BB34207
:104060000ED0029B2268012B3FD1039B012B3CD138
:1040700005370096156A2000049A39B20733A8471D
:1040800023682000DB6A984715B0F0BD6B46082511
:104090005B5F039D6A438A18059912B201916946D4
:1040A0000C25495F0091C5690D992000A847BEE71E
:1040B000059BB342BBD06B461A8B198A029B012B1E
:1040C0000AD1039B012B07D1099B5218D919856985
:1040D000330012B209B2A8E76B4608255B5F039D67
:1040E00001966A438A1812B2D9E76B4608215B5ED3
:1040F00005210E980196414303987918C00000905D
:10410000D5692000049A09B2A847B9E7137A516823
:10411000ED1A1268EDB2ED0013924A5B4B19099249
:104120009A780D92DA78119205229A569B790E921E
:104130005BB20F93029B012B02D8039B012B56D934
:104140006B4638229B5E0B936B463C229B5E0C9326
:104150000027236820005B69984707970697119B03
:10416000069A9A4200D38BE76B461B8A00260A9375
:104170000C9B9B18039A53430A9AD3181BB21093B3
:104180003B000D9A96424BD25A1CD2B21292072291
:10419000134207D1099B0999139A0133525C9BB2D0
:1041A000079209936B461B7F5BB2002B17DA6B46B5
:1041B000198C029B2068012B1DD1039B012B1AD166
:1041C0000A9B0F9A9A18069BD2180E9B12B2C91816
:1041D000836989191D002000059B09B2A847079B28
:1041E00001365B00DBB20793F6B2129BC9E70023EE
:1041F0000C930B93ACE76B4608229B5E0B9A029DD7
:1042000092196A438918059A09B201926A460C25E7
:10421000525F0092C26920001500109AA847DEE79D
:10422000069D0D9B0135FF18EBB2FFB2069396E792
:10423000A4C00000F0B5026A04000B0085B0002A9B
:1042400034D10A2908D1437E0282DB00628A9B189E
:104250006382012005B0F0BD0D29FAD0E17E007E19
:10426000657E00290ED01026A15F062646438919D7
:104270000C27E65FB14205DD1226A15F2282EA002B
:10428000521862820290E08A1221625E0190A08A36
:104290001026A15F009003952000FFF75DFE062227
:1042A000237E5343228A9B182382D2E70A2905D111
:1042B00000230382127B437E5343C7E70D29C8D0F6
:1042C000117A8B42C5D3907A9842C2D3591A50685A
:1042D000C9B2C9004518AF78002F28D0E978002965
:1042E00025D0E17E207E667E002913D00521695607
:1042F000C91941438C461021675EBC440C21675E9E
:10430000BC4507DD1227E15F00272782127B72433D
:10431000521862820290E08A1221625E0190A08AA5
:104320001027E15F009003962000FFF715FE2B7920
:10433000227EB6E70B1C002900D1012303764376C9
:104340007047036A002906D0002B02D1438A063346
:10435000438201627047002BFBD0438A063BF7E79C
:1043600010B50400C06804F0DFFB0623E05E0028FF
:1043700002DB002102F008FA200010BD10B5040095
:104380000623C05E002807DB012102F0FDF90021B1
:104390000623E05E02F028FA0123637010BD70B5B9
:1043A0000500C0680E0004F0BFFB2B7CEC7CE41A17
:1043B000631E9C4103347443A4B22000AC8004F01B
:1043C000A9FBE860002805D02200002104F0BFFB13
:1043D0006E8070BDA8806880FBE70322F8B58B1162
:1043E0000D118E101640134015400A404674827419
:1043F0000026FF228A427641C268C47C077CC374CF
:1044000005740670002A0AD0E21B5B1B51424A4128
:1044100059424B419A4202D04188FFF7C0FFF8BD94
:10442000F8B5C3680400002B00D1EFE096256D00BD
:1044300001F0C8FF6369984201D26061F8E7C01AD1
:10444000A842F5D372B60622A35E18220120534378
:104450006F4FA688FA185268DB5D9040E268DB0176
:1044600015789619511C6B4A9F186B4A9B18227835
:10447000002A00D058E0803294463860C046C046DA
:10448000C046C046C046C046C046C046C046C046FC
:10449000C0462A4200D192E0C046C046C046C0464F
:1044A000C046C046C046C046C046C046C046C046DC
:1044B000C046C046C046C046C046C046C046C046CC
:1044C000C046C046C046C046C046C046C04618604A
:1044D000C046C046C046C046C046C046C046C046AC
:1044E000C046C046C046C046C046C046C046C0469C
:1044F000C046C046C046C046C046C046C046C0468C
:10450000C046C046C046C046C046C046C046C0467B
:10451000521000D170E0D2B2C046C046C046C0467C
:10452000C046C046C046A8E7802294463860C046D0
:10453000C046C046C046C046C046C046C0462A42E5
:1045400021D0C046C046C046C046C046C046C04650
:10455000C046C046C046C046C046C046C046C0462B
:10456000C046C046C046C046C0461860521020D063
:10457000D2B2C046C046C046C046C046C046C0468D
:10458000C046C046D2E71860C046C046C046C046D6
:10459000C046C046C046C046C046C046C046C046EB
:1045A000C046C046C046C046C046C046C046C046DB
:1045B000DCE7B14226D20D7862460131B6E71860D9
:1045C000C046C046C046C046C046C046C046C046BB
:1045D000C046C046C046C046C046C046C046C046AB
:1045E000C046C046C046C046C046C046C046C0469B
:1045F000C046C046C0466BE7B14203D20D78624662
:1046000001313AE762B601F0DDFE6061F8BDC046F7
:10461000FCC50000184400411444004170B54378C3
:1046200004000D00002B06D00623C05E002802DB2C
:10463000002102F0A9F86378E580002B07D0012162
:10464000280002F0A1F80021280002F0CDF870BD8A
:1046500070B5040000200E00150019006070207273
:10466000E06060612000FFF7B8FE31002000FFF736
:1046700096FE29002000FFF7D1FF200070BD43887F
:10468000F7B58B4219D9037A150C140A002B15D1F2
:10469000E4B2EDB20194D6B2B446047CC67CC768DD
:1046A000B44217D1032359437F18037C019AFD5468
:1046B000437CFA546246837CFA54F7BDFF263440AB
:1046C00035405C4316405D435E43240A2D0A019445
:1046D000360AE1E789007F18120E002B02D1D3B20F
:1046E000BB55E2E753431B0AFAE7000010B5024846
:1046F00001F016FD10BDC0460C08002013B5114C8A
:104700001149200000F0D9F81049114800F0D5F8FF
:104710001049114800F0D1F81049114800F0CDF8C7
:104720001049114800F0C9F81049114800F0C5F8C7
:104730000123032221000092019300220D4801F081
:1047400085FC13BD080B002000080042000C00424D
:104750000C0B002000100042100B0020001400423F
:10476000140B002000180042180B0020001C00420F
:104770001C0B00200C080020F8B505000E001700E7
:104780000024BC4208D02B682800315D1B68984784
:10479000002801D00134F4E72000F8BD70B5050011
:1047A0000C00081E07D005F0E9F82B680200210074
:1047B00028005B68984770BD10B5FFF7EFFF10BD8C
:1047C00010B503681B68984710BD000010B502497A
:1047D000FFF7E4FF10BDC04604CA000070B5040036
:1047E000FFF7DCFF05002000FFF7F0FF401970BD68
:1047F000F0B58BB06B4614000022053307000D00A6
:10480000DA77012C00D80A2409AE2800210002F032
:10481000E3F90300CAB2080029001D001300373372
:10482000DBB2092802D813003033DBB2013E33700B
:104830008C42EAD931003800FFF7B0FF0BB0F0BD71
:10484000F8B507000D00161E04D10368C9B21B6835
:104850009847F8BD0A2A0CD100290BDA2D21FFF761
:10486000AFFF3200040069423800FFF7C1FF201893
:10487000EFE7D2B229003800FFF7BAFFE9E710B539
:10488000FFF7DEFF10BD10B5002A04D10368C9B2DE
:104890001B68984710BDD2B2FFF7AAFFFAE710B520
:1048A000FFF7F1FF10BD70B50400FFF7ECFF050046
:1048B0002000FFF78BFF401970BD016070479446E0
:1048C000F0B505AC25789C1E621E944162460668D0
:1048D0009207376824063A4322430724326000686F
:1048E0002140AD01002442682943022B00D05C0323
:1048F0000A4322434260F0BD30B5C0250368AD03D2
:104900001C6812052A402243C0240904A402214045
:104910000A431A6003685A6814435C6030BD01237F
:10492000026811680B43136003681A68D207FCD44D
:10493000DA69D207F9D470470223026811680B4381
:1049400013600268D3699B07FCD4704703681A7E22
:10495000D20702D41A7E9207FCD570470022036862
:104960005A8370470368187E4007C00F704703687A
:10497000187EC0097047802302685B42117E0B439A
:10498000137670470368588B8007C00F7047022367
:104990000268518B0B43538370470368187EC0072E
:1049A000C00F70470368188DC0B2704703681A7E45
:1049B000D207FCD589B2012019857047012203680E
:1049C0009A757047012203681A75704701230268BF
:1049D00011680B43136003681A68D207FCD4DA69C4
:1049E000D207F9D470470223026811680B431360A1
:1049F0000268D3699B07FCD470470368DA699207A1
:104A0000FCD402211A688A431A6070470268936ACC
:104A10005B0A5B020B43936203681A7E5207FCD564
:104A2000986AC0B27047000010B50548490002F00E
:104A30004DF880B2002801D0013880B2C0B210BD5C
:104A4000006CDC0270B50C000126110063080268DE
:104A500033403440156824075B0723432B4313601E
:104A60000468FFF7E1FF207370BD0123026811683D
:104A70000B43136003681A68D207FCD4DA69D207C3
:104A8000F9D470470223026811680B43136003686E
:104A9000DA699207FCD430215A8B8A431100102224
:104AA0000A435A830268D3695B07FCD470478023AA
:104AB0000268DB02116851680B43536070470000C5
:104AC000036803491A685A680A405A607047C0462A
:104AD000FFFFFBFF032230B5036811401C68074D40
:104AE0005A6809042A40E4061143640F5960052CF2
:104AF00003D10268D3695B07FCD430BDFFFFFCFF24
:104B000030B503680400588B8006800F022813D04C
:104B10005D8B0020AD06AD0F032D2ED0588B800786
:104B200005D55D8B0020AD06AD0F012D25D15D8B28
:104B3000AD06AD0F281E20D04800596A1043C90A9F
:104B4000C0B2C902014359622368002A08D11A7E03
:104B5000D207FCD5588B01234007C00F58400CE00A
:104B60001A7E9207D00F002AF4DB1A7ED207F7D5FF
:104B7000C022596892020A435A6030BD0368283344
:104B800019700268137EDB07D80F002B03D1538BFB
:104B9000DB07F7D570470123508B4007C00F584003
:104BA000F8E70368283319700268137E5B07D80F93
:104BB000002B04DA0123508B4007C00F5840704788
:104BC00003681868C006400F043843425841C0B219
:104BD00070470368187E4007C00F70470368187E4F
:104BE000C007C00F70470368588BC006C00F7047DE
:104BF0000368187E8007C00F70470368588B000752
:104C0000C00F704703681A68D206520F052A02D1F6
:104C10001A7E9207FCD528331878C0B2704700007E
:104C20000368104A934213D00F4A934212D00F4A9E
:104C3000934211D00E4A934210D00E4A93420FD0A5
:104C400001200D4A4042934201D1063040B27047E4
:104C50000020FBE70120F9E70220F7E70320F5E752
:104C60000420F3E700080042000C0042001000425C
:104C70000014004200180042001C0042F8B5FFF783
:104C8000CFFF00282CDB1D4BC0001818052304792A
:104C9000C3560320FF221840C0008240C021D243E7
:104CA0008140002B1DDB1F2501201D40C026A84090
:104CB000134D7600A851C0269B089B005B19B600D7
:104CC0009F593A401143995128603F232340802443
:104CD000E4011C430B4B5C805A7852B2002AFBDB88
:104CE000F8BD0F200340083B07489B089B001B189A
:104CF000D86902401143D961E7E7C04608CA0000FD
:104D000000E100E0000C004000ED00E0F8B5040018
:104D10000F0016001D00FFF7B1FF2000FFF7FFFD99
:104D20001C21BB000B4071072268090C0B43136068
:104D3000842322689375012F1AD11021012E00D0EF
:104D400008390C4B69431868C00001F0BFFE072208
:104D5000216802408B895203DB04DB0C13438B81F7
:104D6000226803049089DB0C400B400318439081B8
:104D7000F8BDC046D4000020F7B50500019308AB8C
:104D80000C0016001F78FFF721FE2800FFF776FFC2
:104D9000C021C022890224040C409203BF073605BB
:104DA000274316403E430C2707222B683E431E60D4
:104DB000019B296813401A0080239B0213434B6018
:104DC0002A68D3695B07FCD4F7BD0000F8B504007E
:104DD0000F00FFF753FF2000FFF747FE1422236860
:104DE00079001A600C4B25681E68300001F06EFED9
:104DF0000A490400300001F069FE7D23FA2158437E
:104E0000C90001F063FEFF23241AE868053C1C403A
:104E100098430443EC60F8BDD400002040420F00EA
:104E20003F20704713B56B460268D9710733546849
:104E300019000122A04716BD10B50221006900F03B
:104E400029FC10BD10B50321006900F039FC10BD2C
:104E500010B51300084A0400D279002A03D10123B7
:104E60000020636010BD0A000069032100F020FDEE
:104E70000028F4D0F6E7C0465C00002010B5054CD1
:104E800003002068421C04D11A6818005269904738
:104E9000206010BDA8000020074A0300106810B56C
:104EA000411C03D001235B42136010BD022118692D
:104EB00000F0F0FCF9E7C046A800002010B5037828
:104EC0004222023303700249024800F09DFD10BDEA
:104ED000640000203C0B002010B5017803004278EC
:104EE0000020A12908D1212A05D1174917481A3ACB
:104EF00000F08AFD012010BD2129FCD1202A13D108
:104F000011491248193A00F01FFC96220E4BD200AC
:104F1000196891420ED1DA7901231A420AD1FA2096
:104F200001F0ECFC0020E6E7222A06D19A78064B35
:104F3000DA71EAE701F0E8FCF4E7232ADBD15A88CA
:104F4000034B1A60D7E7C0465C0000203C0B0020F2
:104F50005800002070470000FA220021054B920003
:104F60009A60054A08321A60044A59601A61197633
:104F70007047C046200B002038CA00003C0B0020C0
:104F8000704770B50F26CB1D02003240D5B22C0001
:104F900000093034092A00DD07341C705A1E99427A
:104FA00000D170BD1300EFE710B50400806903F075
:104FB000BBFDA06A03F0B8FD200010BD10B50400D1
:104FC000FFF7F2FF200001F077FA200010BD00008B
:104FD00070B5032908D1324B8000C058002802D098
:104FE0000368DB68984770BD82291FD1C3B22D4D7D
:104FF0005A01AA1891692C4C80010C40C0218905E6
:1050000021439161294908334018802150612A6861
:105010005B01D01804794942214301717020995CE9
:1050200081430800302101439954DCE70029DAD19B
:10503000C024C1B21B4E4A01B21893681A4DA40590
:105040002B40234393601A4B8001C0180B00506023
:105050003068072608335B01195CB1430E0001215B
:105060003143195491690D402C43946170240F49C8
:105070005161195CA1430C0010212143195491681E
:105080000C4CC3180C408021490321439160916866
:10509000890B89039160402259790A435A71A2E72A
:1050A000400B0020F40F0020FFFFFF8F680B002053
:1050B000280D0020FF3F00F0EFF310830360012371
:1050C000436072B670470368002B02D162B6BFF32B
:1050D0006F8F704737B5056904006846002D14D1FD
:1050E000FFF7EAFF019B621D013B02D3D57FEDB2C2
:1050F000FAE768460193FFF7E6FF002D01D1002093
:105100003EBD206AE369C01AFAE7FFF7D5FF220027
:105110000025019B3432013B02D31578EDB2FAE74A
:1051200068460193FFF7CFFF002DE8D0206BE36ABC
:10513000E9E70000F0B5FF250126426883681168A1
:105140002B405B01CC186419A77AD3183E43A67292
:10515000C6689C680B4FB60436093C4034439C60DB
:1051600083682B405B01D2189468A40BA40394605D
:10517000402283682B4008335B01CB1819790A431E
:105180001A71F0BDFF3F00F0F7B5056904000E008D
:1051900017006846002D43D1FFF78EFF019B601D6D
:1051A000013B5A1C0BD0C27F591E002A05D168460C
:1051B0000193FFF788FF2800FEBD0B00F1E768466A
:1051C0000193FFF780FFE369AF420AD0226A9A4257
:1051D00007D95A1CE261A269D3181B7873550135AF
:1051E000F1E7226A9A42E6D10023E361013368467F
:1051F0002361FFF761FF22000021019B671D013B36
:105200003532581CD3D0F97710785E1E002805D0AF
:10521000200011700193FFF78DFFECE73300F0E7FA
:10522000FFF74AFF2000019B3430013B5A1C06D097
:105230000278591ED5B2002AB9D00B00F6E76846AD
:1052400001930025FFF73FFFE36ABD4202D0226BC6
:105250009A421CD8226B9A42ADD100236846E36281
:105260002361FFF729FF270022000021019B34372B
:10527000013B3532581C9AD0397010785E1E0028D8
:105280000DD0200011700193FFF754FFEBE75A1C7B
:10529000E262A26AD3181B7873550135D4E7330054
:1052A000E8E7F7B582684368D2B21100040008311C
:1052B000186849014118C879C00729D5012552014C
:1052C000CD719B189A6861699204920C002923D1D0
:1052D0002262226A002A41D0A26A656168465A6049
:1052E000FFF7EAFE342294462200019B671D013B32
:1052F000A4443532591C2DD06146FD770978581EDB
:10530000CEB2002905D0019368461570FFF7DBFE89
:10531000F7BD03001670EDE72263226B002A1DD053
:10532000002227006261A26968465A60FFF7C4FE46
:10533000019B621D9446013B34373032591C09D021
:1053400061463D70C97F581ECEB20029DBD10300F3
:105350001670F3E768460193FFF7B5FE2000FFF7EC
:10536000E9FED5E713B56A4600230C00D01DD371C2
:10537000FFF7A4FD23681818206001F03BFB6B4683
:10538000D91D01F003FB236818186B462060D879FB
:1053900016BD000003290ED180220E4B62311B681E
:1053A000FF31585C524202435A5468226339FF323B
:1053B000FF39995470470129FCD18022054B2431D3
:1053C0001B68FF31585C524202435A542822233949
:1053D000FF32EDE7F40F002070B500252F4B0121BF
:1053E000040020201D7001F0CFF90121202001F0E0
:1053F000FBF92B4B01211F201D7001F0C5F9012184
:105400001F2001F0F1F92023264A0F20D1690B4318
:10541000D361012224490B7813430B70234B197875
:105420008143197006211D782943197020490D7890
:105430002A430A701A7802401A70602219780A43C7
:105440001A701C4B1C4A5A805A78D209FCD11B484E
:1054500000F0B2FF1A4D280001F0E0FA280001F038
:10546000F3FA7F212B68C1201A7880000A401A7055
:10547000042219780A430C211A701A898A431149A7
:105480001A810A581202120A0A5080220A601978F8
:105490007E3A0A431A700123237070BD5D0B002011
:1054A0005C0B002000040040584400413C44004193
:1054B00059440041000C0040064000008D5E000091
:1054C000F40F002000E100E00078002810D0012156
:1054D000084B1B681A898A431A810822198B0A43D0
:1054E0001A830422198B0A431A830022024B1A6082
:1054F0007047C046F40F0020EC0F00200A000E4950
:105500008B699B0B9B038B610B680221FF33197224
:105510009879823901439971197A8907FCD57F20DE
:10552000064B0240997A8143114380229972997AFD
:1055300052420A439A727047F40F00200050004113
:1055400010B50B790C00002B0CD10800FFF7C4FC40
:10555000002801D0012010BD094A93699B0B9B03D1
:105560009361F7E701F046FA210001F033FA0028D1
:10557000F0D1034A93699B0B9B039361EBE7C04611
:10558000F40F0020F7B50D001100832A19D1EBB2FA
:10559000324C5A01A21891693148AD010840C0212E
:1055A0008905014391612F4920686D1870210833E6
:1055B00055615B011A5C8A43110040220A431A5468
:1055C000F7BD022A45D1284AAB009858002802D0DE
:1055D00003685B699847382000F06AFF234B8027F7
:1055E000036000231D4E7F00421D0362036143617F
:1055F000C36146608560C760D3772F32C36203639F
:10560000040013703800537003F084FA0190A06115
:10561000380003F07FFAEBB25A01A062B218916829
:105620000F4808330840C021890501439160316863
:1056300007265B01585CAD00B043060003203043F1
:105640005854019B20005360FFF774FD064B5C51DA
:10565000B6E72800FFF7BCFCB2E7C046F40F002015
:10566000FFFFFF8F680B0020400B002064CA000082
:1056700070B505000124064BA200D258002A05D0BF
:1056800021002800FFF77EFF0134F4E770BDC0461B
:10569000AC000020084B8A00D05810B5002803D079
:1056A00003689B68984710BD044BC9B2490159185B
:1056B00088688004800CF6E7400B0020F40F00207F
:1056C00010B50C00FFF7E6FF00280CD0064BE4B243
:1056D00019688023083464010C1962795B42134312
:1056E00063710223E37110BDF40F002070B5CBB2DB
:1056F000124A13485C0189018918021951609168A6
:10570000104D08330D4080218902294340259160C6
:105710009168890B8903916001685A018A1816798A
:105720003543157195796D06FCD55B01C918CB79A8
:10573000DB07FCD500198068C0B270BD280D0020C1
:10574000F40F0020FF3F00F070B5140040220B4B17
:105750000D001B68FF3359790A435A710021FFF786
:10576000C5FFA04200D9200000230549A34203D071
:10577000CA5CEA540133F9E770BDC046F40F00205B
:10578000280D002010B50C48C9B249014218936891
:105790009B049B0C3F2B0BD99468403B9B04A40BB0
:1057A0009B0CA4032343936041188868C0B210BDCA
:1057B00093689B0B9B03F6E7F40F0020F0B51C00E9
:1057C0002F4B85B01B6806000D000192002B54D0B2
:1057D0002C4F3B78D9B2002B02D11F2001F004F8E6
:1057E00064233B70284BAA00D058002808D00368D7
:1057F00022005B68019998470400200005B0F0BDC5
:1058000029003000FFF746FF844204D92900300008
:10581000FFF740FF040029003000FFF7B3FF01212C
:10582000EBB21A4F03935B010293029A3B68019813
:105830009B18FF335A7A0A435A72154BA90122006A
:10584000C91803F07BF9002CD7D029003000FFF7EE
:1058500021FF0028D1D14021039B3A6808335B0126
:10586000D3181879014319710121D971029BD318FA
:10587000FF339A7A0A439A72BFE701246442BCE775
:10588000EC0F00205C0B0020400B0020F40F0020E8
:10589000280D002013B56B46DC1D22000123FFF705
:1058A0008DFF012801D1207816BD01204042FBE781
:1058B000F0B51C003A4B85B01B680E000192002B1E
:1058C0003FD08023DB019C423BD8364D2B78D9B2A8
:1058D000002B02D1202000F087FF642300272B70CB
:1058E000314BB201D3180293002C2CD02F4B1B68E4
:1058F0000393FF2333401D0000930835039B6D0184
:105900005D19AB79DB0921D0294B2A49186801F0D0
:10591000DDF8294B1721584301F0D8F8274BEA79D5
:10592000920713D49A5D002A01D10138F7D20122DF
:105930009A55009B5A011D4B9B189A69920B920332
:105940009A6101277F42380005B0F0BD00221B4B51
:1059500025009A55402C00D940252A00019902982B
:1059600003F0ECF8009BA9045A01104B890C9B181A
:10597000029A7F195A619A69641B920B92030A4337
:105980009A61009B039A08335B01D3180222DA71F3
:105990005979823A0A435A71019B5B190193A3E733
:1059A000EC0F00205D0B0020680B0020F40F00209E
:1059B000D400002040420F00701101005F0B002056
:1059C00070B50C001D000D4BA601F618110030003B
:1059D0002A0003F0B3F8E4B2094A640114196661BD
:1059E000A369084928000B40A361A169AB04890B96
:1059F0009B0C89031943A16170BDC046680B002050
:105A0000F40F0020FF3F00F0F7B5104B0F001B789C
:105A100014000190002B0CD10D4B16001D78002DA9
:105A200009D00C4E0C48358828182D1903F086F83B
:105A300035802000FEBD002EFBD033007A190021F6
:105A40000198FFF7BDFF2D18361AF4E7E80E002085
:105A5000E90F0020EA0F0020E90E0020F8B50F0042
:105A600016000024012A26D9100003F053F805007F
:105A7000380003F083FF0323022201304000287026
:105A80006B7096420DD9397800290AD0531CDBB2CD
:105A90000137A9549E4203D00232EC54D2B2F0E74F
:105AA000320029000548FFF7AFFF441EA041C4B2F1
:105AB000280003F039F82000F8BDC0463C0B002058
:105AC000F0B50025012785B0184B0E0069461F7000
:105AD00004000095FFF746FC154B01A90B806A3BBB
